:020000040800F2
:1000000000A0002081270008A5250008AB250008D6
:10001000B1250008B7250008BD2500080000000034
:10002000000000000000000000000000C3250008E0
:10003000D125000800000000DF250008ED2500089C
:10004000D1270008D1270008D1270008D1270008B0
:10005000D1270008F9250008D12700080726000845
:10006000D1270008D1270008D1270008D127000890
:10007000D1270008D1270008D1270008D127000880
:10008000D1270008D127000815260008D12700082D
:10009000D1270008D1270008D1270008D127000860
:1000A00031260008D1270008D1270008D1270008F1
:1000B0004D26000861260008D12700087526000893
:1000C00089260008D1270008D1270008D127000879
:1000D000D1270008D12700089D260008D127000855
:1000E000B1260008D1270008D1270008C92600083A
:1000F000D1270008D1270008D1270008D127000800
:10010000000000000000000000000000D1270008EF
:10011000D1270008D1270008D1270008D1270008DF
:10012000DD260008D1270008D1270008D1270008C4
:10013000D1270008D12700080000000000000000BF
:10014000D1270008D1270008D127000800000000AF
:10015000000000000000000000000000000000009F
:100160000000000000000000D1270008D12700088F
:10017000D12700080000000000000000000000007F
:0801800000000000D127000877
:1001900010B5054C237833B9044B13B10448AFF3C1
:1001A00000800123237010BD7C00002000000000AF
:1001B000B4BC000808B5034B1BB103490348AFF3B7
:1001C000008008BD0000000080000020B4BC0008D2
:1001D00001F0FF01102A2BDB10F0070F08D010F8F8
:1001E000013B013A8B422DD010F0070F42B3F6D1FC
:1001F000F0B441EA012141EA014122F007047FF015
:1002000000070023F0E80256083C85EA010586EA6B
:10021000010685FA47F5A3FA87F586FA47F6A5FAA7
:1002200087F68EB9EED1F0BC01F0FF0102F00702B3
:1002300032B110F8013B013A83EA010313B1F8D15E
:100240000020704701387047002D06BF354603383F
:10025000073815F0010F07D1013015F4807F02BF78
:10026000013015F4C03F0130F0BC0138704700BFC9
:1002700080B586B000AF3B4600221A605A609A6093
:10028000DA601A615A6101233B6001237B6003231A
:10029000BB603B461946034803F07EFC00BF18379D
:1002A000BD4680BD3801002080B586B000AF3B461A
:1002B00000221A605A609A60DA601A615A610C234F
:1002C0003B6001237B600323BB603B461946034828
:1002D00003F062FC00BF1837BD4680BD3801002026
:1002E00080B500AFFFF7C4FF0B4B00225A800B48CC
:1002F00002F0F8FC6421094802F040FE074803F0D0
:10030000BDF803469AB2044B5A80044802F000FE3E
:10031000014B5B88184680BDCC04002038010020CA
:1003200080B500AFFFF7C0FF0B4B00221A800B48CF
:1003300002F0D8FC6421094802F020FE074803F0CF
:100340009DF803469AB2044B1A80044802F0E0FD7F
:10035000014B1B88184680BDCC04002038010020CA
:1003600080B582B000AF0023FB717EE0FB794C4A80
:10037000128891B24B4A22F81310FB794A4A32F89C
:1003800013204A4B1B889A4214D3FB79454A32F812
:100390001330092B0ED9FB79424A32F81320FB792E
:1003A0000A3A91B23F4A22F8131001220121404833
:1003B00004F090FE3A4B1B889BB21B0A9BB2DAB248
:1003C0003C4B1A70364B1B889BB2DAB2394B5A70D1
:1003D000FB79354A32F8133040F6D762934230D970
:1003E0000021354808F070FA0421334808F06CFA0F
:1003F0000021324808F068FA0021314808F064FA18
:1004000000212D4809F098FE04212B4809F094FEA4
:1004100000212A4809F090FE0021294809F08CFEAD
:10042000204B0A221A801F4B0A225A801D4B0A2297
:100430009A801C4B0A22DA80012201211C4804F018
:1004400049FEFB79174A32F81330092B0AD9FB7998
:10045000154A32F813300A2B04D80022012114481F
:1004600004F038FEFB790133FB71FB79032B7FF637
:100470007DAF0C4B1B881A460A4B5B881344094A14
:1004800092881344074AD2881344002B00DA0333BE
:100490009B109AB20B4B1A8000BF0837BD4680BD37
:1004A000E804002000000020CC0400200800002008
:1004B00000140048E0040020400200202403002033
:1004C00070030020E604002080B586B002AF03462A
:1004D0000A46FB711346BB714FF0FF3301224E21D8
:1004E000204804F0C5FF0346FB73FB7B002B00D0C4
:1004F000F2E700BFFB7923F00F03BB73FB791B010D
:100500007B73BA7BBB791343DBB243F00C03DBB2E2
:100510003B72BA7BBB791343DBB243F00803DBB217
:100520007B727A7BBB791343DBB243F00C03DBB203
:10053000BB727A7BBB791343DBB243F00803DBB2B7
:10054000FB7207F108024FF0FF33009304234E21A2
:10055000044804F099FE052002F0A2F900BF10370C
:10056000BD4680BDCC01002080B586B002AF0346F9
:100570000A46FB711346BB71FB791B01DBB2FB73AF
:10058000FA7BBB791343DBB2FB73164B1B78DB00A2
:100590005AB2FB7B5BB213435BB2DBB2FB73FB7BF8
:1005A00043F00403DBB2FB7307F10F0264230093F3
:1005B00001234E210C4804F067FE012002F070F97F
:1005C000FB7B23F00403DBB2FB7307F10F02642310
:1005D000009301234E21044804F056FE00BF10375B
:1005E000BD4680BD0A000020CC01002080B584B04B
:1005F00000AF0346FB71FB791B09FB73FB7903F02A
:100600000F03BB73FB7B00211846FFF7ADFFBB7BDD
:1006100000211846FFF7A8FFFB79012B02D0FB79D8
:10062000022B02D1022002F03BF900BF1037BD4679
:1006300080BD80B584B000AF0346FB71FB791B0918
:10064000FB73FB7903F00F03BB73FB7B012118469F
:10065000FFF78AFFBB7B01211846FFF785FF00BF2C
:100660001037BD4680BD80B500AF322002F018F9CA
:1006700000210320FFF778FF052002F011F9002187
:100680000320FFF771FF012002F00AF90021032087
:10069000FFF76AFF012002F003F900210220FFF7B3
:1006A00063FF2820FFF7A2FF0C20FFF79FFF062023
:1006B000FFF79CFF0120FFF799FF022002F0F0F8FE
:1006C00000BF80BD80B582B000AF786006E07B6877
:1006D0005A1C7A601B781846FFF7ABFF7B681B78C3
:1006E000002BF4D100BF00BF0837BD4680BD00001D
:1006F00080B584B000AF03460A46FB711346BB7158
:10070000FB79013B032B17D801A252F823F000BF5D
:1007100021070008270700082D07000833070008F5
:100720008023FB730AE0C023FB7307E09423FB7371
:1007300004E0D423FB7301E08023FB73FA7BBB79D5
:100740001344FB73FB7B63F07F03DBB21846FFF7B8
:100750004DFF00BF1037BD4680BD00BF80B500AF64
:100760000120FFF743FF022002F09AF800BF80BD8E
:1007700080B483B000AF7860174B1B68174A52F8FB
:1007800023307A68D21A164B1B681344144A13603C
:10079000114B1B6811497A6841F823200E4B1B68E6
:1007A000591C104B83FB0123DA10CB17D21A1346C6
:1007B0009B0013449B00CA1A074B1A60084B1B6826
:1007C000084A82FB0312D210DB17D31A18460C37E3
:1007D000BD465DF8047B70472405002028050020F5
:1007E000780500206766666680B500AF20211B484B
:1007F00004F058FC0346002B13D1194B1B78002B37
:100800000FD101220221174804F064FC144B01228D
:100810001A70154B1B780133DAB2134B1A70FFF7BD
:100820009DFF20210D4804F03DFC0346002B12D013
:100830000B4B1B78002B0ED000220221094804F03C
:1008400049FC094B1B78022B02D9074B00221A7076
:10085000034B00221A7000BF80BD00BF0004004897
:1008600001050020001400480005002080B586B076
:1008700002AF01F0AFFF00F0C3FA01F097F801F00A
:1008800077F800F099FB00F037FD00F0EFFD01F084
:100890000FF801F03DF800F0B9FE00F093FC00F015
:1008A000D1FC00F061FF00F017FB00F01BFC00F032
:1008B0005FFE01220121B44804F00CFC01224FF438
:1008C00080614FF0904004F005FCB04B1A88B04BAB
:1008D0005A63AE4B5A88AE4B9A63AC4B9A88AD4B79
:1008E0005A63AA4BDA88AC4B5A630021AB4807F035
:1008F000EBFE0421A94807F0E7FE0021A84807F015
:10090000E3FE0021A74807F0DFFE0021A64808F01B
:10091000D3F80421A44808F0CFF801224FF4006175
:10092000A24804F0D7FB01224FF480619F4804F0F5
:10093000D1FB01224FF480519C4804F0CBFB0122F3
:100940004FF40051994804F0C5FB0521984803F085
:1009500089F80421974803F085F80221964803F0AE
:1009600081F8964B01221A70642001F099FFFFF77D
:100970007AFEFFF7F3FE00220121834804F0AAFB70
:1009800000213020FFF7A0FD00210220FFF79CFD91
:1009900000210C20FFF798FD00210120FFF794FDB6
:1009A00005228749824802F0EBFB844B1B78DBB2BF
:1009B000012BFAD17E4802F0FFFC814B1A89814B52
:1009C0009A807C4802F08EF964217A4802F0D6FAC7
:1009D0007C4B0022DA80774802F050FD03469AB241
:1009E000784BDA80734802F093FAFFF779FCFFF74F
:1009F00097FC744B1B881A46724B5B881344714AF0
:100A0000928813446F4AD2881344002B00DA0333D0
:100A10009B109AB26C4B1A806A4B1A88694B5B88A0
:100A200013449AB2674B9B8813449AB2654BDB8898
:100A300013449AB2654B1A80654B1B780133DAB2C6
:100A4000634B1A705F4B1B881846FFF791FE0346F5
:100A5000DAB2604B1A705B4B5B881846FFF788FE72
:100A60000346DAB25B4B5A70564B9B881846FFF729
:100A70007FFE0346DAB2574B9A70524BDB8818461A
:100A8000FFF776FE0346DAB2524BDA70524B1B7810
:100A9000002B49D14E4B1B78142B45D14F4B1A6874
:100AA0003B1D4F4918460AF097FC00210120FFF733
:100AB0001FFE3B1D1846FFF705FE4A4B1B881946D3
:100AC000484B1B88484AA2FB03231B099BB2381DD5
:100AD0000A4646490AF080FC00210220FFF708FE82
:100AE0003B1D1846FFF7EEFD374B1B881A463B1D92
:100AF0003F4918460AF070FC00210320FFF7F8FD7B
:100B00003B1D1846FFF7DEFD3A4B1B881A463B1D7E
:100B1000394918460AF060FC00210420FFF7E8FD7F
:100B20003B1D1846FFF7CEFD2B4B1B78022B40F0E8
:100B30008380274B1B78162B7ED100222F4930480B
:100B400007F01BFB00222F492D4807F0F8FB2E4B26
:100B50001B781A462D4B1B7819462D4B1B78381DD8
:100B600000930B462B490AF037FC00210120FFF7C8
:100B7000BFFD3B1D1846FFF7A5FD204B1B781A460D
:100B80001E4B5B78194647E0001400480000002027
:100B9000002C014000340140004001404002002090
:100BA00024030020700300208C0200200004004871
:100BB000E80000209800002038010020EB0400200D
:100BC000D4040020CC0400200205002004050020ED
:100BD000FA040020FC04002000050020F40400209A
:100BE000CCBC0008E6040020CDCCCCCCE0BC000896
:100BF000F8BC0008F804002008BD00080C0500201F
:100C00002002002020050020070500200605002006
:100C10000805002014BD00086A4B9B78381D00931E
:100C20000B4669490AF0D8FB00210220FFF760FD5E
:100C30003B1D1846FFF746FD644B1B78012B40F027
:100C4000A380634B1B78122B57D1624B1B88624ADF
:100C5000A2FB03231B099BB21A465E4B1B88381D5F
:100C60005E490AF0B9FB00210120FFF741FD3B1D61
:100C70001846FFF727FD574B5B88574AA2FB032313
:100C80001B099BB21A46534B5B88381D53490AF027
:100C9000A3FB00210220FFF72BFD3B1D1846FFF7A9
:100CA00011FD4C4B9B884C4AA2FB03231B099BB2B2
:100CB0001A46484B9B88381D48490AF08DFB002195
:100CC0000320FFF715FD3B1D1846FFF7FBFC414BCA
:100CD000DB88414AA2FB03231B099BB21A463D4B0A
:100CE000DB88381D3D490AF077FB00210420FFF71F
:100CF000FFFC3B1D1846FFF7E5FC354B1B78B42B7A
:100D000042D1374B1B881A463B1D364918460AF01C
:100D100063FB0D210120FFF7EBFC3B1D1846FFF79D
:100D2000D1FC2F4B5B881A463B1D2E4918460AF012
:100D300053FB0D210220FFF7DBFC3B1D1846FFF79C
:100D4000C1FC274B9B881A463B1D264918460AF0D2
:100D500043FB0D210320FFF7CBFC3B1D1846FFF79B
:100D6000B1FC1F4BDB881A463B1D1E4918460AF092
:100D700033FB0D210420FFF7BBFC3B1D1846FFF79A
:100D8000A1FC134B00221A70FFF7EAFAFFF72CFDC3
:100D9000104B1A88144B5A630E4B5A88124B9A63A5
:100DA0000C4B9A88114B5A630A4BDA88104B5A63E2
:100DB000104B00221A7005220F49104802F0E0F98A
:100DC000F3E500BF0C05002030BD00080005002041
:100DD000FA04002000000020CDCCCCCC44BD00089B
:100DE000CC04002054BD0008002C01400034014018
:100DF00000400140EB040020D4040020E800002063
:100E000080B59EB000AF07F150032822002118469C
:100E10000AF0DAFA07F13C0300221A605A609A607D
:100E2000DA601A613B463C22002118460AF0CCFAEF
:100E30000A233B6501233B6610237B660123BB66C7
:100E40000223FB6600233B674FF460137B6707F1C7
:100E50005003184605F050FC0346002B01D000F06B
:100E6000F5FF0F23FB6302233B6400237B644FF4F5
:100E70008063BB640023FB6407F13C030221184636
:100E800006F078FC0346002B01D000F0DFFF114B89
:100E90003B600023BB600023FB604FF480737B62E8
:100EA0004FF40053BB620023FB614FF400737B607F
:100EB00000233B6300237B633B46184606F090FE0D
:100EC0000346002B01D000F0C1FF00BF7837BD46BC
:100ED00080BD00BFA331010080B58AB000AF07F12B
:100EE0001C0300221A605A609A603B1D00221A609F
:100EF0005A609A60DA601A615A612E4B4FF0A04234
:100F00001A602C4B00225A602A4B00229A60294B0F
:100F100000221A61274B00225A76264B002283F8C2
:100F20002020244B0022DA62224B01229A62214BBC
:100F30000022DA601F4B0122DA611E4B002283F887
:100F400030201C4B04225A611A4B00221A76194B8E
:100F500000225A63174801F0E5FC0346002B01D03C
:100F600000F074FF0023FB6107F11C0319461148D0
:100F700003F0FEF80346002B01D000F067FF0423C6
:100F80007B600123BB6000233B610223FB600023E5
:100F90007B610023BB613B1D1946064802F0FCFD46
:100FA0000346002B01D000F051FF00BF2837BD469B
:100FB00080BD00BF9800002080B586B000AF3B46E2
:100FC00000221A605A609A60DA601A615A61434BD3
:100FD000434A1A60414B00225A60404B00229A60FB
:100FE0003E4B01221A613D4B01225A763B4B0022B7
:100FF00083F82020394B0022DA62384B01229A62B2
:10100000364B0022DA60354B0522DA61334B002281
:1010100083F83020314B04225A61304B00221A767B
:101020002E4B00225A632D4801F07CFC0346002B16
:1010300001D000F00BFF01233B6001237B60002304
:10104000FB600223BB6000233B6100237B613B46C6
:101050001946224802F0A0FD0346002B01D000F003
:10106000F5FE02233B6002237B603B4619461B488A
:1010700002F092FD0346002B01D000F0E7FE0323AF
:101080003B6003237B603B461946144802F084FD15
:101090000346002B01D000F0D9FE04233B6004235B
:1010A0007B603B4619460D4802F076FD0346002B57
:1010B00001D000F0CBFE0C233B6005237B603B4658
:1010C0001946064802F068FD0346002B01D000F0E7
:1010D000BDFE00BF1837BD4680BD00BFE800002040
:1010E0000001005080B58AB000AF07F11C03002258
:1010F0001A605A609A603B1D00221A605A609A601A
:10110000DA601A615A612D4B2D4A1A602B4B00226E
:101110005A602A4B00229A60284B00221A61274B02
:1011200000225A76254B002283F82020234B0022F0
:10113000DA62224B01229A62204B0022DA601F4BB6
:101140000122DA611D4B002283F830201B4B042260
:101150005A611A4B00221A76184B00225A6317481C
:1011600001F0E0FB0346002B01D000F06FFE0023EE
:10117000FB6107F11C031946104802F0F9FF034612
:10118000002B01D000F062FE01237B600123BB60D5
:1011900000233B610223FB6000237B610023BB61D2
:1011A0003B1D1946054802F0F7FC0346002B01D011
:1011B00000F04CFE00BF2837BD4680BD380100203E
:1011C0000004005080B500AF1B4B1C4A1A601A4B3C
:1011D0001B4A5A60184B24229A60174B0122DA608E
:1011E000154B00221A61144B00225A61124B002247
:1011F0009A61114B0022DA610F4B00221A620E48ED
:1012000003F0B2FF0346002B01D000F01FFE0021C7
:10121000094805F0D9F90346002B01D000F016FE6D
:101220000021054805F01BFA0346002B01D000F011
:101230000DFE00BF80BD00BFCC0100200054004067
:101240000E09002080B586B000AF3B1D00221A6059
:101250005A609A60DA601A6100233B60244B254A89
:101260001A60234B00225A60214B7F229A60204B48
:1012700040F23712DA601E4B00221A611C4B00222A
:101280005A611B4B00229A61194806F059FE034629
:10129000002B01D000F0DAFD09233B7100237B71A4
:1012A0000023BB7100233B6100237B613B1D0122B6
:1012B00019460F4806F0C7FE0346002B01D000F088
:1012C000C5FD01233B7006237B700123BB70002307
:1012D000FB703B4601221946054806F0ACFF034669
:1012E000002B01D000F0B2FD00BF1837BD4680BD15
:1012F000200200200028004080B59AB000AF07F11E
:10130000580300221A605A609A60DA6007F14C03B1
:1013100000221A605A609A6007F1300300221A60B6
:101320005A609A60DA601A615A619A613B1D2C22F8
:10133000002118460AF048F84A4B4B4A1A60494BBC
:1013400000225A60474B00229A60464B4FF4FA62E3
:10135000DA60444B00221A61424B00225A61414B31
:1013600080229A613F4807F0F7F80346002B01D02E
:1013700000F06CFD4FF48053BB6507F1580319462C
:10138000384807F0ABFF0346002B01D000F05EFDAC
:10139000344807F038F90346002B01D000F056FD21
:1013A0000023FB6400233B6500237B6507F14C03AE
:1013B00019462C4808F01EFF0346002B01D000F010
:1013C00045FD60233B634FF47A737B630023BB636B
:1013D0000023FB6304233B6400237B640023BB6482
:1013E00007F13003002219461E4807F063FE03464A
:1013F000002B01D000F02AFD07F13003042219462A
:10140000184807F057FE0346002B01D000F01EFDE0
:1014100000237B600023BB600023FB6032233B6121
:1014200000237B614FF40053BB610023FB61002369
:101430003B624FF000737B620023BB620023FB62C0
:101440003B1D1946074808F055FF0346002B01D005
:1014500000F0FCFC034800F05BFF00BF6837BD46AE
:1014600080BD00BF40020020002C014080B58CB040
:1014700000AF07F1200300221A605A609A60DA6018
:1014800007F1140300221A605A609A603B1D002283
:101490001A605A609A60DA60334B4FF080421A60EB
:1014A000314B01225A60304B00229A602E4B2F4A5A
:1014B000DA602D4B00221A612B4B00229A612A48D8
:1014C00007F04AF80346002B01D000F0BFFC4FF4B0
:1014D00080533B6207F120031946234807F0FEFEC4
:1014E0000346002B01D000F0B1FC1F4807F082FA40
:1014F0000346002B01D000F0A9FC00237B610023F0
:10150000FB6107F114031946174808F073FE034600
:10151000002B01D000F09AFC00237B600123BB600C
:101520000023FB600C233B613B1D002219460E4843
:1015300007F023FD0346002B01D000F087FC0223B7
:101540007B600223BB6000233B613B1D04221946E4
:10155000054807F012FD0346002B01D000F076FC91
:1015600000BF3037BD4680BD8C0200200090D00304
:1015700080B588B000AF07F1100300221A605A60EE
:101580009A60DA603B1D00221A605A609A601D4B17
:101590001D4A1A601B4B00225A601A4B00229A60A7
:1015A000184B4FF6FF72DA60164B00221A61154B8A
:1015B00080229A61134806F0CFFF0346002B01D02A
:1015C00000F044FC4FF480533B6107F110031946CF
:1015D0000C4807F083FE0346002B01D000F036FCD8
:1015E00000237B600023FB603B1D1946054808F083
:1015F00001FE0346002B01D000F028FC00BF20377D
:10160000BD4680BDD80200200004004080B59AB0DD
:1016100000AF07F1580300221A605A609A60DA603E
:1016200007F14C0300221A605A609A6007F13003F8
:1016300000221A605A609A60DA601A615A619A61EF
:101640003B1D2C220021184609F0BEFE444B454AA2
:101650001A60434B00225A60414B00229A60404B73
:101660004FF4FA62DA603E4B00221A613C4B0022D2
:101670005A613B4B80229A61394806F06DFF034660
:10168000002B01D000F0E2FB4FF48053BB6507F163
:1016900058031946324807F021FE0346002B01D0BB
:1016A00000F0D4FB2E4806F0AEFF0346002B01D01D
:1016B00000F0CCFB0023FB6400233B6500237B652B
:1016C00007F14C031946264808F094FD0346002B09
:1016D00001D000F0BBFB60233B634FF47A737B6364
:1016E0000023BB630023FB6300233B6400237B6474
:1016F0000023BB6407F1300300221946184807F0A5
:10170000D9FC0346002B01D000F0A0FB00237B6036
:101710000023BB600023FB6032233B6100237B611D
:101720004FF40053BB610023FB6100233B624FF089
:1017300000737B620023BB620023FB623B1D1946E2
:10174000074808F0D7FD0346002B01D000F07EFBD0
:10175000034800F0DDFD00BF6837BD4680BD00BF17
:10176000240300200034014080B59AB000AF07F197
:10177000580300221A605A609A60DA6007F14C033D
:1017800000221A605A609A6007F1300300221A6042
:101790005A609A60DA601A615A619A613B1D2C2284
:1017A0000021184609F010FE3F4B404A1A603E4B9C
:1017B00000225A603C4B00229A603B4B4FF4FA6285
:1017C000DA60394B00221A61374B00225A61364BDE
:1017D00080229A61344806F0BFFE0346002B01D0F8
:1017E00000F034FB4FF48053BB6507F158031946F2
:1017F0002D4807F073FD0346002B01D000F026FBB7
:10180000294806F000FF0346002B01D000F01EFB24
:101810000023FB6400237B6507F14C031946224833
:1018200008F0E8FC0346002B01D000F00FFB60231A
:101830003B634FF47A737B630023BB630023FB633A
:1018400000233B6400237B640023BB6407F1300367
:1018500000221946144807F02DFC0346002B01D046
:1018600000F0F4FA00237B600023BB600023FB60E0
:1018700000233B6100237B614FF40053BB610023D5
:10188000FB610023FB623B1D1946074808F032FD4F
:101890000346002B01D000F0D9FA034800F038FDD0
:1018A00000BF6837BD4680BD700300200040014086
:1018B00080B500AF144B154A1A60134B4FF4165203
:1018C0005A60114B00229A600F4B0022DA600E4BD7
:1018D00000221A610C4B0C225A610B4B00229A61B8
:1018E000094B0022DA61084B00221A62064B0022E3
:1018F0005A62054808F0BFFD0346002B01D000F0F6
:10190000A5FA00BF80BD00BFBC0300200038014025
:1019100080B500AF144B154A1A60134B4FF41642B2
:101920005A60114B00229A600F4B0022DA600E4B76
:1019300000221A610C4B0C225A610B4B00229A6157
:10194000094B0022DA61084B00221A62064B002282
:101950005A62054808F08FFD0346002B01D000F0C5
:1019600075FA00BF80BD00BF440400200044004061
:1019700080B582B000AF0C4B5B690B4A43F00203A9
:101980005361094B5B6903F002037B607B680022B3
:101990000021382002F09FFF382002F0B8FF00BF7E
:1019A0000837BD4680BD00BF0010024080B58AB038
:1019B00000AF07F1140300221A605A609A60DA60DF
:1019C0001A61604B5B695F4A43F4002353615D4BCE
:1019D0005B6903F400233B613B695A4B5B69594ADD
:1019E00043F480035361574B5B6903F48003FB604E
:1019F000FB68544B5B69534A43F400335361514BCA
:101A00005B6903F40033BB60BB684E4B5B694D4AB6
:101A100043F4802353614B4B5B6903F480237B6069
:101A20007B6800224FF40041474803F053FB00223B
:101A30000321464803F04EFB00224FF47051444806
:101A400003F048FB00224FF480614FF0904003F018
:101A500041FB4FF4C0437B614FF44413BB6100234F
:101A6000FB6107F114031946374803F0A1F94FF45D
:101A700000437B610123BB610023FB6100233B62C8
:101A800007F114031946304803F092F903237B61F0
:101A90000123BB610023FB6100233B6207F11403B8
:101AA00019462A4803F084F902237B614FF444135A
:101AB000BB610023FB6107F1140319464FF090400E
:101AC00003F076F94FF470537B610123BB6100236F
:101AD000FB6100233B6207F1140319461C4803F025
:101AE00067F94FF480637B610123BB610023FB61D5
:101AF00000233B6207F1140319464FF0904003F0B6
:101B000057F920237B610023BB610023FB6107F1B0
:101B1000140319460E4803F04BF900220021072058
:101B200002F0D9FE072002F0F2FE00220321282055
:101B300002F0D1FE282002F0EAFE00BF2837BD46A1
:101B400080BD00BF0010024000080048001400489B
:101B50000004004880B582B000AF78607B681B68E5
:101B6000B3F1804F74D17B681B7F012B44D13A4B7A
:101B700000225A620021394806F0A6FE04213748A7
:101B800006F0A2FE0021364806F09EFE00213548F0
:101B900006F09AFE4FF0804300225A62002132483C
:101BA00007F066FC0346314A136004212E4807F013
:101BB0005FFC03469AB22E4B1A802C4B1B682D4AB1
:101BC000B2FBF3F32C4A1360284B1B682B4AB2FB81
:101BD000F3F39AB22A4B1A800021204808F0F8F952
:101BE00004211E4808F0F4F900211D4808F0F0F91E
:101BF00000211C4808F0ECF97B681B7F022B27D1E1
:101C0000154B00225A624FF400411E4803F07AFA45
:101C10000021124808F090FA0421104808F08CFACC
:101C200000210F4808F088FA00210E4808F084FAD5
:101C300000210A4806F048FD0421084806F044FD4A
:101C40000021074806F040FD0021064806F03CFD53
:101C500000BF0837BD4680BD0004004040020020A0
:101C600024030020700300208C020020EC040020DC
:101C7000F004002000389C1CF40400200048E80117
:101C8000F80400200008004880B582B000AF034689
:101C9000FB80FB88B3F5005F49D14FF400414D480C
:101CA00003F030FA4FF400514A4803F0FBF90346C1
:101CB000002B3CD1484B1B88474B1B889BB2132BF6
:101CC0001CD8464B1B78002B18D1002244494548AC
:101CD00006F053FA00224449424806F030FB404BDC
:101CE0001A78424B1A703E4B5A78414B1A703C4B53
:101CF0009A78404B1A70394B01221A70364B1B8868
:101D00009BB20A339AB2344B1A80334B1B889BB276
:101D100040F2CE72934203D92F4B4FF4FA621A80ED
:101D2000354B04221A70354B4FF400525A61FB8830
:101D3000B3F5804F49D14FF48041264803F0B2F902
:101D40000346012B04D14FF40041224803F0DAF995
:101D50004FF480411F4803F0A5F90346002B34D10E
:101D60001D4B1B889BB2002B0FD11C4B1B78012BEA
:101D70000BD11A4B00221A701C4B00221A701C4BFC
:101D800000221A701B4B00221A70134B1B889BB247
:101D90000A3B9AB2104B1A800F4B1B889BB240F63D
:101DA0003302934202D90C4B00221A800A4B1B8843
:101DB0009BB2012B02D8084B00221A800E4B042242
:101DC0001A700E4B4FF480425A6100BF0837BD466F
:101DD00080BD00BF00080048E8040020090500207D
:101DE0000C0500202002002020050020070500200F
:101DF0000605002008050020EA0400200004014038
:101E000080B582B000AF786000224FF480614FF05F
:101E1000904003F05FF900BF0837BD4680BD000069
:101E200080B483B000AF78607B681B68054A93423A
:101E300002D1054B01221A7000BF0C37BD465DF878
:101E4000047B704700010050EB04002080B400AF19
:101E500072B600BFFEE7000080B582B000AF124B43
:101E60009B69114A43F0010393610F4B9B6903F097
:101E700001037B607B680C4BDB690B4A43F08053AA
:101E8000D361094BDB6903F080533B603B68002260
:101E90000021052002F01FFD052002F038FD00BFE3
:101EA0000837BD4680BD00BF0010024080B58EB02F
:101EB00000AF786007F1240300221A605A609A602C
:101EC000DA601A617B681B68B3F1A04F36D1704BA2
:101ED0001B6801336E4A13606D4B1B68012B0BD1DD
:101EE0006C4B5B696B4A43F080535361694B5B6990
:101EF00003F080533B623B6A664B5B69654A43F47F
:101F000000335361634B5B6903F40033FB61FB698E
:101F100008237B620323BB620023FB6207F12403D7
:101F200019464FF0904002F043FF0022002112209A
:101F300002F0D1FC122002F0EAFCA5E07B681B68ED
:101F4000554A934277D1524B1B680133504A136074
:101F50004F4B1B68012B0BD14E4B5B694D4A43F035
:101F6000805353614B4B5B6903F08053BB61BB698A
:101F7000484B5B69474A43F400335361454B5B6907
:101F800003F400337B617B69424B5B69414A43F454
:101F9000802353613F4B5B6903F480233B613B69C2
:101FA000F0237B620323BB620023FB6207F124035F
:101FB00019464FF0904002F0FBFE04237B6203239E
:101FC000BB620023FB6207F124031946334802F089
:101FD000EFFE334B334A1A60314B00225A60304BCC
:101FE00000229A602E4B8022DA602D4B4FF48072D3
:101FF0001A612B4B4FF480625A61294B00229A617F
:10200000274B4FF48052DA61254802F09AFC0346D0
:10201000002B01D0FFF71AFF7B68214A9A63204A00
:102020007B68536200220021122002F054FC12202F
:1020300002F06DFC28E07B681B681B4A934223D1A9
:10204000144B5B69134A43F000535361114B5B69B6
:1020500003F00053FB60FB680E4B5B690D4A43F4D1
:10206000802353610B4B5B6903F48023BB60BB6827
:1020700003237B620323BB620023FB6207F124037B
:102080001946064802F094FE00BF3837BD4680BDB1
:102090007C050020001002400001005000040048B0
:1020A00088010020080402400004005080B58AB076
:1020B00000AF786007F1140300221A605A609A603A
:1020C000DA601A617B681B681F4A934238D11F4B44
:1020D0005B691E4A43F4802353611C4B5B6903F424
:1020E00080233B613B694FF440737B611223BB61EA
:1020F0000123FB6103233B6204237B6207F114038A
:102100001946134802F054FE104BDB690F4A43F4A2
:102110000013D3610D4BDB6903F40013FB60FB6814
:10212000002200211F2002F0D6FB1F2002F0EFFB4F
:1021300000220021202002F0CEFB202002F0E7FB4D
:1021400000BF2837BD4680BD00540040001002404B
:102150000004004880B485B000AF78607B681B68DD
:102160000D4A934211D14FF40043FB60FB6893FA90
:10217000A3F3BB60BB68B3FA83F3DBB21A46074B29
:1021800013449B001A460123136000BF1437BD4659
:102190005DF8047B704700BF00280040008190106C
:1021A00080B58EB000AF786007F1240300221A607A
:1021B0005A609A60DA601A617B681B684F4A9342E2
:1021C00014D14F4B9B694E4A43F4006393614C4BCF
:1021D0009B6903F400633B623B6A002200211820E4
:1021E00002F079FB182002F092FB83E07B681B6809
:1021F000B3F1804F31D1424BDB69414A43F00103D7
:10220000D3613F4BDB6903F00103FB61FB693C4B8E
:102210005B693B4A43F400335361394B5B6903F418
:102220000033BB61BB6901237B620223BB620023D5
:10223000FB6200233B6301237B6307F12403194600
:102240004FF0904002F0B4FD002200211C2002F06B
:1022500042FB1C2002F05BFB4CE07B681B68294AB8
:10226000934214D1264BDB69254A43F00203D36124
:10227000234BDB6903F002037B617B6900220021B1
:102280001D2002F028FB1D2002F041FB32E07B689C
:102290001B681D4A934214D1194B9B69184A43F499
:1022A00000539361164B9B6903F400533B613B69F8
:1022B000002200212B2002F00EFB2B2002F027FB36
:1022C00018E07B681B68114A934213D10C4B9B6941
:1022D0000B4A43F480339361094B9B6903F48033C9
:1022E000FB60FB6800220021182002F0F4FA18209D
:1022F00002F00DFB00BF3837BD4680BD002C014009
:102300000010024000040040003401400040014041
:1023100080B58CB000AF786007F11C0300221A6012
:102320005A609A60DA601A617B681B684C4A934273
:102330001ED14C4B5B694B4A43F400335361494B0C
:102340005B6903F40033BB61BB694FF4D853FB6195
:1023500002233B6200237B620023BB620623FB62F5
:1023600007F11C0319464FF0904002F021FD72E086
:102370007B681B683C4A93423AD13A4B5B69394AC5
:1023800043F400335361374B5B6903F400337B61E3
:102390007B69344B5B69334A43F480235361314B8F
:1023A0005B6903F480233B613B694FF40043FB61AD
:1023B00002233B6200237B620023BB620223FB6299
:1023C00007F11C0319464FF0904002F0F1FC08237E
:1023D000FB6102233B6200237B620023BB62042378
:1023E000FB6207F11C031946204802F0E1FC32E0D1
:1023F0007B681B681E4A93422DD11A4B5B69194AB0
:1024000043F480235361174B5B6903F48023FB6023
:10241000FB684FF48043FB6102233B6200237B6235
:102420000023BB620123FB6207F11C0319460F481E
:1024300002F0BEFC4FF40043FB6102233B62002329
:102440007B620023BB620223FB6207F11C03194677
:10245000064802F0ADFC00BF3037BD4680BD00BF6E
:10246000002C0140001002400034014000040048EC
:102470000040014080B58CB000AF786007F11C03CC
:1024800000221A605A609A60DA601A617B681B68E1
:10249000404A934228D1404B9B693F4A43F48043D2
:1024A00093613D4B9B6903F48043BB61BB693A4B2D
:1024B0005B69394A43F480235361374B5B6903F40A
:1024C00080237B617B69C023FB6102233B62002385
:1024D0007B620323BB620723FB6207F11C031946DF
:1024E0002E4802F065FC51E07B681B682C4A934241
:1024F0004CD1294BDB69284A43F40033D361264B86
:10250000DB6903F400333B613B69234B5B69224A7F
:1025100043F400335361204B5B6903F40033FB60E9
:10252000FB681D4B5B691C4A43F4802353611A4BC3
:102530005B6903F48023BB60BB680423FB61022357
:102540003B6200237B620323BB620723FB6207F12C
:102550001C0319464FF0904002F02AFC1023FB6147
:1025600002233B6200237B620323BB620723FB62DF
:1025700007F11C031946094802F01AFC0022002149
:10258000262002F0A8F9262002F0C1F900BF30375A
:10259000BD4680BD003801400010024000040048E4
:1025A0000044004080B400AFFEE780B400AFFEE717
:1025B00080B400AFFEE780B400AFFEE780B400AFA8
:1025C000FEE780B400AF00BFBD465DF8047B7047F6
:1025D00080B400AF00BFBD465DF8047B704780B497
:1025E00000AF00BFBD465DF8047B704780B500AF0B
:1025F00000F036F900BF80BD80B400AF00BFBD461B
:102600005DF8047B704780B500AF022002F094FDB6
:1026100000BF80BD80B500AF034800F03DFF034818
:1026200000F03AFF00BF80BD98000020E8000020C5
:1026300080B500AF034806F081FB034806F07EFB3F
:1026400000BF80BD400200207003002080B500AFB5
:10265000024806F073FB00BF80BD00BF8C02002063
:1026600080B500AF024806F069FB00BF80BD00BF27
:10267000D802002080B500AF024803F002F800BF86
:1026800080BD00BFCC01002080B500AF024803F040
:1026900012F800BF80BD00BFCC01002080B500AFA4
:1026A000024807F037FF00BF80BD00BF4404002090
:1026B00080B500AF4FF4005002F03EFD4FF4804073
:1026C00002F03AFD00BF80BD80B500AF024806F0C1
:1026D00035FB00BF80BD00BF2403002080B500AFE4
:1026E000024802F04BFA00BF80BD00BF8801002005
:1026F00080B586B000AF7860144A154BD31A7B6161
:102700007B693B61134B1B68002B02D1114B124AB2
:102710001A60104B1A687B6813443A699A4207D2D0
:1027200008F028FE03460C221A604FF0FF3309E040
:10273000084B1B68FB60074B1A687B681344054A0B
:102740001360FB6818461837BD4680BD00A0002006
:1027500000040000800500209805002080B400AF30
:10276000064BD3F88830054A43F47003C2F888302A
:1027700000BFBD465DF8047B704700BF00ED00E080
:10278000DFF834D0FFF7EAFF0C480D490D4A00236B
:1027900002E0D458C4500433C4188C42F9D30A4A16
:1027A0000A4C002301E013600432A242FBD308F07C
:1027B000E7FDFEF75BF8FEE700A000200000002028
:1027C0007C000020D4BD00087C000020980500207B
:1027D000FEE7000080B500AF084B1B68074A43F0D6
:1027E00010031360032002F06BF80F2000F008F8CC
:1027F000FFF732FB0023184680BD00BF00200240D7
:1028000080B582B000AF7860124B1A68124B1B780B
:1028100019464FF47A73B3FBF1F3B2FBF3F31846A6
:1028200002F083F80346002B01D001230EE07B6801
:102830000F2B0AD8002279684FF0FF3002F04BF8D6
:10284000064A7B681360002300E00123184608371E
:10285000BD4680BD0C0000201400002010000020A8
:1028600080B400AF064B1B781A46064B1B68134416
:10287000044A136000BFBD465DF8047B704700BF8B
:10288000140000208405002080B400AF034B1B68B7
:102890001846BD465DF8047B704700BF84050020E4
:1028A00080B584B000AF7860FFF7EEFFB8607B685A
:1028B000FB60FB68B3F1FF3F05D00A4B1B781A465B
:1028C000FB681344FB6000BFFFF7DEFF0246BB68F6
:1028D000D31AFA689A42F7D800BF00BF1037BD4636
:1028E00080BD00BF1400002080B483B000AF7860CA
:1028F00000BF0C37BD465DF8047B704780B483B0E1
:1029000000AF786000BF0C37BD465DF8047B7047B0
:1029100080B483B000AF786000BF0C37BD465DF86F
:10292000047B704780B59AB000AF7860002387F8C9
:10293000673000233B660023BB607B68002B01D11E
:102940000123C9E17B681B69002B7B681B6C03F0CA
:102950001003002B76D17B681B6C002B52D17B6857
:1029600000225A647B680022DA647B6800229A6441
:102970007B68002283F83C207868FFF797FA7B6831
:102980001B689B6803F08053002B3BD1786801F0F3
:10299000ABFD034687F867307B681B6C03F01003C0
:1029A000002B2FD197F86730002B2BD17B681B6C45
:1029B00023F4885323F0020343F002027B681A6475
:1029C0007B681B689A687B681B6822F040529A609B
:1029D0007B681B689A687B681B6842F080529A602B
:1029E000864B1B68864AA2FB03239A0C13469B0066
:1029F00013445B00BB6002E0BB68013BBB60BB688B
:102A0000002BF9D17B681B689B6803F08053002B77
:102A100007D07B681B689B6803F00053B3F1005F2D
:102A200010D17B681B6C23F0120343F010027B680B
:102A30001A647B685B6C43F001027B685A64012373
:102A400087F867307B681B6C03F01003002B40F0A5
:102A5000368197F86730002B40F031817B681B6826
:102A60009B6803F00403002B40F029817B681B6CFA
:102A700023F4817343F002027B681A647B681B684D
:102A8000B3F1A04F04D07B681B685E4A934201D12A
:102A90005D4B00E05D4BFB657B681B68B3F1A04FAD
:102AA00002D1584BFB601AE07B681B68554A934281
:102AB00003D14FF0A043FB6011E07B681B68544AD0
:102AC000934202D1534BFB6009E07B681B68514A7B
:102AD000934202D14E4BFB6001E00023FB607B6818
:102AE0001B689B6803F00303012B08D17B681B68FC
:102AF0001B6803F00103012B01D1012300E0002337
:102B0000002B1CD1FB68002B10D0FB689B6803F0E6
:102B10000303012B07D1FB681B6803F00103012BA2
:102B200001D1012300E00023002B08D1FB6D9B683D
:102B300023F440327B685B681A43FB6D9A607B68C4
:102B40005B7E5B037A68526B012A02D04FF480529D
:102B500000E000221A437B68DB681A437B689B68AD
:102B600013433A6E13433B667B6893F82030012B86
:102B70001BD17B685B7E002B09D17B685B6A013BC4
:102B80005A043B6E134343F480333B660DE07B688D
:102B90001B6C23F0220343F020027B681A647B68DD
:102BA0005B6C43F001027B685A647B689B6A012B73
:102BB0003AD07B681B68164A934204D07B681B6836
:102BC000144A934228D17B689B6AB3F5307F12D0B8
:102BD0007B689B6AB3F5807F0AD07B689B6AB3F5FC
:102BE000E07F02D07B689B6A18E04FF4807315E0A9
:102BF0004FF4307312E04FF4E0730FE00C0000204C
:102C000083DE1B430001005000030050000700500A
:102C100000040050000500507B689B6A7A68D26A05
:102C200013433A6E13433B667B681B689B6803F053
:102C30000C03002B14D17B681B68DB687A68126870
:102C400023F4804323F00203D3607B681B7E9A0346
:102C50007B6893F830305B0013433A6E13433B6656
:102C60007B681B68DA681E4B13407A681268396EFD
:102C70000B43D3607B681B69012B0CD17B681B68FD
:102C80001B6B23F00F017B68DB695A1E7B681B6896
:102C90000A431A6307E07B681B681A6B7B681B6832
:102CA00022F00F021A637B6800225A647B681B6C57
:102CB00023F0030343F001027B681A640AE07B6897
:102CC0001B6C23F0120343F010027B681A6401238B
:102CD00087F8673097F8673018466837BD4680BD7B
:102CE00007C0F0FF80B584B000AF78600023FB73AD
:102CF0007B681B689B6803F00403002B40F0F9809D
:102D00007B6893F83C30012B01D10223F4E07B680F
:102D1000012283F83C20786801F082FB0346FB73B4
:102D2000FB7B002B40F0E0807B681B6C23F470631E
:102D300023F0010343F480727B681A647B681B688C
:102D4000B3F1A04F04D07B681B686D4A934206D153
:102D50006C4B9B6803F01F03002B10D005E06A4BFF
:102D60009B6803F01F03002B09D07B681B68B3F13D
:102D7000A04F04D07B681B68644A934215D17B68DE
:102D80001B6C23F480127B681A647B681B68DB6809
:102D900003F00073002B36D07B681B6C23F4405388
:102DA00043F480527B681A642DE07B681B6C43F40B
:102DB00080127B681A647B681B68B3F1A04F04D053
:102DC0007B681B684E4A93420AD14FF0A043DB68F0
:102DD00003F00073002B14BF01230023DBB208E0D3
:102DE0004A4BDB6803F00073002B14BF0123002360
:102DF000DBB2002B07D07B681B6C23F4405343F4F9
:102E000080527B681A647B681B6C03F48053B3F5B3
:102E1000805F06D17B685B6C23F006027B685A6496
:102E200002E07B6800225A647B68002283F83C2021
:102E30007B681B681C221A607B681B68B3F1A04F7B
:102E400004D07B681B682E4A934206D12D4B9B68A9
:102E500003F01F03002B3ED005E02B4B9B6803F0D3
:102E60001F03002B37D07B681B68B3F1A04F04D041
:102E70007B681B68224A934206D1224B9B6803F071
:102E80001F03052B27D005E01F4B9B6803F01F0392
:102E9000052B20D07B681B68B3F1A04F04D07B6862
:102EA0001B68174A934206D1164B9B6803F01F0319
:102EB000092B10D005E0144B9B6803F01F03092B6E
:102EC00009D07B681B68B3F1A04F04D07B681B68F6
:102ED0000E4A93420FD17B681B689A687B681B6817
:102EE00042F004029A6006E07B68002283F83C20EE
:102EF00001E00223FB73FB7B18461037BD4680BD03
:102F00000001005000030050000700500004005072
:102F100080B584B000AF78600023FB737B6893F8C2
:102F20003C30012B01D1022323E07B68012283F88E
:102F30003C206C21786801F03DFB0346FB73FB7B72
:102F4000002B11D1786801F0CFFA0346FB73FB7BAD
:102F5000002B09D17B681B6C23F4885323F00103F9
:102F600043F001027B681A647B68002283F83C20EE
:102F7000FB7B18461037BD4680BD000080B586B08B
:102F800000AF7860396000233B617B685B69082B88
:102F900002D108237B613AE07B681B68B3F1A04F44
:102FA00004D07B681B68724A934201D1714B00E0E8
:102FB000714BFB60FB689B6803F01F03002B12D171
:102FC0007B681B68DB6803F00103012B1DD17B6864
:102FD0001B6C43F020027B681A647B68002283F834
:102FE0003C200123BFE0FB689B6803F44043002BB7
:102FF0000BD07B681B6C43F020027B681A647B68F3
:10300000002283F83C200123ADE00C237B617B6828
:103010001B68B3F1A04F04D07B681B68544A9342ED
:1030200006D1544B9B6803F01F03002B10D005E022
:10303000514B9B6803F01F03002B09D07B681B6872
:10304000B3F1A04F04D07B681B684C4A934204D173
:103050007B681B68DB683B610FE07B681B68B3F132
:10306000A04F04D07B681B68414A934202D14FF0C5
:10307000A04300E0414BDB683B61FFF705FCB86013
:1030800021E03B68B3F1FF3F1DD03B68002B07D028
:10309000FFF7FAFB0246BB68D31A3A689A4212D28B
:1030A0007B681B681A687B691340002B0BD17B6817
:1030B0001B6C43F004027B681A647B68002283F86F
:1030C0003C2003234FE07B681B681A687B69134030
:1030D000002BD6D07B681B6C43F400727B681A64AB
:1030E0007B681B68DB6803F44063002B31D13B69CC
:1030F00003F40053002B2CD17B681B681B6803F082
:103100000803082B25D17B681B689B6803F0040328
:10311000002B12D17B681B6C23F480727B681A64CD
:103120007B681B6C03F48053002B12D17B681B6CF3
:1031300043F001027B681A640BE07B681B6C43F070
:1031400020027B681A647B685B6C43F001027B6839
:103150005A643B6903F48043002B03D17B681B68EE
:103160007A691A60002318461837BD4680BD00BF33
:103170000001005000030050000700500004005000
:1031800080B586B000AFF860B9607A600023FB7547
:10319000FB681B689B6803F00403002B40F0F7807A
:1031A000FB6893F83C30012B01D10223F2E0FB686D
:1031B000012283F83C20FB681B68B3F1A04F04D0C8
:1031C000FB681B68754A934209D1754B9B6803F0F5
:1031D0001F03002B0CBF01230023DBB208E0714B5F
:1031E0009B6803F01F03002B0CBF01230023DBB2FD
:1031F000002B00F0C580F86801F012F90346FB755A
:10320000FB7D002B40F0B780FB681B6C23F47063E0
:1032100023F0010343F48072FB681A64FB681B68A7
:10322000B3F1A04F04D0FB681B685C4A934206D1FF
:103230005B4B9B6803F01F03002B10D005E0594B3C
:103240009B6803F01F03002B09D0FB681B68B3F1D8
:10325000A04F04D0FB681B68534A934215D1FB680A
:103260001B6C23F48012FB681A64FB681B68DB6824
:1032700003F00073002B36D0FB681B6C23F4405323
:1032800043F48052FB681A642DE0FB681B6C43F426
:103290008012FB681A64FB681B68B3F1A04F04D06E
:1032A000FB681B683D4A93420AD14FF0A043DB689C
:1032B00003F00073002B14BF01230023DBB208E0EE
:1032C000394BDB6803F00073002B14BF012300238C
:1032D000DBB2002B07D0FB681B6C23F4405343F494
:1032E0008052FB681A64FB681B6C03F48053B3F5CF
:1032F000805F06D1FB685B6C23F00602FB685A64B2
:1033000002E0FB6800225A64FB68002283F83C203C
:10331000FB689B6B254A9A62FB689B6B244ADA62C6
:10332000FB689B6B234A1A63FB681B681C221A60AC
:10333000FB681B685A68FB681B6842F010025A6001
:10334000FB681B68DA68FB681B6842F00102DA6000
:10335000FB68986BFB681B6840331946BA687B684A
:1033600001F036FBFB681B689A68FB681B6842F03B
:1033700004029A600DE0FB68002283F83C2008E01C
:103380000123FB75FB68002283F83C2001E0022347
:10339000FB75FB7D18461837BD4680BD0001005007
:1033A000000300500007005000040050554300087F
:1033B000CF430008EB43000880B584B000AF7860CD
:1033C0000023FB737B6893F83C30012B01D102236F
:1033D00050E07B68012283F83C206C21786801F082
:1033E000E9F80346FB73FB7B002B3ED17B681B682F
:1033F000DA687B681B6822F00102DA607B689B6BED
:1034000093F82130022B0FD17B689B6B184601F09B
:103410003EFB0346FB73FB7B002B05D07B681B6CDC
:1034200043F040027B681A647B681B685A687B68BB
:103430001B6822F010025A60FB7B002B05D17868D4
:1034400001F052F80346FB7302E0786801F04CF893
:10345000FB7B002B09D17B681B6C23F4885323F082
:10346000010343F001027B681A647B68002283F841
:103470003C20FB7B18461037BD4680BD80B483B02E
:1034800000AF78607B681B681B6C18460C37BD4624
:103490005DF8047B7047000080B588B000AF7860AD
:1034A0000023FB610023BB6100237B617B681B68F9
:1034B0001B683B617B681B685B68FB603B6903F0D2
:1034C0000403002B04D0FB6803F00403002B0BD192
:1034D0003B6903F00803002B00F0BC80FB6803F09D
:1034E0000803002B00F0B6807B681B6C03F0100310
:1034F000002B05D17B681B6C43F400727B681A6457
:103500007B681B68B3F1A04F04D07B681B68904AAE
:10351000934206D18F4B9B6803F01F03002B3ED0D4
:1035200005E08D4B9B6803F01F03002B37D07B68B1
:103530001B68B3F1A04F04D07B681B68844A934298
:1035400006D1844B9B6803F01F03052B27D005E0B1
:10355000814B9B6803F01F03052B20D07B681B6801
:10356000B3F1A04F04D07B681B68794A934206D11F
:10357000784B9B6803F01F03092B10D005E0764BB6
:103580009B6803F01F03092B09D07B681B68B3F10C
:10359000A04F04D07B681B68704A934204D17B68BB
:1035A0001B68DB68BB610FE07B681B68B3F1A04F51
:1035B00004D07B681B68664A934202D14FF0A04357
:1035C00000E0664BDB68BB617B681B68DB6803F46B
:1035D0004063002B37D1BB6903F40053002B32D179
:1035E0003B6903F00803002B2DD07B681B689B68A8
:1035F00003F00403002B1AD17B681B685A687B68B0
:103600001B6822F00C025A607B681B6C23F48072EA
:103610007B681A647B681B6C03F48053002B12D107
:103620007B681B6C43F001027B681A640BE07B68CB
:103630001B6C43F010027B681A647B685B6C43F080
:1036400001027B685A647868FEF7EAFB7B681B68B6
:103650000C221A603B6903F02003002B04D0FB68A6
:1036600003F02003002B0BD13B6903F04003002B38
:1036700000F03881FB6803F04003002B00F032813A
:103680007B681B6C43F400527B681A647B681B6880
:10369000B3F1A04F04D07B681B682D4A934206D13A
:1036A0002C4B9B6803F01F03002B3ED005E02A4BF8
:1036B0009B6803F01F03002B37D07B681B68B3F1B6
:1036C000A04F04D07B681B68214A934206D1214B4E
:1036D0009B6803F01F03052B27D005E01E4B9B685A
:1036E00003F01F03052B20D07B681B68B3F1A04FAC
:1036F00004D07B681B68164A934206D1154B9B6821
:1037000003F01F03092B10D005E0134B9B6803F057
:103710001F03092B09D07B681B68B3F1A04F04D0AD
:103720007B681B680D4A934204D17B681B68DB6889
:10373000BB6118E07B681B68B3F1A04F04D07B68C5
:103740001B68034A93420BD14FF0A04309E000BF2E
:10375000000100500003005000070050000400501A
:10376000924BDB68BB617B681B68DB6C03F0C003BA
:10377000002B40F0B080BB6903F00073002B0DD02C
:103780007B681B68DB6803F44063002B40F0A38078
:10379000BB6903F40053002B40F09D803B6903F0AC
:1037A0004003002B00F097807B681B68B3F1A04FAB
:1037B00004D07B681B687E4A934206D17D4B9B6890
:1037C00003F01F03002B3ED005E07B4B9B6803F00A
:1037D0001F03002B37D07B681B68B3F1A04F04D0C8
:1037E0007B681B68724A934206D1724B9B6803F058
:1037F0001F03062B27D005E06F4B9B6803F01F03C8
:10380000062B20D07B681B68B3F1A04F04D07B68E7
:103810001B68674A934206D1664B9B6803F01F03FF
:10382000072B10D005E0644B9B6803F01F03072BA8
:1038300009D07B681B68B3F1A04F04D07B681B687C
:103840005A4A934204D17B681B68DB687B610FE0B6
:103850007B681B68B3F1A04F04D07B681B68544A97
:10386000934202D14FF0A04300E0504BDB687B61F4
:103870007B6903F40013002B2DD17B681B689B68C8
:1038800003F00803002B1AD17B681B685A687B6819
:103890001B6822F060025A607B681B6C23F4805224
:1038A0007B681A647B681B6C03F48073002B12D155
:1038B0007B681B6C43F001027B681A640BE07B6839
:1038C0001B6C43F010027B681A647B685B6C43F0EE
:1038D00001027B685A64786800F036F97B681B68DF
:1038E00060221A603B6903F08003002B11D0FB6853
:1038F00003F08003002B0CD07B681B6C43F48032F8
:103900007B681A647868FEF7F9FF7B681B68802281
:103910001A603B6903F48073002B12D0FB6803F438
:103920008073002B0DD07B681B6C43F400327B68E6
:103930001A64786800F01CF97B681B684FF4807289
:103940001A603B6903F40073002B12D0FB6803F488
:103950000073002B0DD07B681B6C43F480227B68C6
:103960001A64786800F00EF97B681B684FF40072E7
:103970001A603B6903F01003002B4FD0FB6803F083
:103980001003002B4AD07B685B6B012B02D1012313
:10399000FB612DE07B681B68B3F1A04F04D07B680E
:1039A0001B68034A934209D1024B08E0000400500F
:1039B000000100500003005000070050284BBB607E
:1039C000BB689B6803F01F03002B09D17B681B6851
:1039D000DB6803F00103012B0AD10123FB6107E03F
:1039E000BB689B6803F44043002B01D00123FB61BB
:1039F000FB69012B0ED17B681B6C43F480627B68F2
:103A00001A647B685B6C43F002027B685A647868D6
:103A1000FEF77EFF7B681B6810221A603B6903F487
:103A20008063002B18D0FB6803F48063002B13D055
:103A30007B681B6C43F480427B681A647B685B6C18
:103A400043F008027B685A647B681B684FF480620D
:103A50001A60786800F082F800BF2037BD4680BD4C
:103A60000007005080B584B000AF78603960002353
:103A7000FB737B6893F83C30012B01D102235FE09C
:103A80007B68012283F83C20786800F02DFD034616
:103A9000FB73FB7B002B4ED17B6801221A647B6891
:103AA0001B689A687B681B6822F080429A603B68BA
:103AB000012B07D17B681B689A687B681B6842F002
:103AC00080429A607B681B689A687B681B6842F03A
:103AD00000429A60FEF7D8FEB8601CE0FEF7D4FE04
:103AE0000246BB68D31A0A2B15D97B681B689B68F2
:103AF00003F00043B3F1004F0DD17B681B6C23F042
:103B0000120343F010027B681A647B68002283F87A
:103B10003C20012314E07B681B689B6803F0004392
:103B2000B3F1004FDAD07B681B6C23F0030343F042
:103B300001027B681A647B68002283F83C20FB7BCF
:103B400018461037BD4680BD80B483B000AF7860A2
:103B500000BF0C37BD465DF8047B704780B483B06E
:103B600000AF786000BF0C37BD465DF8047B70473E
:103B700080B483B000AF786000BF0C37BD465DF8FD
:103B8000047B704780B483B000AF786000BF0C370F
:103B9000BD465DF8047B704780B49BB000AF786091
:103BA0003960002387F867300023BB607B6893F897
:103BB0003C30012B01D10223CAE27B68012283F849
:103BC0003C207B681B689B6803F00403002B40F0DB
:103BD000AE823B685B68042B1CD87B681B68196B42
:103BE0003B685A6813465B0013445B001A461F2368
:103BF0009340DB4319403B6818683B685A6813469A
:103C00005B0013445B0000FA03F27B681B680A4305
:103C10001A6363E03B685B68092B1ED87B681B68EE
:103C2000596B3B685A6813465B0013445B001E3BAC
:103C30001F2202FA03F3DB4319403B6818683B6814
:103C40005A6813465B0013445B001E3B00FA03F204
:103C50007B681B680A435A6340E03B685B680E2B35
:103C60001ED87B681B68996B3B685A6813465B00DB
:103C700013445B003C3B1F2202FA03F3DB43194071
:103C80003B6818683B685A6813465B0013445B0046
:103C90003C3B00FA03F27B681B680A439A631DE011
:103CA0007B681B68D96B3B685A6813465B001344FA
:103CB0005B005A3B1F2202FA03F3DB4319403B68C7
:103CC00018683B685A6813465B0013445B005A3B14
:103CD00000FA03F27B681B680A43DA637B681B689F
:103CE0009B6803F00C03002B40F0E5803B681B68E9
:103CF000092B1CD97B681B6899693B681A681346B5
:103D00005B0013441E3B072202FA03F3DB43194016
:103D10003B6898683B681A6813465B0013441E3B77
:103D200000FA03F27B681B680A439A6119E07B681A
:103D30001B6859693B681A6813465B0013440722E5
:103D400002FA03F3DB4319403B6898683B681A6842
:103D500013465B00134400FA03F27B681B680A43B6
:103D60005A613B685A697B681B68DB68DB0803F0B3
:103D700003035B0002FA03F33B663B681B69013BEC
:103D8000032B4FD801A252F823F000BF9D3D00083D
:103D9000BF3D0008E13D0008033E00087B681B684A
:103DA0001A6E9A4B13403A68126891063A6E0A43AB
:103DB0001A437B681B6842F000421A667EE07B680B
:103DC0001B685A6E914B13403A68126891063A6E1E
:103DD0000A431A437B681B6842F000425A666DE052
:103DE0007B681B689A6E894B13403A68126891068B
:103DF0003A6E0A431A437B681B6842F000429A6697
:103E00005CE07B681B68DA6E804B13403A6812688E
:103E100091063A6E0A431A437B681B6842F00042DF
:103E2000DA664BE07B681B681B6E03F0F8423B6868
:103E30001B689B069A4207D17B681B681A6E7B68D9
:103E40001B6822F000421A667B681B685B6E03F0F9
:103E5000F8423B681B689B069A4207D17B681B6847
:103E60005A6E7B681B6822F000425A667B681B68AA
:103E70009B6E03F0F8423B681B689B069A4207D191
:103E80007B681B689A6E7B681B6822F000429A660A
:103E90007B681B68DB6E03F0F8423B681B689B067F
:103EA0009A420AD17B681B68DA6E7B681B6822F035
:103EB0000042DA6601E000BF00E000BF7B681B68DB
:103EC0009B6803F00303012B08D17B681B681B6808
:103ED00003F00103012B01D1012300E00023002B9B
:103EE00040F030813B68DB68012B0FD07B681B689A
:103EF000D3F8B0103B681B68012202FA03F3DA43DF
:103F00007B681B680A40C3F8B02049E07B681B68E7
:103F1000D3F8B0103B681B6801229A407B681B688D
:103F20000A43C3F8B0203B681B68092B1CD97B6887
:103F30001B6899693B681A6813465B0013441B3B76
:103F4000072202FA03F3DB4319403B6898683B6899
:103F50001A6813465B0013441B3B00FA03F27B68AC
:103F60001B680A439A611BE07B681B6859693B68C0
:103F70001B685A1C13465B001344072202FA03F322
:103F8000DB4319403B6898683B681B685A1C134622
:103F90005B00134400FA03F27B681B680A435A6112
:103FA0007B681B68B3F1A04F04D07B681B68184A7C
:103FB000934201D1174B00E0174BFB653B681B6830
:103FC000102B05D1FB6D9B6803F40003002B15D06B
:103FD0003B681B68112B05D1FB6D9B6803F0807358
:103FE000002B0BD03B681B68122B40F0AB80FB6DA5
:103FF0009B6803F48003002B40F0A4807B681B685F
:10400000B3F1A04F0AD1024BFB6022E000F0FF8326
:104010000001005000030050000700507B681B683F
:104020004E4A934203D14FF0A043FB6011E07B68FE
:104030001B684B4A934202D14A4BFB6009E07B6804
:104040001B68484A934202D1454BFB6001E00023C4
:10405000FB607B681B689B6803F00303012B08D19E
:104060007B681B681B6803F00103012B01D101234E
:1040700000E00023002B50D1FB68002B10D0FB6820
:104080009B6803F00303012B07D1FB681B6803F057
:104090000103012B01D1012300E00023002B3CD1BF
:1040A0003B681B68102B1DD17B681B68B3F1A04FC8
:1040B00018D1FB6D9B6843F40002FB6D9A602A4B9C
:1040C0001B682A4AA2FB03239A0C13469B00134445
:1040D0005B00BB6002E0BB68013BBB60BB68002BC0
:1040E000F9D12EE03B681B68112B0BD17B681B6854
:1040F000B3F1A04F06D1FB6D9B6843F08072FB6D5E
:104100009A601EE03B681B68122B1AD1FB6D9B68FE
:1041100043F48002FB6D9A6013E07B681B6C43F0F4
:1041200020027B681A64012387F867300AE07B6805
:104130001B6C43F020027B681A64012387F8673008
:1041400000E000BF7B68002283F83C2097F86730CE
:1041500018466C37BD465DF8047B7047000100507F
:1041600000040050000500500C00002083DE1B43BB
:1041700080B499B000AF78603960002387F85F3071
:104180007B681B68B3F1A04F02D16D4BBB601AE096
:104190007B681B686A4A934203D14FF0A043BB601F
:1041A00011E07B681B68674A934202D1664BBB6093
:1041B00009E07B681B68644A934202D1614BBB6093
:1041C00001E00023BB60BB68002B01D10123B0E0FC
:1041D0007B6893F83C30012B01D10223A9E07B6876
:1041E000012283F83C207B681B689B6803F0040372
:1041F000002B40F08D80BB689B6803F00403002B0C
:1042000040F086807B681B68B3F1A04F04D07B68C8
:104210001B684B4A934201D14C4B00E04C4BBB65B1
:104220003B681B68002B40D0BB6D9B6823F4604249
:104230003B6859687B6893F830305B030B431A4343
:10424000BB6D9A607B681B689B6803F00303012BBE
:1042500008D17B681B681B6803F00103012B01D1A7
:10426000012300E00023002B5CD1BB689B6803F0B6
:104270000303012B07D1BB681B6803F00103012B6B
:1042800001D1012300E00023002B4BD1BB6D9B68C3
:1042900023F4716323F00F033A6811683A68926857
:1042A0000A431A43BB6D9A603CE0BB6D9B6823F4E4
:1042B0006042BB6D9A607B681B689B6803F00303D8
:1042C000012B08D17B681B681B6803F00103012BDD
:1042D00001D1012300E00023002B23D1BB689B68A0
:1042E00003F00303012B07D1BB681B6803F0010334
:1042F000012B01D1012300E00023002B12D1BB6D63
:104300009B6823F4716323F00F03BA6D936009E097
:104310007B681B6C43F020027B681A64012387F8DA
:104320005F3000E000BF7B68002283F83C2097F8F4
:104330005F3018466437BD465DF8047B704700BFA8
:104340000001005000040050000500500003005020
:104350000007005080B584B000AF78607B685B6A6E
:10436000FB60FB681B6C03F05003002B26D1FB683D
:104370001B6C43F40072FB681A64FB681B68DB6803
:1043800003F44063002B15D1FB685B7E002B11D139
:10439000FB681B6C23F48072FB681A64FB681B6C5F
:1043A00003F48053002B05D1FB681B6C43F0010222
:1043B000FB681A64F868FDF733FD04E0FB689B6B4B
:1043C0001B6B7868984700BF1037BD4680BD80B52D
:1043D00084B000AF78607B685B6AFB60F868FEF7CA
:1043E00083FA00BF1037BD4680BD80B584B000AFF2
:1043F00078607B685B6AFB60FB681B6C43F0400283
:10440000FB681A64FB685B6C43F00402FB685A6447
:10441000F868FEF77DFA00BF1037BD4680BD00008A
:1044200080B584B000AF78600023FB607B681B68B8
:104430009B6803F00303012B08D17B681B681B6892
:1044400003F00103012B01D1012300E00023002B25
:1044500043D17B681B689A68224B1340002B0DD018
:104460007B681B6C43F010027B681A647B685B6C92
:1044700043F001027B685A6401232FE07B681B68CC
:104480009A687B681B6842F001029A60FEF7FCF9AB
:10449000F8601BE0FEF7F8F90246FB68D31A022B1E
:1044A00014D97B681B681B6803F00103012B0DD036
:1044B0007B681B6C43F010027B681A647B685B6C42
:1044C00043F001027B685A64012307E07B681B68A4
:1044D0001B6803F00103012BDCD1002318461037C1
:1044E000BD4680BD3F00008080B584B000AF7860DD
:1044F0000023FB607B681B689B6803F00303012BB0
:1045000008D17B681B681B6803F00103012B01D1F4
:10451000012300E00023002B47D07B681B689B68C9
:1045200003F00D03012B0FD17B681B689A687B6831
:104530001B6842F002029A607B681B6803221A60C3
:10454000FEF7A2F9F86029E07B681B6C43F01002CB
:104550007B681A647B685B6C43F001027B685A6479
:10456000012323E0FEF790F90246FB68D31A022BE1
:1045700014D97B681B689B6803F00103012B0DD1E4
:104580007B681B6C43F010027B681A647B685B6C71
:1045900043F001027B685A64012307E07B681B68D3
:1045A0009B6803F00103012BDCD000231846103771
:1045B000BD4680BD80B586B000AF7860396000230D
:1045C0007B610023FB6000233B617B681B689B6869
:1045D00003F00C03002B00F09B807B681B68DB68FA
:1045E00003F00073B3F1007F2AD17B685B7E012B5F
:1045F00026D17B681B7E012B22D10C233B6014E06B
:104600003B69464A93420DD97B681B6C43F010020C
:104610007B681A647B685B6C43F001027B685A64B8
:10462000012376E03B6901333B617B681B681B68B3
:1046300003F04003402BE3D17B681B6840221A60E3
:104640003B68602B15D07B681B689B6803F00403F4
:10465000042B0ED17B681B689B6803F00203002BC0
:1046600007D17B681B689A687B681B6842F0100260
:104670009A603B680C2B15D07B681B689B6803F025
:104680000803082B0ED17B681B689B6803F00203AC
:10469000002B07D17B681B689A687B681B6842F017
:1046A00020029A603B68602B05D03B686C2B05D1DB
:1046B0000C237B6105E008237B6102E004237B611E
:1046C00000BFFEF7E1F8F8601BE0FEF7DDF80246F8
:1046D000FB68D31A0B2B14D97B681B689A687B691B
:1046E0001340002B0DD07B681B6C43F010027B68DD
:1046F0001A647B685B6C43F001027B685A64012397
:1047000007E07B681B689A687B691340002BDCD14B
:10471000002318461837BD4680BD00BFFF9309002F
:1047200080B485B000AF78607B6803F00703FB605E
:104730000C4BDB68BB60BA684FF6FF031340BB60ED
:10474000FB681A02BB68134343F0BF6343F40033B2
:10475000BB60044ABB68D36000BF1437BD465DF838
:10476000047B704700ED00E080B400AF044BDB68D1
:104770001B0A03F007031846BD465DF8047B70472B
:1047800000ED00E080B483B000AF0346FB7197F901
:104790000730002B0BDBFB7903F01F02074997F969
:1047A00007305B09012000FA02F241F8232000BF24
:1047B0000C37BD465DF8047B704700BF00E100E0A8
:1047C00080B483B000AF03463960FB7197F90730BE
:1047D000002B0ADB3B68DAB20C4997F9073012016B
:1047E000D2B20B4483F800230AE03B68DAB20849EE
:1047F000FB7903F00F03043B1201D2B20B441A768B
:1048000000BF0C37BD465DF8047B704700E100E057
:1048100000ED00E080B489B000AFF860B9607A6064
:10482000FB6803F00703FB61FB69C3F10703042B7B
:1048300028BF0423BB61FB690433062B02D9FB6943
:10484000033B00E000237B614FF0FF32BB6902FABB
:1048500003F3DA43BB681A407B699A404FF0FF319B
:104860007B6901FA03F3D9437B680B401343184675
:104870002437BD465DF8047B7047000080B582B0E8
:1048800000AF78607B68013BB3F1807F01D30123E7
:104890000FE00A4A7B68013B53600F214FF0FF3065
:1048A000FFF78EFF054B00229A60044B07221A6027
:1048B000002318460837BD4680BD00BF10E000E069
:1048C00080B582B000AF78607868FFF729FF00BF3D
:1048D0000837BD4680BD80B586B000AF0346B960DD
:1048E0007A60FB7300237B61FFF73EFF78617A6893
:1048F000B9687869FFF78EFF024697F90F301146C5
:104900001846FFF75DFF00BF1837BD4680BD80B574
:1049100082B000AF0346FB7197F907301846FFF7E6
:1049200031FF00BF0837BD4680BD80B582B000AF03
:1049300078607868FFF7A2FF034618460837BD463F
:1049400080BD80B584B000AF78600023FB607B68D9
:10495000002B01D1012337E07B68022283F821205C
:104960007B681B681B68FB60FB6823F47F5323F0A4
:104970003003FB607B685A687B689B681A437B68DE
:10498000DB681A437B681B691A437B685B691A43BF
:104990007B689B691A437B68DB691343FA6813439E
:1049A000FB607B681B68FA681A60786800F0C4F9DD
:1049B0007B6800229A637B68012283F821207B6850
:1049C000002283F82020002318461037BD4680BD02
:1049D00080B586B000AFF860B9607A603B600023B4
:1049E000FB75FB6893F82030012B01D102234AE0CC
:1049F000FB68012283F82020FB6893F82130012B0B
:104A00003AD1FB68022283F82120FB6800229A63D6
:104A1000FB681B681A68FB681B6822F001021A60B9
:104A20003B687A68B968F86800F058F9FB68DB6A97
:104A3000002B08D0FB681B681A68FB681B6842F0F3
:104A40000E021A600FE0FB681B681A68FB681B689F
:104A500042F00A021A60FB681B681A68FB681B6850
:104A600022F004021A60FB681B681A68FB681B6866
:104A700042F001021A6005E0FB68002283F8202062
:104A80000223FB75FB7D18461837BD4680BD80B4F8
:104A900083B000AF78607B6893F82130022B08D098
:104AA0007B6804229A637B68002283F8202001231C
:104AB00020E07B681B681A687B681B6822F00E0286
:104AC0001A607B681B681A687B681B6822F0010209
:104AD0001A607B681A6C7B68DB6B012101FA02F2B9
:104AE0005A607B68012283F821207B68002283F8CA
:104AF0002020002318460C37BD465DF8047B704724
:104B000080B584B000AF78600023FB737B6893F8B6
:104B10002130022B05D07B6804229A630123FB73AA
:104B200027E07B681B681A687B681B6822F00E020E
:104B30001A607B681B681A687B681B6822F0010298
:104B40001A607B681A6C7B68DB6B012101FA02F248
:104B50005A607B68012283F821207B68002283F859
:104B600020207B685B6B002B03D07B685B6B7868D5
:104B70009847FB7B18461037BD4680BD80B584B092
:104B800000AF78607B68DB6B1B68FB607B681B6831
:104B90001B68BB607B681B6C04229A40FB68134057
:104BA000002B24D0BB6803F00403002B1FD07B68CC
:104BB0001B681B6803F02003002B07D17B681B6870
:104BC0001A687B681B6822F004021A607B681A6C02
:104BD0007B68DB6B042101FA02F25A607B68DB6AB6
:104BE000002B6AD07B68DB6A7868984765E07B6851
:104BF0001B6C02229A40FB681340002B2CD0BB6830
:104C000003F00203002B27D07B681B681B6803F0AE
:104C10002003002B0BD17B681B681A687B681B681C
:104C200022F00A021A607B68012283F821207B6847
:104C30001A6C7B68DB6B022101FA02F25A607B6816
:104C4000002283F820207B689B6A002B35D07B688C
:104C50009B6A7868984730E07B681B6C08229A4012
:104C6000FB681340002B28D0BB6803F00803002B1F
:104C700023D07B681B681A687B681B6822F00E02D1
:104C80001A607B681A6C7B68DB6B012101FA02F207
:104C90005A607B6801229A637B68012283F8212095
:104CA0007B68002283F820207B681B6B002B04D0DC
:104CB0007B681B6B78689847FFE700BF1037BD46DD
:104CC00080BD80B483B000AF78607B6893F82130FA
:104CD00018460C37BD465DF8047B704780B485B03C
:104CE00000AFF860B9607A603B60FB681A6CFB68E3
:104CF000DB6B012101FA02F25A60FB681B683A681B
:104D00005A60FB685B68102B08D1FB681B687A68E7
:104D10009A60FB681B68BA68DA6007E0FB681B688A
:104D2000BA689A60FB681B687A68DA6000BF14375B
:104D3000BD465DF8047B704780B483B000AF7860F7
:104D40007B681B681A46144B9A420FD87B681B6815
:104D50001A46124B1344124AA2FB03231B099A0062
:104D60007B681A647B680F4ADA630EE07B681B6815
:104D70001A460D4B13440A4AA2FB03231B099A004F
:104D80007B681A647B68094ADA6300BF0C37BD464A
:104D90005DF8047B704700BF07040240F8FFFDBFC9
:104DA000CDCCCCCC00000240F8FBFDBF000402409B
:104DB00080B487B000AF7860396000237B6154E134
:104DC0003B681A6801217B6901FA03F31340FB6019
:104DD000FB68002B00F046813B685B6803F003032F
:104DE000012B05D03B685B6803F00303022B30D135
:104DF0007B689B683B617B695B00032202FA03F3DB
:104E0000DB433A6913403B613B68DA687B695B00CE
:104E100002FA03F33A6913433B617B683A699A608B
:104E20007B685B683B6101227B6902FA03F3DB4329
:104E30003A6913403B613B685B681B0903F0010260
:104E40007B6902FA03F33A6913433B617B683A6971
:104E50005A603B685B6803F00303032B17D07B6841
:104E6000DB683B617B695B00032202FA03F3DB43EF
:104E70003A6913403B613B689A687B695B0002FAC0
:104E800003F33A6913433B617B683A69DA603B6834
:104E90005B6803F00303022B23D17B69DA087B688C
:104EA000083253F822303B617B6903F007039B0013
:104EB0000F2202FA03F3DB433A6913403B613B687C
:104EC0001A697B6903F007039B0002FA03F33A694E
:104ED00013433B617B69DA087B680832396943F820
:104EE00022107B681B683B617B695B00032202FA2E
:104EF00003F3DB433A6913403B613B685B6803F0B3
:104F000003027B695B0002FA03F33A6913433B61D6
:104F10007B683A691A603B685B6803F44033002B96
:104F200000F0A080584B9B69574A43F001039361FE
:104F3000554B9B6903F00103BB60BB68534A7B6917
:104F40009B08023352F823303B617B6903F0030373
:104F50009B000F2202FA03F3DB433A6913403B61E3
:104F60007B68B3F1904F19D07B68494A934213D0C4
:104F70007B68484A93420DD07B68474A934207D0EA
:104F80007B68464A934201D1042308E0052306E0EA
:104F9000032304E0022302E0012300E000237A69F6
:104FA00002F00302920093403A6913433B61374990
:104FB0007B699B0802333A6941F82320384B9B6890
:104FC0003B61FB68DB433A6913403B613B685B68CC
:104FD00003F48013002B03D03A69FB6813433B6151
:104FE0002F4A3B6993602E4BDB683B61FB68DB43D8
:104FF0003A6913403B613B685B6803F40013002B84
:1050000003D03A69FB6813433B61254A3B69D3608F
:10501000234B5B683B61FB68DB433A6913403B61B0
:105020003B685B6803F40033002B03D03A69FB68EC
:1050300013433B611A4A3B695360194B1B683B6140
:10504000FB68DB433A6913403B613B685B6803F4F0
:105050008033002B03D03A69FB6813433B61104A4D
:105060003B6913607B6901337B613B681A687B692C
:1050700022FA03F3002B7FF4A3AE00BF00BF1C375E
:10508000BD465DF8047B70470010024000000140FF
:105090000004004800080048000C004800100048C8
:1050A0000004014080B485B000AF78600B467B807F
:1050B0007B681A697B881340002B02D00123FB73A5
:1050C00001E00023FB73FB7B18461437BD465DF8F7
:1050D000047B704780B483B000AF78600B467B8060
:1050E00013467B707B78002B03D07A887B689A61AB
:1050F00002E07A887B689A6200BF0C37BD465DF893
:10510000047B704780B485B000AF78600B467B802D
:105110007B685B69FB607A88FB6813401A04FB6854
:10512000D9437B880B401A437B689A6100BF1437D0
:10513000BD465DF8047B704780B582B000AF034682
:10514000FB80084B5A69FB881340002B06D0054AA8
:10515000FB885361FB881846FCF796FD00BF0837B3
:10516000BD4680BD0004014080B582B000AF7860CC
:105170007B68002B01D1012381E07B6893F84130EB
:10518000DBB2002B06D17B68002283F840207868D0
:10519000FCF78CFF7B68242283F841207B681B6826
:1051A0001A687B681B6822F001021A607B685A68E3
:1051B0007B681B6822F070621A617B681B689A68C2
:1051C0007B681B6822F400429A607B68DB68012BD5
:1051D00007D17B689A687B681B6842F400429A603A
:1051E00006E07B689A687B681B6842F404429A6018
:1051F0007B68DB68022B04D17B681B684FF400627C
:105200005A607B681B685B687A68126843F00073B9
:1052100043F4004353607B681B68DA687B681B6853
:1052200022F40042DA607B681A697B685B6942EAB3
:1052300003017B689B691A027B681B680A43DA607A
:105240007B68D9697B681A6A7B681B680A431A60A5
:105250007B681B681A687B681B6842F001021A6051
:105260007B6800225A647B68202283F841207B6897
:1052700000221A637B68002283F84220002318462C
:105280000837BD4680BD000080B588B002AFF86029
:105290007A601A460B467B8113463B81FB6893F884
:1052A0004130DBB2202B40F0DA80FB6893F84030CD
:1052B000012B01D10223D3E0FB68012283F84020B7
:1052C000FDF7E2FA78617B690093192301224FF41C
:1052D0000041F86800F02FFF0346002B01D00123A6
:1052E000BEE0FB68212283F84120FB68102283F88E
:1052F0004220FB6800225A64FB687A685A62FB68A5
:105300003A895A85FB6800225A63FB685B8D9BB221
:10531000FF2B0ED9FB68FF221A85FB681B8DDAB2C2
:105320007989514B00934FF08073F86801F0BCF815
:105330006CE0FB685B8D9AB2FB681A85FB681B8D7D
:10534000DAB27989484B00934FF00073F86801F0A6
:10535000ABF85BE07A69396AF86800F03BFF034616
:10536000002B01D001237BE0FB685B6A1A78FB68A5
:105370001B689A62FB685B6A5A1CFB685A62FB688E
:105380005B8D9BB2013B9AB2FB685A85FB681B8D13
:10539000013B9AB2FB681A85FB685B8D9BB2002BC0
:1053A00034D0FB681B8D002B30D17B6900933B6AA6
:1053B00000228021F86800F0BEFE0346002B01D0D9
:1053C00001234DE0FB685B8D9BB2FF2B0ED9FB6880
:1053D000FF221A85FB681B8DDAB2798900230093BE
:1053E0004FF08073F86801F05FF80FE0FB685B8DA9
:1053F0009AB2FB681A85FB681B8DDAB279890023A3
:1054000000934FF00073F86801F04EF8FB685B8D75
:105410009BB2002B9ED17A69396AF86800F021FFAF
:105420000346002B01D001231AE0FB681B682022F1
:10543000DA61FB681B685968FB681A680B4B0B4004
:105440005360FB68202283F84120FB68002283F828
:105450004220FB68002283F84020002300E0022362
:1054600018461837BD4680BD0020008000E800FEC9
:1054700080B58AB002AFF8607A603B600B467B81F2
:1054800000237B61FB6893F84130DBB2202B40F0B6
:10549000F380FB681B689B6903F40043B3F5004F7E
:1054A00001D10223E9E0FB6893F84030012B01D1E0
:1054B0000223E2E0FB68012283F84020FB682422FB
:1054C00083F84120FB6800225A64FB68DB68012BEB
:1054D00007D17B89C3F3090343F0007343F40053FE
:1054E00006E07B89C3F3090343F0007343F42053C0
:1054F000FA6812685360FDF7C7F9B861FB681B686A
:105500009B6903F02003202B0CBF01230023DBB297
:10551000FB77FB681B689B6903F01003102B0CBF23
:1055200001230023DBB2BB7734E03B68B3F1FF3FDC
:105530001AD0FDF7A9F90246BB69D31A3A689A4214
:1055400002D33B68002B0FD1FB68202283F8412057
:10555000FB685B6C43F02002FB685A64FB68002226
:1055600083F84020012388E0FB681B689B6903F0F7
:105570002003202B0CBF01230023DBB2FB77FB6849
:105580001B689B6903F01003102B0CBF0123002341
:10559000DBB2BB77FB7F002B02D1BB7F002BC4D0DB
:1055A000FB681B689B6903F01003102B1AD0BB69C2
:1055B00000933B6800222021F86800F0BCFD034600
:1055C000002B01D0012358E0FB681B682022DA6120
:1055D000FB68202283F84120FB68002283F84020EA
:1055E00000234AE0BB6900933B6800222021F86851
:1055F00000F0A1FD0346002B01D001233DE0FB6834
:105600001B681022DA61FB681B682022DA617B6963
:105610007A689A4218D1FB681B685A68FB681B6855
:1056200042F480425A60BB6900933B68002220210B
:10563000F86800F080FD0346002B01D001231CE038
:10564000FB681B682022DA617B6901337B617B691F
:105650007A689A423FF639AFFB68202283F84120EE
:10566000FB685B6C43F02002FB685A64FB68002215
:1056700083F84020012300E0022318462037BD466E
:1056800080BD80B584B000AF78607B681B689B6983
:10569000FB607B681B681B68BB607B685B6B002BD7
:1056A00005D07B685B6BBA68F9687868984700BF7B
:1056B0001037BD4680BD80B586B000AF78607B688E
:1056C0001B689B697B617B681B681B683B617B690E
:1056D0001B0A03F00103002B10D03B69DB0903F028
:1056E0000103002B0AD07B685B6C43F001027B68EE
:1056F0005A647B681B684FF48072DA617B699B0A8D
:1057000003F00103002B10D03B69DB0903F0010318
:10571000002B0AD07B685B6C43F008027B685A64FC
:105720007B681B684FF48062DA617B695B0A03F077
:105730000103002B10D03B69DB0903F00103002BB0
:105740000AD07B685B6C43F002027B685A647B681A
:105750001B684FF40072DA617B685B6CFB60FB686E
:1057600003F00B03002B03D0F968786800F08AFB84
:1057700000BF1837BD4680BD80B483B000AF7860ED
:1057800000BF0C37BD465DF8047B704780B483B022
:1057900000AF786000BF0C37BD465DF8047B7047F2
:1057A00080B483B000AF78600B46FB7013463B803B
:1057B00000BF0C37BD465DF8047B704780B483B0F2
:1057C00000AF786000BF0C37BD465DF8047B7047C2
:1057D00080B483B000AF786000BF0C37BD465DF881
:1057E000047B704780B483B000AF786000BF0C3793
:1057F000BD465DF8047B704780B586B000AFF860A9
:10580000B9607A60FB68DB6A7B61BB683B61FB68FF
:1058100093F84030012B01D10223ECE0FB68012218
:1058200083F840203B695B0903F00103002B09D09A
:105830007B685B0903F00103002B03D03969F8682A
:1058400000F0C0F93B691B0903F00103002B4DD0A8
:105850007B681B0903F00103002B47D0FB685B8DBD
:105860009BB2002B28D1FB6893F84130DBB2282B88
:1058700008D17B69B3F1007F04D13969F86800F081
:10588000ABFA32E0FB6893F84130DBB2292B0ED142
:105890007B6913F5803F0AD0FB681B681022DA6130
:1058A000F86800F006FCF86800F02DF91DE0FB68D0
:1058B0001B681022DA6196E0FB681B681022DA612F
:1058C000FB685B6C43F00402FB685A647B69002B45
:1058D00004D07B69B3F1807F40F08580FB685B6C0E
:1058E0001946F86800F0CEFA7DE07CE03B699B0841
:1058F00003F00103002B30D07B689B0803F0010309
:10590000002B2AD0FB685B8D9BB2002B18D0FB6864
:105910001B685A6AFB685B6AD2B21A70FB685B6AE2
:105920005A1CFB685A62FB681B8D013B9AB2FB68EC
:105930001A85FB685B8D9BB2013B9AB2FB685A8566
:10594000FB685B8D9BB2002B4FD17B6913F5803FC9
:105950004BD0F86800F0D7F847E03B69DB0803F06C
:105960000103002B0AD07B68DB0803F00103002B46
:1059700004D03969F86800F042F837E03B695B0809
:1059800003F00103002B31D07B685B0803F00103B7
:10599000002B2BD0FB685B8D9BB2002B18D0FB68D3
:1059A0005B6A1A78FB681B689A62FB685B6A5A1C20
:1059B000FB685A62FB685B8D9BB2013B9AB2FB6845
:1059C0005A85FB681B8D013B9AB2FB681A850DE076
:1059D0007B69B3F1807F02D07B69002B06D1F86828
:1059E00000F091F802E000BF00E000BFFB68002279
:1059F00083F84020002318461837BD4680BD80B587
:105A000084B000AF786039607B6893F84130DBB2D6
:105A100003F02803282B6AD17B681B689B691B0C49
:105A2000DBB203F00103FB737B681B689B691B0CF3
:105A30009BB203F0FE03BB817B681B689B689BB233
:105A4000C3F309037B817B681B68DB689BB203F0AF
:105A5000FE033B817B68DB68022B38D17B89DB0945
:105A60009AB2BB8953409BB203F00603002B1CD1B2
:105A70007B89BB817B689B6C5A1C7B689A647B68C2
:105A80009B6C022B3BD17B6800229A647B681B686D
:105A90000822DA617B68002283F84020BA89FB7B08
:105AA00019467868FFF77CFE29E03B89BB814FF4FB
:105AB0000041786800F02AFD7B68002283F84020CE
:105AC000BA89FB7B19467868FFF76AFE17E04FF446
:105AD0000041786800F01AFD7B68002283F84020BE
