:020000040800F2
:1000000000A00020311C00081D1B00081F1B000859
:10001000211B0008231B0008251B0008000000000E
:10002000000000000000000000000000271B000886
:10003000291B0008000000002B1B00082D1B0008D6
:10004000811C0008811C0008811C0008811C00081C
:10005000811C0008311B0008811C0008331B0008AC
:10006000811C0008811C0008811C0008811C0008FC
:10007000811C0008811C0008811C0008811C0008EC
:10008000811C0008811C0008391B0008811C000825
:10009000811C0008811C0008811C0008811C0008CC
:1000A000551B0008811C0008811C0008811C0008E9
:1000B000711B00087D1B0008811C0008891B0008BB
:1000C000951B0008811C0008811C0008811C000889
:1000D000811C0008811C0008A11B0008811C00086D
:1000E000AD1B0008811C0008811C0008C51B00080E
:1000F000811C0008811C0008811C0008811C00086C
:10010000000000000000000000000000811C00084A
:10011000811C0008811C0008811C0008811C00084B
:10012000D11B0008811C0008811C0008811C0008EC
:10013000811C0008811C0008000000000000000075
:10014000811C0008811C0008811C000800000000C0
:10015000000000000000000000000000000000009F
:100160000000000000000000811C0008811C000845
:10017000811C0008000000000000000000000000DA
:0801800000000000811C0008D2
:1001900010B5054C237833B9044B13B10448AFF3C1
:1001A00000800123237010BD7C00002000000000AF
:1001B0005C6B000808B5034B1BB103490348AFF360
:1001C000008008BD00000000800000205C6B00087B
:1001D00001F0FF01102A2BDB10F0070F08D010F8F8
:1001E000013B013A8B422DD010F0070F42B3F6D1FC
:1001F000F0B441EA012141EA014122F007047FF015
:1002000000070023F0E80256083C85EA010586EA6B
:10021000010685FA47F5A3FA87F586FA47F6A5FAA7
:1002200087F68EB9EED1F0BC01F0FF0102F00702B3
:1002300032B110F8013B013A83EA010313B1F8D15E
:100240000020704701387047002D06BF354603383F
:10025000073815F0010F07D1013015F4807F02BF78
:10026000013015F4C03F0130F0BC0138704700BFC9
:100270007FB50023CDE9033305930123CDE9003396
:10028000694603230348029302F0EEFB07B05DF8D2
:1002900004FB00BF540100207FB50023CDE90333E8
:1002A00005930C220123CDE900236946032303486B
:1002B000029302F0D9FB07B05DF804FB5401002063
:1002C00038B50B4C0B4DFFF7D3FF002320466B8056
:1002D00001F04AFF6421204602F00EF8204602F0A9
:1002E00093F96880204601F0E7FF688838BD00BFB9
:1002F00054010020A400002038B50B4C0B4DFFF733
:10030000CBFF002320462B8001F02EFF64212046E6
:1003100001F0F2FF204602F077F92880204601F034
:10032000CBFF288838BD00BF54010020A400002066
:100330002DE9F843DFF8FC90364E374FDFF8F880B0
:1003400000254C463B8836F8022BB8F800109BB2CB
:10035000914229F8023B09D8092B07D901220A3B0F
:100360002E4829F8023C114602F0E0FF3B882C4A57
:10037000C3F3072313703B88537036F8022C40F602
:10038000D7639A4229D90021264805F0DFF90421D4
:10039000244805F0DBF90021234805F0D7F90021B6
:1003A000224805F0D3F900211E4805F005FB042181
:1003B0001C4805F001FB00211B4805F0FDFA002157
:1003C0001A4805F0F9FA0A230122144823806380B1
:1003D000A380E380114602F0A9FF39F8023C092B03
:1003E00008D936F8023C0A2B04D80C480022012117
:1003F00002F09CFF0135EDB2042DA3D16288238861
:100400001344A2881344E2881344094A9B101380C2
:10041000BDE8F883A40000205A050020001400481D
:10042000980000206C0200209C030020B8020020ED
:100430005C050020040000200200002030B50546C5
:1004400085B00C4616484FF0FF3301224E2103F0D1
:10045000BBF90028F6D125F00F03234344EA051425
:1004600043F00C02E4B243F008038DF80D3044F081
:100470000C038DF80E304FF0FF338DF80C200093F5
:1004800003AA04234E2144F0080405488DF80F40C8
:1004900003F004F9052001F03DFC05B030BD00BFBC
:1004A000F401002030B5144B144C1B7841EA0011C4
:1004B00085B041EAC301642541F004010DF10F024A
:1004C0008DF80F1001234E210095204603F0E6F829
:1004D000012001F01FFC9DF80F30009523F004036C
:1004E0008DF80F300DF10F0201234E21204603F04D
:1004F000D5F805B030BD00BF00000020F401002099
:1005000010B5002104460009FFF7CCFF04F00F00EE
:100510000021013CFFF7C6FF012C04D8BDE81040C4
:10052000022001F0F7BB10BD10B5012104460009FF
:10053000FFF7B8FF04F00F000121BDE81040FFF7FE
:10054000B1BF08B5322001F0E5FB00210320FFF721
:10055000A9FF052001F0DEFB00210320FFF7A2FF29
:10056000012001F0D7FB00210320FFF79BFF0120B2
:1005700001F0D0FB00210220FFF794FF2820FFF7B5
:10058000BFFF0C20FFF7BCFF0620FFF7B9FF0120DB
:10059000FFF7B6FFBDE80840022001F0BBBB10B575
:1005A000441E14F8010F00B910BDFFF7BDFFF8E7B6
:1005B000831EDBB2022B9ABF044AD05C8020084421
:1005C00060F07F00C0B2FFF79BBF00BFE86B000880
:1005D00008B50120FFF794FFBDE80840022001F0B4
:1005E00099BB00000B4970B50B680B4C0B4D54F8D0
:1005F00023202E6844F82300821A01331420324449
:1006000093FBF0F400FB14332A600B6092FBF0F0D4
:1006100070BD00BF4C050020F804002080050020BC
:1006200010B51548154C202102F07AFE23781843A6
:10063000C0B260B901221248022102F077FE114ACD
:1006400001232370137801331370FFF7C1FF0A48A9
:10065000202102F065FE70B1237863B100220848C2
:10066000022102F063FE074A1378022B4FF00003C9
:1006700088BF1370237010BD00040048500500208F
:10068000001400485105002010B59EB02022002122
:1006900006A805F0EDFD14220021684605F0E8FDEE
:1006A0003C220DEB0200002105F0E2FD0A23059338
:1006B00010220123CDE909320B9302244FF4601379
:1006C00005A80C940E9303F013FC08B172B6FEE774
:1006D0000F23CDE900344FF48063CDE9033002905D
:1006E0002146684603F0B8FE08B172B6FEE70C4B2F
:1006F0000F934FF480724FF40053CDE91100CDE910
:100700001823CDE91B0016904FF400730FA8109327
:1007100003F07EFF08B172B6FEE71EB010BD00BF49
:10072000A33101002DE98048AF4DA3B001F0CEFA0E
:10073000FFF7AAFF1422002117A805F099FD6B69A5
:10074000AA4843F400236B616B6903F4002305930B
:10075000059B6B6943F480036B616B6903F4800351
:100760000693069B6B6943F400336B616B6903F47A
:1007700000330793079B6B6943F480236B616B69BC
:1007800003F48023089300224FF40041089B02F0F9
:10079000CDFD97480022032102F0C8FD95480022B4
:1007A0004FF4705102F0C2FD00224FF480614FF00F
:1007B0009040002402F0BAFD4FF444194FF4C043B6
:1007C0008A48199417A90126CDE9173902F0E4FCEB
:1007D0004FF40043854817A9CDE917360327CDE923
:1007E000194402F0D9FC824817A94FF00208CDE95C
:1007F0001776CDE9194402F0CFFC17A94FF09040CD
:10080000CDE91789199402F0C7FC4FF47053794869
:1008100017A9CDE91736CDE9194402F0BDFC4FF414
:10082000806317A94FF09040CDE91736CDE9194400
:1008300002F0B2FC20236F48199417A9CDE91734B0
:1008400002F0AAFC22462146072002F045FB0720C1
:1008500002F074FB22463946282002F03DFB282096
:1008600002F06CFB6B6943EA08036B616B69624DD4
:1008700003EA08032246214604933820049B02F031
:100880002BFB382002F05AFB1822214617A805F04E
:10089000EFFC5A4B85F82040C5E900344FF48073D3
:1008A0004FF0050A4FF004092B832846C5E90A6476
:1008B000C5E90244C5F81CA085F830402E61C5F892
:1008C00014906C6301F034FB08B172B6FEE7CDE919
:1008D0001980CDE91B0017A92846CDE9176602F05B
:1008E000C3F808B172B6FEE717A92846CDE9178804
:1008F00002F0BAF808B172B6FEE717A92846CDE9AA
:10090000177702F0B1F808B172B6FEE717A92846CA
:10091000CDE9179902F0A8F808B172B6FEE70C23EA
:1009200017A92846CDE9173A02F09EF8044608B107
:1009300072B6FEE7014610220CA805F099FC1C22B5
:10094000214610A8CDE909440B9405F091FC2C2216
:10095000214617A805F08CFC294D2A4BAC60C5E94F
:1009600000344FF4FA63C5E90334284680236C61F0
:10097000AB6104F03BFB08B172B6FEE74FF4805365
:100980000CA928460C9304F059FD08B172B6FEE795
:10099000284604F05BFB08B172B6FEE7CDE909001A
:1009A0000B9009A9284605F009F808B172B6FEE7D0
:1009B00000224FF060094FF47A7304261048169213
:1009C00010A9CDE91093CDE91222CDE9146204F00B
:1009D000E3FB08B172B6FEE70948324610A904F0FD
:1009E000DBFB88B172B6FEE7001002400008004849
:1009F00000140048000400480401002000010050D9
:100A00006C020020002C01403223CDE91A304FF453
:100A10000053CDE91C304FF00073CDE91700CDE94C
:100A20001F3019901E90219017A9A74805F008F8CB
:100A3000054608B172B6FEE7A348A44C00F07CFF5F
:100A40001022294610A805F013FC1022294617A8E9
:100A5000CDE90C550E95012705F00AFC4FF08043B7
:100A6000C4E900379A4BA5602046C4E90335A56167
:100A700004F0BCFA08B172B6FEE74FF4805310A937
:100A80002046109304F0DAFC08B172B6FEE7204667
:100A900004F00CFB08B172B6FEE70C900E900CA9A6
:100AA000204604F08BFF024608B172B6FEE7CDE99E
:100AB000170719900C2517A920461A9504F020FC59
:100AC00008B172B6FEE702231A90324617A92046F3
:100AD000CDE9173304F014FC034608B172B6FEE703
:100AE0007C48DFF814824FF41652C0E90082C0E956
:100AF0000233C0E90435C0E90633C0E9083305F024
:100B00005EFB08B172B6FEE77348DFF8F0E14FF420
:100B10001643C0E900E30C220023C0E90233C0E918
:100B20000523C0E907330361436205F048FB05462E
:100B300008B172B6FEE7014610220CA805F098FB3A
:100B40001C22294610A8CDE909550B9505F090FB0C
:100B50002C22294617A805F08BFB604C604BA56042
:100B6000C4E900354FF4FA63C4E903352046802315
:100B70006561A36104F03AFA08B172B6FEE74FF47A
:100B800080530CA920460C9304F058FC08B172B6AF
:100B9000FEE7204604F05AFA08B172B6FEE7CDE946
:100BA00009000B9009A9204604F008FF024608B18D
:100BB00072B6FEE7CDE91200CDE914004FF0600CEB
:100BC0004FF47A73169010A92046CDE910C304F0B3
:100BD000E3FA08B172B6FEE73223CDE91A304FF4DA
:100BE0000053CDE91C304FF00073CDE91700CDE97B
:100BF0001F3019901E90219017A9204604F020FF65
:100C0000054608B172B6FEE7204600F095FE354C69
:100C1000354B364E2562C4E9006324270123204664
:100C2000C4E90273C4E90455C4E9065502F0E5FCC1
:100C3000014608B172B6FEE7204603F00DF9014601
:100C400008B172B6FEE7204603F02CF908B172B67F
:100C5000FEE71422002117A805F00AFB244C254AC0
:100C600000237F20C4E9002340F23712C4E90202C6
:100C70002046C4E904331093A36103F01CFE08B1BD
:100C800072B6FEE7CDE91A0009238DF85E00012255
:100C900017A92046ADF85C3003F060FE08B172B6CB
:100CA000FEE7012606238DF843003246204610A9B0
:100CB0008DF840608DF841308DF8426003F0AAFE57
:100CC0000446E8B172B6FEE76C020020040300207F
:100CD0000090D003E8030020700400209C03002053
:100CE00000340140F40100200E09002000540040AF
:100CF0004C02002000280040003801400044004021
:100D0000014610220CA805F0B3FA1C22214610A8B7
:100D1000CDE909440B9405F0ABFA2C22214617A823
:100D200005F0A6FA784D794BAC60C5E900344FF474
:100D3000FA63C5E90334284680236C61AB6104F093
:100D400055F908B172B6FEE74FF480530CA9284656
:100D50000C9304F073FB08B172B6FEE7284604F06A
:100D600075F908B172B6FEE709900B9009A92846FB
:100D700004F024FE024608B172B6FEE760214FF48B
:100D80007A73CDE91013CDE91200CDE91400169065
:100D900010A9284604F000FA08B172B6FEE74FF435
:100DA0000053CDE91700CDE91900CDE91C301B90A7
:100DB000219017A9284604F043FE044608B172B6F4
:100DC000FEE7284600F0B8FD1822214617A8CDE915
:100DD0001044129405F04CFA4D484FF0A043C0E97E
:100DE000003404830423C0E90A64C0E9024480F8A3
:100DF0002040C66180F8304004614361446301F0E3
:100E000097F808B172B6FEE700234148109310A985
:100E100001F0C2FF08B172B6FEE7CDE91B001A90DF
:100E20004FF004093A4801264FF0020817A9CDE90E
:100E30001796CDF8648001F017FE044608B172B62B
:100E4000FEE7344D1290CDE910000146182217A894
:100E500005F00EFA304B2C832846C5E90A64C5E933
:100E60000034C5E90244C5E9044985F82040EE6133
:100E700085F830406C6301F05BF808B172B6FEE7AC
:100E8000109010A9284601F087FF08B172B6FEE75E
:100E9000CDE91980CDE91B0017A92846CDE91766D1
:100EA00001F0E2FD044608B172B6FEE701461022E9
:100EB00017A805F0DDF9194F194B1294C7E9003452
:100EC0004FF6FF73C7E9033438468023CDE9104459
:100ED000BC60BB6104F08AF808B172B6FEE74FF45B
:100EE000805A17A93846CDF85CA004F0A7FA08B1DB
:100EF00072B6FEE71090129010A9384604F05EFD1D
:100F0000074678B172B6FEE7B80200200040014003
:100F1000B4000020540100200004005050030020C1
:100F200000040040BD48BE4C3246314602F0FEF996
:100F300032464FF480614FF0904002F0F7F9B94B20
:100F400022885A6362889A63A288C3F8342803F51A
:100F50000063E288C3F8342C3946B34804F09EFBA2
:100F60004946B14804F09AFB3946B04804F096FB74
:100F70003946AF4804F092FB3946AE4804F0E8FB2E
:100F80004946AC4804F0E4FBAB4832464FF40061FC
:100F900002F0CCF9A84832464FF4806102F0C6F95D
:100FA0005146A548DFF8A0A2324602F0BFF932460A
:100FB000A1484FF4005102F0B9F905219F4801F012
:100FC00026FB49469E4801F022FB4146284601F097
:100FD0001EFB9C4B64201E7000F09CFEFFF7B1FAD4
:100FE000FFF7F6FA3A468D48314602F09FF9394646
:100FF0003020FFF723FA40463946FFF71FFA3946FB
:101000000C20FFF71BFA39463046FFF717FA8E49D6
:101010008A48DFF82C82052201F00EFA894B1B78F2
:10102000012B5FFA83FBF9D1884D8448884F01F08A
:10103000ADFABAF80830AB80404601F095F864216B
:10104000404601F059F90023EB80404601F0DCFAFC
:10105000E880404601F030F9FFF732F9FFF74CF92C
:101060006A882888AB88B5F80690029381181944DD
:101070004944784B03928E101E80774E3180774E14
:10108000317801313170FFF7ADFA039A38701046AC
:10109000FFF7A8FA029B78701846FFF7A3FAB8701A
:1010A0004846FFF79FFADFF8F891F87099F800705A
:1010B000002F3BD13378142B40F02981684A6949CD
:1010C0001268029317A805F0DBF839465846FFF777
:1010D0006FFA17A8FFF763FA634A029B1288634905
:1010E000B2FBF3F317A805F0CBF839460220FFF75F
:1010F0005FFA17A8FFF753FA564B5D491A8817A8ED
:1011000005F0BEF839460320FFF752FA17A8FFF79B
:1011100046FA584B58491A8817A805F0B1F8042028
:101120003946FFF745FA17A8FFF739FA99F800B0E2
:10113000BBF1020F2FD13378162B40F0E8804F4FD0
:101140004F480022394603F0BBFC4E494C48002270
:1011500003F0D9FC4C4B4D4A1B7800934C4B127852
:101160001B784C4917A805F08BF800210120FFF7E8
:101170001FFA17A8FFF713FABB7800937B783A7829
:10118000454917A805F07CF858460021FFF710FAEA
:1011900017A8FFF704FA99F80090B9F1010F40F091
:1011A000B6803378122B7DD123883C49142717A8A9
:1011B000B3FBF7F205F064F800214846FFF7F8F9B1
:1011C00017A8FFF7ECF963883449B3FBF7F217A8C7
:1011D00005F056F800210220FFF7EAF917A8FFF7FB
:1011E000DEF9A3882D49B3FBF7F217A805F048F8FC
:1011F00000210320FFF7DCF917A8FFF7D0F9E388F7
:101200002649B3FBF7F217A805F03AF804200021AD
:10121000FFF7CEF917A8FFF7C2F943E00014004822
:1012200004000020002C01406C0200209C030020E0
:10123000B80200200403002000040048040100203C
:10124000B4000020B2000020A4010020A40000206F
:101250009F000020AC000020AE0000209E00002077
:1012600060050020746B00085C050020886B000896
:101270009D6B0008B0000020AB6B000868050020E3
:101280004C020020640500207C050020480200205C
:1012900048050020B56B0008BB6B0008CF6B000849
:1012A000510500203378B42B31D12A88254917A85D
:1012B00004F0E6FF0D210120FFF77AF917A8FFF7E8
:1012C0006EF96A881F4917A804F0DAFF0D21022081
:1012D000FFF76EF917A8FFF762F9AA88194917A84E
:1012E00004F0CEFF0D210320FFF762F917A8FFF7E6
:1012F00056F9EA88134917A804F0C2FF0D2104200B
:10130000FFF756F917A8FFF74AF900233370FFF7E4
:101310000FF8FFF785F90C4B22885A6362889A63AD
:10132000A288C3F8342803F50063E288C3F8342C9C
:10133000064A0748002313705146052201F07CF845
:101340006CE600BFDF6B0008002C0140B2000020FB
:101350000401002070B50668B6F1804F05466AD1D9
:10136000037F012B3AD1344B344800245C62214680
:1013700004F0ECF90421314804F0E8F92146304842
:1013800004F0E4F921462F4804F0E0F974622146A4
:101390002D482E4E03F002FD042130602A4803F050
:1013A000FDFC2B4B316818802A4B2B4AB2FBF1F223
:1013B0001A602A4A2A4B2148B3FBF1F321461380D5
:1013C00004F0F8FA04211D4804F0F4FA21461C4800
:1013D00004F0F0FA1B48214604F0ECFA2B7F022BB4
:1013E00029D1154B1F4800245C624FF4004101F0E5
:1013F000A2FF2146114804F0DFFA04210F4804F04F
:10140000DBFA21460E4804F0D7FA21460D4804F0D5
:10141000D3FA2146094804F041F90421074804F0B1
:101420003DF92146064804F039F921460548BDE852
:10143000704004F033B970BD000400406C0200201D
:101440009C030020B8020020040300205405002063
:10145000580500206005002000389C1CB0000020CA
:101460000048E80100080048B0F5005F73B5044685
:101470003FD13E484FF4004101F05DFF3B4821461B
:1014800001F04EFF002832D1394C238823889BB2CB
:10149000132B18D8374E3278AAB9374D37480192F6
:1014A000294603F00DFB019A3549344803F02BFB24
:1014B000344B2A781A70344B6A781A70334BAA78F6
:1014C0001A700123337023880A339BB22380238848
:1014D00040F2CE729BB2934284BF4FF4FA632380F2
:1014E0002B4B04221A702B4B4FF400525A6102B05E
:1014F00070BDB0F5804FFAD101461C4801F010FFD5
:10150000012804D119484FF4004101F014FF174895
:101510004FF4804101F004FF0028E8D1144B1A88F1
:1015200092B252B913490878012806D10A701549B8
:101530000A7015490A7015490A701A880A3A92B257
:101540001A801A8840F6330192B28A4284BF002280
:101550001A801A8892B2012A9CBF00221A800C4B72
:1015600004221A700B4B4FF48042BFE7000800487A
:101570005A0500207D050020680500204C0200204F
:101580006405002048020020480500207C0500205A
:101590005E0500200004014000224FF480614FF0FE
:1015A000904001F0C3BE00000268034B9A4202BFA4
:1015B000024B01221A70704700010050B200002057
:1015C00072B6FEE70F4B07B59A6942F001029A61C5
:1015D0009A6902F001020092009ADA6942F08052A0
:1015E000DA61DB69002203F0805301931146052084
:1015F000019B01F071FC052003B05DF804EB01F0E4
:101600009DBC00BF0010024070B505468CB014228E
:10161000002107A804F02CFE2B68B3F1A04F2BD1BA
:101620004D4A13680133012B13604C4B08D15A69A2
:1016300042F080525A615A6902F080520092009A38
:101640005A6942F400325A615B6903F40033019332
:101650000821019B0323CDE907134FF0904007A910
:1016600001F09AFD00221220114601F035FC1220F3
:1016700001F064FC0CB070BD394A93424DD1364A3A
:1016800013680133012B1360344B08D15A6942F0BF
:1016900080525A615A6902F080520292029A5A6943
:1016A00042F400325A615A6902F400320392039AFA
:1016B0005A6942F480225A615B6903F480230493DF
:1016C0000324049B07A9F0234FF090400026CDE9A6
:1016D000073401F061FD04232248099607A9CDE9EA
:1016E000073401F059FD204C204BA660C4E90036B8
:1016F00080224FF48073C4E903234FF48063C4E96C
:10170000053620464FF48053E36101F05BFC08B1DD
:10171000FFF756FFAC636562A4E7154A9342A9D16F
:101720000E4B10485A6942F000525A615A6902F051
:1017300000520592059A5A6942F480225A615B6907
:1017400003F480230693069B07A90323CDE90733FF
:1017500001F022FD8EE700BF84050020001002404A
:101760000001005000040048B001002008040240BD
:101770000004005010B5044688B01422002103A8CC
:1017800004F076FD22681B4B9A4231D11A4C1B485B
:10179000636943F480236361636903F480230193E5
:1017A0004FF44072019B1223CDE90323012103234F
:1017B000CDE90513042303A9079301F0EDFCE369C8
:1017C00043F40013E361E369002203F400131146BC
:1017D00002931F20029B01F07FFB1F2001F0AEFB54
:1017E00000222020114601F077FB202001F0A6FB0B
:1017F00008B010BD00540040001002400004004832
:101800000268074B9A420AD14FF4004292FAA2F2C0
:10181000044BB2FA82F213449B0001221A60704713
:10182000002800400081901010B504468CB01422AE
:10183000002107A804F01CFD23683A4A934210D106
:10184000394B9A6942F400629A619B6903F4006320
:101850000193019B00221820114601F03DFB182046
:1018600026E0B3F1804F27D103F5043307A9DA69E5
:1018700042F00102DA61DA6902F001020292029A90
:101880005A6942F400325A615B6903F400330393EE
:101890000222039B4FF090400123CDE907320B93C6
:1018A00001F07AFC00221C20114601F015FB1C20DF
:1018B00001F044FB0CB010BD1C4A934210D11A4BEE
:1018C000DA6942F00202DA61DB69002203F0020306
:1018D00004931D201146049B01F0FEFA1D20E7E74A
:1018E000134A934210D1104B9A6942F400529A6104
:1018F0009B69002203F4005305932B201146059B9E
:1019000001F0EAFA2B20D3E70A4A9342D2D1064BE0
:101910009A6942F480329A619B6903F4803306939A
:10192000069B97E7002C0140001002400004004095
:10193000003401400040014010B514228AB0044632
:1019400000210DEB020004F093FC2368334A93421C
:1019500017D1334B5A6942F400325A615B6903F480
:1019600000330193019B4FF4D8520223CDE90523A4
:101970000623099305A94FF0904001F00DFC0AB031
:1019800010BD284A934228D1254B5A6942F40032AF
:101990005A615A6902F400320292029A5A6942F478
:1019A00080225A615B6903F4802303930224039B22
:1019B00009944FF4004305A94FF09040CDE9053458
:1019C00001F0EAFB0823CDE905340023CDE9073314
:1019D00004230993144805A9CFE7144A9342CED1B2
:1019E0000F4B11485A6942F480225A615B6903F433
:1019F000802304930224049B4FF48043CDE90534F3
:101A000005A90123099301F0C7FB4FF40043CDE979
:101A100005340023CDE907330994DBE7002C0140AE
:101A20000010024000340140000400480040014022
:101A300070B514228AB0044600210DEB020004F0B8
:101A400017FC2368314A934220D1314B31489A69BF
:101A500042F480429A619A6902F480420092009AAC
:101A60005A6942F480225A615B6903F4802301932E
:101A7000019BC02202230321CDE905230723CDE9E1
:101A8000081305A901F088FB0AB070BD224A9342F1
:101A9000FAD11F4BDA6942F40032DA61DA6902F4F2
:101AA00000320292029A5A6942F400325A615A692B
:101AB00002F400320392039A5A6942F480225A6176
:101AC0005B6903F480230493049B0224042303260C
:101AD000072505A94FF09040CDE90534CDE908650B
:101AE00001F05AFB1023CDE9053405A9002409486B
:101AF0000995CDE9074601F04FFB224621462620F5
:101B000001F0EAF9262001F019FABDE7003801409A
:101B1000001002400004004800440040FEE7FEE7D9
:101B2000FEE7FEE7FEE770477047704700F0E0B859
:101B30007047022001F008BC08B5044800F0B2FD6F
:101B4000BDE80840024800F0ADBD00BFB400002071
:101B50000401002008B5044803F03AF9BDE8084044
:101B6000024803F035B900BF6C020020B802002023
:101B7000014803F02DB900BF04030020014803F021
:101B800027B900BF50030020014801F0BCBE00BFD0
:101B9000F4010020014802F024B900BFF401002044
:101BA000014803F0C7BF00BF7004002008B54FF420
:101BB000005001F0C9FBBDE808404FF4804001F03F
:101BC000C3BB0000014803F003B900BF9C03002021
:101BD000014801F097BA00BFB00100200B4A11681C
:101BE00010B5034609B90A491160106809490A4C41
:101BF0000344091B8B4206D904F010FB0C2303603D
:101C00004FF0FF3010BD1360FCE700BF88050020D7
:101C1000A005002000A0002000040000034AD2F824
:101C2000883043F47003C2F88830704700ED00E05C
:101C3000DFF834D0FFF7F2FF0C480D490D4A0023BE
:101C400002E0D458C4500433C4188C42F9D30A4A71
:101C50000A4C002301E013600432A242FBD304F0DB
:101C6000E3FAFEF75FFDFEE700A000200000002081
:101C70007C000020646C00087C000020A00500208F
:101C8000FEE7000038B50E4A0E4B054618784FF4B3
:101C90007A73B3FBF0F31068B0FBF3F001F05CF97A
:101CA000044658B90F2D09D8024629464FF0FF3097
:101CB00001F012F9044B20461D6038BD0120FCE7FD
:101CC0000C0000201000002014000020074A08B576
:101CD000136843F010031360032001F0EBF80F20AA
:101CE000FFF7D0FFFFF76EFC002008BD0020024088
:101CF000034A044B11681B780B441360704700BF04
:101D00008C05002010000020014B1868704700BFB0
:101D10008C05002038B50446FFF7F6FF631C1CBF96
:101D2000054B1B78054618BFE418FFF7EDFF431B72
:101D3000A342FAD338BD00BF10000020704770479F
:101D4000704738B503680446986800F0030001281E
:101D500001D0002038BD1A68D107FAD59A6802F080
:101D60000D02012A1FD19A6842F002029A600322F2
:101D70001A60FFF7C9FF054623689B68DB07E8D5B3
:101D8000FFF7C2FF401B0228F6D923689B68DA07D9
:101D9000F2D5236C43F010032364636C43F001031A
:101DA00063640120D6E7236C43F010032364636C63
:101DB00043F001036364CDE703689A6812F00C0FE7
:101DC00070B5044601D1002070BDDA68900125D5B8
:101DD000208B40F20112904220D1234A1968490613
:101DE00010D540221A600C219A68520706D59A68CD
:101DF00096075EBF9A6842F010029A600C290FD1D4
:101E000004251DE0013AE9D1236C43F0100323645B
:101E1000636C43F0010363640120D5E76029E3D1DB
:101E20009A68100706D59A6892075EBF9A6842F0D2
:101E300020029A60602914D06C2914BF04250C2557
:101E4000FFF762FF064623689B682B42BBD0FFF773
:101E50005BFF801B0B28F6D923689B682B42F2D0CE
:101E6000D2E70825ECE700BF0194090038B5036804
:101E70009A6802F00302012A044604D11A68D107C5
:101E800001D5002038BD9968104A114209D0236C51
:101E900043F010032364636C43F001036364012087
:101EA000F0E79A6842F001029A60FFF72DFF0546BD
:101EB00023681B68DB07E4D4FFF726FF401B0228DA
:101EC000F6D923681B68DA07F2D4E0E73F00008008
:101ED000406A036C43F040030364436C43F0040323
:101EE0004364FFF72DBF406AFFF728BF436A1A6CAF
:101EF00012F0500F18D11A6C42F400721A641A686A
:101F0000D26812F4406F0CD15A7E52B91A6C22F486
:101F100080721A641A6CD2045EBF1A6C42F001021D
:101F20001A641846FFF740BB9B6B1B6B18470000F9
:101F300070B596B0002301930446002800F0848019
:101F4000026CD20662D4036C002B2DD000202368D3
:101F50009A68D10002D59B689A000AD5236C23F0B9
:101F6000120343F010032364636C43F001036364C2
:101F70000120236CDB0661D400285FD123689D68B3
:101F800015F004055AD1226C22F4817242F002024B
:101F9000B3F1A04F22646C4A03D0934256D14FF064
:101FA000A0426A49029257E0C0E91233436480F8C4
:101FB0003C30FFF729FB23689B68DE00C6D420462F
:101FC000FFF7BFFE226CD506C1D40028BFD1236C19
:101FD000226823F4885323F0020343F002032364AE
:101FE000936823F040539360936843F08053936069
:101FF000574B584A1B68B3FBF2F30A225343019331
:10200000019B002BA2D0019B013BF8E71846B0E7EB
:1020100093420CBF029102901DE0216C21F022013D
:1020200041F020012164616C41F00101616444E0F0
:102030004FF4E07156E04FF4307153E0236C23F01D
:10204000120343F01003236401207BE04249434A1A
:102050008B42DDD1029242499A6802F00302012AC2
:1020600002D11A68D6070FD4029A3AB1966806F0E0
:102070000306012E02D11268D20705D48A68666869
:1020800022F4403232438A60626B617E012AD4E9D5
:10209000026242EA060218BF4FF4805542EA41321A
:1020A0002A4394F82050012D07D10029B5D1616A47
:1020B000013942EA414242F48032A16A012914D036
:1020C000254DAB4203D005F58075AB420AD1B1F581
:1020D000307FADD0B1F5807FADD0B1F5E07F08BFE6
:1020E0004FF48071E56A2A430A43996811F00C0F96
:1020F0000CD1D96821F4804121F00201D96094F813
:102100003010257E490041EA85310A43DD681549D2
:1021100029400A43DA602269012A05BF196BE26986
:102120001A6B02F1FF3206BF21F00F010A4322F0C1
:102130000F021A6300236364236C23F0030343F04C
:102140000103236416B070BD00010050000300506D
:102150000C00002040420F00000400500005005019
:102160000007005007C0F0FF38B503689D6815F000
:102170000405044640F0958090F83C30012B00F0B7
:102180009080012380F83C30FFF770FE002840F07B
:102190008580236C23F4706323F0010343F4807380
:1021A00023642368B3F1A04F02D03F4A934214D175
:1021B0003E4A9268D10602D0B3F1A04F11D1226CF1
:1021C00022F480122264DA6895011CD5226C22F474
:1021D000405242F48052226415E0354A9268D20699
:1021E000EDD034498B42EAD0226C42F48012226452
:1021F0002D4A93420ABF4FF0A042CA68D268C2F388
:102200004062002AE2D1226C12F480521CBF626C40
:1022100022F006026264002284F83C20B3F1A04F51
:102220004FF01C021A6002D01F4A934213D11F4A7A
:102230009168C9060AD0B3F1A04F02D01A498B4267
:102240000DD1926802F01F02052A18D19A6842F057
:1022500004029A6012E0164A9268D206F6D0144A36
:10226000926802F01F02052AF0D0114A926802F02B
:102270001F02092AEAD00F4A9342E7D038BDB3F1D2
:10228000A04F02D0084A9342EFD1084A926802F068
:102290001F02092ADAD0B3F1A04FEBE784F83C50D3
:1022A000ECE70220EAE700BF000100500003005005
:1022B000000700500004005010B590F83C30012B8E
:1022C000044616D0012380F83C306C21FFF774FDE2
:1022D00058B92046FFF735FD38B9236C23F48853ED
:1022E00023F0010343F001032364002384F83C300E
:1022F00010BD0220FCE700002DE9F04146690368AB
:10230000082E04460F4627D0B3F1A04F15D04648FB
:10231000464A4749834218BF0A46916811F01F0197
:102320000DD1DA68D00716D5236C84F83C1043F041
:10233000200323640120BDE8F0813C4AEDE7926868
:1023400012F4404F07D0236C43F020032364002392
:1023500084F83C30EEE70C26B3F1A04F02D0324AAD
:10236000934234D1314A9268D20605D0B3F1A04FDE
:1023700002D0304A934232D1DD68FFF7C5FC804677
:1023800023681A68324231D0226C42F4007222640F
:10239000DA6805F4005102F440620A4311D11A6868
:1023A00011070ED59A6812F0040F226C34D122F472
:1023B00080722264226CD20403D4226C42F00102A7
:1023C000226415F480400CBF1E600020B3E7184A59
:1023D0009268D506D0D0174A934205D1CCE712496E
:1023E0008B4208BF4FF0A042D568C6E7781CC8D022
:1023F0005FB923681B683340C2D1226C84F83C303B
:1024000042F004022264032095E7FFF77DFCA0EB75
:102410000800B842EDD8B3E742F020022264626CB3
:1024200042F001026264CCE700010050000300505A
:102430000007005000040050F7B5134602680F462D
:1024400091684907044600F1908090F83C100129FA
:1024500000F08B800121B2F1A04F80F83C1002D037
:1024600043498A425CD1434A926812F01F0F0CBF65
:1024700001220022002A74D020460193FFF7F6FCC7
:102480000646002869D1206C2568019B20F4706005
:1024900020F0010040F48070B5F1A04F206402D01C
:1024A000334A95423ED1334A9268D20602D0B5F102
:1024B000A04F3BD1226C22F480122264EA68910181
:1024C00005D5226C22F4405242F480522264226CE0
:1024D000A06B12F480521CBF626C22F00602626490
:1024E000002284F83C20244A8262244AC262244AA0
:1024F00002631C222A606A6842F010026A60EA687D
:1025000042F00102EA6005F140013A4600F07FFD29
:102510002268936843F004039360304603B0F0BD33
:10252000184AA1E7174A9268D006C3D016498D42CF
:10253000C0D0226C42F4801222640D4A95420ABF38
:102540004FF0A042CA68D268920141BF206C20F4CB
:10255000405040F480502064B9E7002384F83C30B8
:10256000DBE784F83C200126D7E70226D5E700BF49
:102570000001005000030050ED1E0008E71E000897
:10258000D11E0008000700500004005038B590F834
:102590003C30012B054635D0012380F83C306C21BE
:1025A000FFF70AFC0446E0B92A68A86BD36823F059
:1025B0000103D36090F82130022B07D100F063FDB6
:1025C000044618B12B6C43F040032B642A6853680F
:1025D00023F010035360284644B9FFF7B2FB0446CA
:1025E00038B1002385F83C30204638BDFFF7A9FB01
:1025F000F7E72B6C23F4885323F0010343F0010326
:102600002B64EEE70224EFE70368186C7047F8B517
:1026100090F83C30012B04460E463CD0012780F850
:102620003C70FFF78EFB0546E0B9236827649A6883
:1026300022F080429A60BE4202BF9A6842F0804215
:102640009A609A6842F000429A60FFF75DFB064686
:1026500023689B68002B09DB236C23F0030343F002
:1026600001032364002384F83C3012E0FFF74CFBA5
:10267000801B0A28ECD923689B68002BE8DA236CBE
:1026800023F0120343F010032364002384F83C304A
:1026900001252846F8BD0225FBE7704770477047C3
:1026A00070470000036870B51D685E686A070446DD
:1026B00001D5700703D4290743D5320741D5226CD1
:1026C000D0065EBF226C42F400722264B3F1A04FC8
:1026D00003D0904A934240F005818F4A9168C90621
:1026E0000CD0B3F1A04F03D08A498B4240F0FF8059
:1026F000926802F01F02052A40F01481DA68D96856
:1027000002F4005201F440610A4314D1290712D5A2
:102710009A68520700F122815A6822F00C025A602E
:10272000236C23F480732364236CD80403D4236CB8
:1027300043F0010323642046FEF736FF23680C2292
:102740001A60A90601D5B20603D46B0662D57006DD
:1027500060D5236C43F4005323642368B3F1A04F86
:1027600003D06C4A934240F002816B4A9168C906DB
:102770000CD0B3F1A04F03D066498B4240F0FC80EF
:10278000926802F01F02052A40F00881DA68D96CCD
:1027900011F0C00F38D1910106D5D96802F400526A
:1027A00001F440610A432FD168062DD5B3F1A04F43
:1027B00003D0584A934240F00D81574A9168C906A8
:1027C0000CD0B3F1A04F03D052498B4240F00781A7
:1027D000926802F01F02062A40F01381DA68910223
:1027E00012D49A68120700F128815A6822F0600218
:1027F0005A60236C23F480532364236CD80503D4DC
:10280000236C43F0010323642046FFF746FF23684F
:1028100060221A6029060BD5320609D5236C43F4D1
:10282000803323642046FFF78AFA236880221A60E7
:10283000EB050CD5F0050AD5236C43F40033236473
:102840002046FFF72CFF23684FF480721A60A90519
:102850000CD5B2050AD5236C43F4802323642046AB
:10286000FFF71EFF23684FF400721A60EB0625D5B0
:10287000F00623D5636B012B12D02268B2F1A04F72
:1028800000F0E4802348254B2349824208BF0B46D1
:102890009968C90640F0DC80D36813F0010F0AD0B4
:1028A000236C43F480632364636C43F0020363642A
:1028B0002046FFF745FA236810221A606A0510D5F2
:1028C00073050ED5236C43F480432364636C43F09B
:1028D0000803636423684FF480621A602046FFF7A0
:1028E000DDFE70BD0D4A9268D0063FF407AF0B4A7B
:1028F000926802F01F02052A3FF400AF074A92686F
:1029000002F01F02092A3FF4F9AE054A934223D18F
:10291000F4E600BF00010050000300500007005023
:1029200000040050B3F1A04F02D04B4A9342E5D1CE
:102930004A4A926802F01F02092A3FF4DFAEB3F15F
:10294000A04F3FF4DBAE464A93423FF4D7AE424934
:102950008B4208BF4FF0A042D268D0E6236C43F010
:1029600010032364636C43F001036364E3E63D4AB0
:102970009268D0063FF40AAF3A4A926802F01F020A
:10298000052A3FF403AF374A926802F01F02092A72
:102990003FF4FCAE324A93421AD1F7E6B3F1A04FAE
:1029A00002D02D4A9342EED12C4A926802F01F02C7
:1029B000092A3FF4EBAEB3F1A04F3FF4E7AE284A4B
:1029C00093423FF4E3AE24498B4208BF4FF0A0424C
:1029D000D268DCE6234A9268D0063FF4FFAE214A73
:1029E000926802F01F02062A3FF4F8AE1D4A926870
:1029F00002F01F02072A3FF4F1AE194A93421AD19E
:102A0000ECE6B3F1A04F02D0134A9342EED1134A41
:102A1000926802F01F02072A3FF4E0AEB3F1A04F24
:102A20003FF4DCAE0E4A93423FF4D8AE0A498B42E3
:102A300008BF4FF0A042D268D1E6236C43F01003E8
:102A40002364636C43F001036364DDE6034B1FE71B
:102A50009B6813F4404F22E7000100500003005030
:102A600000040050000700502DE9F04196B000230B
:102A7000019390F83C30CE68012B00F07A81036816
:102A8000012280F83C209C68640700F16C814D684D
:102A90000C680622042D05FB02F231D81D6B1F279E
:102AA000974025EA070504FA02F22A431A639A6856
:102AB00012F00C0F5CD1092CD1F808C004EB4402D1
:102AC0004FF0070541D99F691E3A954027EA050551
:102AD0000CFA02F22A439A61DA68C2F3C10C4A691D
:102AE0004FEA4C0C02FA0CFC0A6902F1FF3E4FEA75
:102AF0008468BEF1030F6CD8DFE80EF0304A5560F1
:102B0000092D0AD85D6B1E3A1F27974025EA070555
:102B100004FA02F22A435A63C9E70E2D4FF01F054B
:102B200009D89F6B3C3A954027EA050504FA02F262
:102B300015439D63BBE7DF6B5A3A954027EA0505CD
:102B400004FA02F22A43DA63B1E75F69954027EAA3
:102B500005050CFA02F215435D61BDE71A6E864D5C
:102B6000154045EA080242EA0C0242F000421A66A9
:102B70009A6802F00302012A4FD11A68D7074CD590
:102B80000023002280F83C20184616B0BDE8F081F2
:102B90005A6E794F174047EA080242EA0C0242F0A7
:102BA00000425A66E4E79A6E734D154045EA080202
:102BB00042EA0C0242F000429A66D9E7DD6E6E4AA4
:102BC0002A4042EA080242EA0C0242F00042DA6677
:102BD000CEE71A6E02F0F842904502BF1A6E22F05C
:102BE00000421A665A6E02F0F842904502BF5A6ED1
:102BF00022F000425A669A6E02F0F842904502BFF7
:102C00009A6E22F000429A66DA6E02F0F84290451F
:102C1000AED1DA6E22F00042D9E70122012E02FA8B
:102C200004F20AD0D3F8B01021EA0202C3F8B020AF
:102C3000B3F1A04F26D1514A2AE0D3F8B0508E68A4
:102C40002A43092CC3F8B0200CD904EB440299693B
:102C50001B3A0725954021EA050106FA02F20A43CC
:102C60009A61E5E7651C596905EB45050722AA400D
:102C700021EA020106FA05F20A43B3F1A04F5A61B4
:102C80003FF47EAF3E4D3D493E4AAB4208BF0A4647
:102C9000102C0AD1916811F4000F7FF471AFB3F1D9
:102CA000A04F37490ED1029116E0112C03D1916843
:102CB00011F0807FF1E7122C7FF462AF916811F47C
:102CC000800FEAE78B4202D14FF0A041EBE72E499B
:102CD0002E4D8B422BD10295996801F003010129F9
:102CE00002D11968CD0738D4029939B18D6805F041
:102CF0000305012D02D10968C9072ED4102C1AD161
:102D0000B3F1A04F7FF43CAF936843F400039360AA
:102D10001F4B204A1B68B3FBF2F30A225343019373
:102D2000019B002B3FF42CAF019B013BF7E7AB422B
:102D300018BF0021B7E7112C08D1B3F1A04F7FF4E1
:102D40001FAF936843F08073936019E7122C7FF4F0
:102D500017AF936843F48003F6E7036C43F0200356
:102D6000036401230DE7036C43F02003036413465F
:102D700007E7022308E700BF00F0FF8300030050CD
:102D800000010050000700500004005000050050F2
:102D90000C00002040420F00F0B502680D68404B67
:102DA000B2F1A04F95B001D1009309E09A4202D14F
:102DB0004FF0A043F8E73B4B3B4C9A4233D1009491
:102DC000009C002C68D090F83C30012B66D0012389
:102DD00080F83C3093685B0758D4A3685F0755D4EC
:102DE000B2F1A04F23D02E4F304E314BBA4218BF14
:102DF000334685B39F6890F830C04E6827F460472B
:102E000046EA4C363E439E60966806F00306012E65
:102E10000FD11268D6070CD50023002280F83C2081
:102E2000184615B0F0BDA24218BF0023BCE7204BE6
:102E3000DFE7A26802F00302012A02D12268D40768
:102E4000EAD49A68896822F471620D4322F00F0275
:102E500015439D60E0E7996821F4604199609168AD
:102E600001F00301012902D11268D107D4D4A2686C
:102E700002F00302012A02D12268D207CCD49A6858
:102E800022F4716222F00F029A60C5E7036C43F0EE
:102E9000200303640123C0E70123C1E70223BFE746
:102EA00000010050000400500005005000070050D1
:102EB000000300500749CA6822F4E06203021204CA
:102EC00003F4E063120C134343F0BF6343F4003395
:102ED000CB60704700ED00E0164B30B5DC68C4F302
:102EE0000224C4F10705231D042D28BF0425062B49
:102EF0004FF0FF338CBF033C002403FA05F521EAB1
:102F00000501A34022EA0302A140002841EA02038E
:102F1000ACBF00F16040084A4FEA0313B8BF00F0AD
:102F20000F00DBB2AABF00F56140135480F80033F4
:102F300030BD00BF00ED00E014ED00E0002808DB2C
:102F40004209012300F01F0003FA00F0014B43F88F
:102F50002200704700E100E00138B0F1807F0BD221
:102F60004FF0E023054A5861F02182F82310002039
:102F7000072298611A6170470120704700ED00E058
:102F800001680C4B994210B54FF0140409D80A4A55
:102F90000A44B2FBF4F292000264A3F20743C36353
:102FA00010BD064B0B44B3FBF4F39B000364044BCE
:102FB000F5E700BF07040240F8FFFDBFF8FBFDBFC7
:102FC0000004024038B50446F8B1022380F82130ED
:102FD000D0E901352B43C56801682B4305690A68B0
:102FE0002B4345692B4385692B43C56922F47F52E6
:102FF00022F030022B4313430B60FFF7C1FF002088
:103000004FF48073A063238438BD0120FCE7F0B542
:1030100090F82040012C34D090F821500124A54292
:1030200080F820404FF000064FF0020427D180F8CE
:10303000214004688663266826F001062660D0E9F0
:103040000F67BD40756063604368102BC36A0BBF98
:10305000A260A160E160E2604BB1236843F00E031F
:103060002360236843F0010323600020F0BD236840
:1030700043F00A032360236823F00403F0E780F899
:1030800020600220F2E790F82130022B06D00423C2
:103090008363002380F820300120704703681A689A
:1030A00022F00E021A601A6822F001021A60D0E9BA
:1030B0000F2101238B4053604FF480730384002061
:1030C000704710B590F82120022A03D004228263B1
:1030D000012010BD0268436B116821F00E011160E0
:1030E000116821F001011160D0E90F140122A24002
:1030F0004A604FF48072028413B198470020E8E7D9
:103100001846E6E7C16B026C036870B40E681D6870
:103110000424944034420ED015F0040F0BD01A68EA
:1031200092065EBF1A6822F004021A60C36A4C60FD
:1031300063B370BC184702249440344212D015F097
:10314000020F0FD01A68950606D41A6822F00A02F8
:103150001A60012380F8213000234C6080F8203071
:10316000836AE5E70824944034420FD02C070DD53C
:103170001C6824F00E041C60012303FA02F24A606A
:1031800083634FF480730384036BD1E770BC704793
:1031900090F82100704700002DE9F74FDFF87C918F
:1031A0005C4C00230A6832FA03F502D103B0BDE893
:1031B000F08F012505FA03FE1EEA020200F0A0804E
:1031C0004E68032706F003054FEA430807FA08FC98
:1031D0006F1E012F6FEA0C0C34D8876807EA0C0ABF
:1031E000CF6807FA08F747EA0A078760476827EABF
:1031F0000E0EC6F300179F4047EA0E074760C768E8
:1032000007EA0C0E8F6807FA08F747EA0E07022D47
:10321000C76019D14FEAD30A00EB8A0A03F0070B03
:10322000DAF820704FEA8B0B4FF00F0E0EFA0BFE00
:1032300027EA0E0E0F6907FA0BF747EA0E07CAF8DE
:10324000207001E0032DDAD1076805FA08F507EAD6
:103250000C072F4316F4403F076051D0D9F818509F
:1032600045F00105C9F81850D9F8185023F00307A4
:1032700007F1804705F0010507F58037019503F058
:10328000030E019DBD684FEA8E0E4FF00F0C0CFA35
:103290000EFCB0F1904F25EA0C0C33D01E4DA84225
:1032A00032D005F58065A84230D005F58065A8428A
:1032B0002ED005F58065A8420CBF0425052505FA2A
:1032C0000EF545EA0C05BD60A568D74316F4801FCE
:1032D0000CBF3D401543A560E56816F4001F0CBF08
:1032E0003D401543E560656816F4003F0CBF3D4066
:1032F000154365602568F60354BF3D4015432560BE
:1033000001334FE70025DAE70125D8E70225D6E7A4
:103310000325D4E7000401400004004800100240E7
:103320000369194214BF0120002070470AB181616E
:10333000704781627047436901EA030221EA030191
:1033400041EA024181617047044A5169014208B56E
:1033500002D05061FEF788F808BD00BF00040140AC
:1033600003689A69910744BF00229A629A69D2075A
:103370005EBF9A6942F001029A61704730B5039DC1
:1033800004682B4343EA0243064A6068C1F309011B
:103390000B4342EA555223F0004320EA0200034364
:1033A000636030BDFF63FF0311F0010307D090F8A5
:1033B000413003F02803282B0CBF4223F2238A0755
:1033C00009D590F8412002F02802282A0CBF43F0CA
:1033D000440343F0F4030A0401680A6848BF43F059
:1033E000B80322EA03030B60704703682DE9F0413C
:1033F0009C6914F0100405460F46164670D0102242
:103400000024DA61A0462B689A69920662D4B8F16A
:10341000000F36D044F0040401202B689A69D605C9
:1034200041BF4FF48071D96144F00104012051057E
:1034300041BF4FF4806144F00804D9610120920536
:1034400050D54FF4007244F00204DA612846FFF7C9
:1034500087FF2A68536823F0FF7323F48B3323F428
:10346000FF7323F0010353606B6C1C4320236C64D7
:1034700085F84130002385F8423085F8403001203E
:1034800032E07A1CC0D0FEF73FFC801BB84201D866
:10349000002FB8D12B68596895F84220986900042C
:1034A000D2B20AD5480408D4202A06D05A6842F479
:1034B00080425A60FEF728FC06462B689B699906F5
:1034C000A1D4FEF721FC801B1928F6D920244FF047
:1034D000010898E7B8F1000F9CD12022DA6199E742
:1034E00020469AE70028B1D1BDE8F08170B50446C6
:1034F0000D46164623689B699B0701D5002070BDC9
:10350000324629462046FFF770FFC0B96A1CF1D049
:10351000FEF7FAFB801BA84201D8002DEAD12368F0
:103520009B6913F00203E5D1626C84F8403042F0ED
:1035300020026264202284F8412084F84230012075
:10354000DDE72DE9F041069F0446884616461D46F4
:103550002268936938EA03030CBF01230023B342B6
:1035600001D000201EE06B1CF3D0FEF7CDFBC01B8A
:10357000A84201D8002DEBD123689B6938EA0303E8
:103580000CBF01230023B342E2D1636C43F020035C
:103590006364202384F84130002384F8423084F8A7
:1035A00040300120BDE8F08170B504460D46164656
:1035B00023689B699B0601D5002070BD32462946D1
:1035C0002046FFF712FFB0B9FEF79EFB801BA84212
:1035D00001D8002DECD123689B6913F02003E7D1BB
:1035E000626C84F8403042F020026264202284F849
:1035F000412084F842300120DFE710B5044600285E
:103600004AD090F8413003F0FF021BB980F8402007
:10361000FEF7B0F8242384F8413023681A6822F0BA
:1036200001021A60626822F070621A619A6822F4DC
:1036300000429A60D4E90221012924D142F40042D7
:103640009A605A6842F0007242F400425A60DA68A6
:1036500022F40042DA60D4E904210A43A16942EA73
:103660000122DA60D4E907210A431A601A6842F09D
:1036700001021A6000202023606484F84130206336
:1036800084F8420010BD42F4044202299A6004BF4B
:103690004FF400625A60D4E70120F3E72DE9F347C5
:1036A000984690F841300A9F202B04460E469146DA
:1036B00040F0868090F84030012B00F081804FF080
:1036C000010A80F840A0FEF71FFB19230546009071
:1036D00052464FF400412046FFF733FF18B1012056
:1036E00002B0BDE8F087212384F84130102384F82C
:1036F00042306064A4F82A80638DC4F824909BB2A1
:10370000FF2B60632F4B26D9FF22228500934FF0B9
:10371000807331462046FFF731FE638D9BB22A4607
:1037200039462046FBB9FFF73FFF0028D7D1236871
:103730002021D9615A6822F0FF7222F48B3222F4E0
:10374000FF7222F001025A6084F8411084F84000B0
:1037500084F84200C4E7628D009392B222854FF054
:103760000073D2B2D5E7FFF7C1FE0028B7D1636A74
:10377000226813F8011B91626362638D228D013B05
:103780009BB26385638D013A92B29BB22285002B76
:10379000C3D0002AC1D100953B4680212046FFF7C7
:1037A000D0FE00289BD1638D9BB2FF2B03D9FF2253
:1037B00022850090ABE7628D009092B22285CEE721
:1037C00002208DE7002000802DE9F04F85B01E46D5
:1037D0000023039390F84130202B0446914640F09B
:1037E000908003689B6913F4004340F08A8090F84E
:1037F0004020012A00F085800122C1F3090780F8EA
:10380000402047F0007A242280F841204AF4205AD0
:103810004364E3682268012B06BF47F0007343F45A
:10382000005353465360FEF76FFA804623689D6944
:103830009B69C5F34015C3F300131D4315D02368DE
:103840009A69CDF8008012F01002334626D120216B
:103850002046FFF776FEE8B922682023D3610546AB
:1038600084F8413084F8400014E0731CDED0FEF789
:103870004BFAA0EB0800B04201D8002ED6D120238D
:1038800084F84130636C43F020036364002384F8C0
:1038900040300125284605B0BDE8F08F00222021E8
:1038A0002046FFF74EFE0028F4D1236810224FF087
:1038B000200BDA61C3F81CB0039A4A4510D15A684C
:1038C00042F480425A6059460246CDF800803346A1
:1038D0002046FFF736FE0028DCD12368C3F81CB071
:1038E000039B01330393039B4B4592D3202384F81E
:1038F0004130636C43F020036364002384F840305C
:10390000C8E70225C6E70268436B9169126803B1F4
:10391000184770477047704708B503681A68002158
:1039200080F84210510415D51A6822F480421A60BA
:1039300090F84130292B13D1282380F841302123DE
:1039400003630121FFF730FD002380F84030FFF7CB
:10395000E1FF08BD1204EBD51A6822F40042E6E745
:1039600090F841302A2BF4D1282380F841302223CB
:1039700003630221FFF718FD002380F84030FFF7B2
:10398000CAFFE6E7704790F8412002F02802282A93
:10399000F8B5036834D19E69C2689D699968DF688B
:1039A0002D0C022AC6F3004605F0FE051FD185EA5C
:1039B000D11515F00605C1F309020ED1816C013154
:1039C0008164816C022907D108218564D96180F85E
:1039D00040503146FFF7D6FFF8BD4FF40041FFF7E6
:1039E000E3FC002380F8403007F0FE02F1E74FF4DB
:1039F0000041FFF7D9FC002380F840302A46E8E771
:103A00000822DA61002380F84030E5E770470000C3
:103A100008B5164BC362202200230363436380F87A
:103A2000412080F842304B0712D503685A6A436A36
:103A30001A70436A01334362038D4BB1013B038526
:103A4000438D013B9BB24385436C43F004034364C5
:103A500048F20301FFF7A8FC03681022DA61002393
:103A600080F84030FFF7D2FF08BD00BF0000FFFF25
:103A70007047704790F84120602A08B54FF0000267
:103A800008D1202180F8411080F840200263FFF720
:103A9000F0FF08BD026380F84020FFF7E9FFF8E778
:103AA00070B53E4A90F84130002580F84250C2621D
:103AB0004585426C283B1143022B044641642AD8B9
:103AC0000321FFF771FC282380F84130344BA06BB1
:103AD0006363236B002841D0112B01D0212B3DD1F2
:103AE00023681A68510442BF1A6822F480421A609F
:103AF000FFF74EFB01282CD0A06B2A4B4363002319
:103B000084F84030FFF7DDFA002845D0A06B436B06
:103B1000BDE87040184748F20301FFF745FCFFF786
:103B20001FFC90F84130602B11D0202380F84130E9
:103B300003689A6995060AD59A69D00605D51022B8
:103B4000DA61626C42F0040262642022DA610023CE
:103B5000BDE72046BDE87040FFF78CBFE06B002852
:103B6000F7D0122B01D0222BF3D123681A6812044C
:103B700042BF1A6822F400421A60FFF709FB0128CD
:103B8000E7D0E06B074B4363002384F84030FFF736
:103B900098FA08B1E06BBAE770BD00BF0000FFFF04
:103BA000D13C0008433E0008F8B503681F6890F850
:103BB000415005F0F7052022212D04460E46DA611A
:103BC00051D148F20101FFF7EFFB256323685A68E2
:103BD00042F400425A605A6822F0FF7222F48B329B
:103BE00022F4FF7222F001025A602046FFF7B8FB70
:103BF00079043DD52268136823F480431360A36BD6
:103C00001BB11B685B689BB26385730710D5236883
:103C10005A6A636A1A70636A01336362238D26F0FD
:103C200004062BB1013B2385638D013B9BB2638569
:103C3000638D9BB21BB1636C43F004036364002388
:103C400084F84230656C6363DDB1616C2046FFF738
:103C500027FF94F84130282B25D131462046BDE876
:103C6000F840FFF7D5BE222DB0D148F20201AAE7F5
:103C70003A04CAD52268136823F400431360E36B47
:103C8000BEE7E36A13F5803F0ED02046FFF744FEFF
:103C90000E4BE362202384F8413084F840502563C2
:103CA0002046FFF7B3FEF8BD94F8413084F8405049
:103CB000222B4FF0200384F841302046256302D1A7
:103CC000FFF729FEEFE7FFF725FEECE70000FFFF17
:103CD000F8B590F84030C76A012B04460D461646E9
:103CE0007DD001238A0680F8403003D5B30601D584
:103CF000FFF75AFFE80633D5F10631D5638D9BB245
:103D0000FBB994F84130282B0AD1B7F1007F07D1D5
:103D100029462046FFF77CFE002084F84000F8BDCD
:103D200094F841202368292A4FF01002DA61F3D178
:103D300017F5803FF0D02046FFF712FBFFF7ECFDB0
:103D4000EAE723681022DA61636C43F004036364DA
:103D500037F08073E0D1616C2046FFF7A1FEDBE70E
:103D60006A071BD5730719D5638D9BB26BB12368A6
:103D70005A6A636A1A70636A01336362238D013B76
:103D80002385638D013B9BB26385638D9BB2002BC2
:103D9000C2D117F5803FBFD02046CFE7280705D511
:103DA000310703D52046FFF7EEFDB5E7AA07B3D5E7
:103DB000B307B1D5638D9BB26BB1636A226813F808
:103DC000011B91626362638D013B9BB26385238D0E
:103DD000013B2385A0E737F08073DDD09CE702200C
:103DE0009DE7036899691A6810B4CC0508D51406D4
:103DF00006D5446C44F0010444644FF48074DC61E3
:103E00004C0508D5140606D5446C44F008044464F7
:103E10004FF48064DC61890508D5120606D5426C32
:103E200042F0020242644FF40072DA61416C11F018
:103E30000B0F03D05DF8044BFFF732BE5DF8044B67
:103E40007047406A836B0BB100225A63C36B0BB19E
:103E500000225A63FFF70EBE10B590F84130202BB8
:103E6000DCB21DD190F84030012B19D0242380F80A
:103E7000413003681A6822F001021A601A6822F4BD
:103E800080521A601A68114319601A6842F00102E0
:103E90001A60002380F8414080F84030184610BD79
:103EA0000220FCE710B590F84130202BDCB21CD189
:103EB00090F84030012B18D0242380F8413003685B
:103EC0001A6822F001021A601A6822F4706242EA4B
:103ED000012119601A6842F001021A60002380F87B
:103EE000414080F84030184610BD0220FCE7000039
:103EF0002DE9F7430546002835D00368DA0711D4C9
:103F00002B689B0700F188802B681C0700F1F88064
:103F10002B68580700F14681E869002840F0D481F9
:103F200000204BE09D4C636803F00C03042B07D08A
:103F3000636803F00C03082B17D16368DF0314D503
:103F40004FF4003393FAA3F2216893FAA3F3B3FA80
:103F500083F303F01F03012202FA03F30B42CFD0D5
:103F60006B68002BCCD1012028E06A68B2F5803F55
:103F700027D1236843F480332360E36AA96823F0E0
:103F80000F030B43E36262B3FDF7BEFE4FF400374D
:103F900006464FF0010897FAA7F3226897FAA7F3AD
:103FA000B3FA83F303F01F0308FA03F31342A7D114
:103FB000FDF7AAFE831B642BEDD9032003B0BDE8F7
:103FC000F083236832B923F480332360236823F419
:103FD0008023D1E7B2F5A02FF5D143F480232360ED
:103FE000C7E7FDF791FE4FF4003706464FF0010892
:103FF00097FAA7F3226897FAA7F3B3FA83F303F0CB
:104000001F0308FA03F313423FF47AAFFDF77CFE77
:10401000831B642BECD9D0E7604C636813F00C0F62
:1040200007D0636803F00C03082B21D16368DE031B
:104030001ED4022393FAA3F2216893FAA3F3B3FAEE
:1040400083F303F01F03012202FA03F30B4202D0B1
:104050002B69934287D12168F82393FAA3F3B3FA2B
:1040600083F26B69934021F0F802134323604BE71E
:104070002A6901260AB396FAA6F3B3FA83F303F189
:10408000845303F584139B004FF002081E60FDF774
:104090003BFE074698FAA8F3226898FAA8F3B3FA09
:1040A00083F303F01F0306FA03F31342D3D1FDF7A2
:1040B0002BFEC31B022BEDD97FE796FAA6F3B3FACA
:1040C00083F303F1845303F584139B004FF002083C
:1040D0001A60FDF719FE074698FAA8F3226898FAC5
:1040E000A8F3B3FA83F303F01F0306FA03F31342B2
:1040F0003FF40AAFFDF708FEC31B022BECD95CE7C7
:10410000AA69264E264901241AB394FAA4F3B3FAF5
:1041100083F30B449B0002271C60FDF7F5FD8046EE
:1041200097FAA7F397FAA7F397FAA7F3726A97FAA1
:10413000A7F3B3FA83F303F01F0304FA03F3134264
:104140007FF4E6AEFDF7E0FDA0EB0803022BE7D914
:1041500033E794FAA4F3B3FA83F30B449B000227EA
:104160001A60FDF7D1FD804697FAA7F397FAA7F3F7
:1041700097FAA7F3726A97FAA7F3B3FA83F303F0F7
:104180001F0304FA03F313423FF4C2AEFDF7BCFD74
:10419000A0EB0803022BE7D90FE700BF0010024095
:1041A00020819010914CE369D90033D4E36943F046
:1041B0008053E361E36903F080530193019B01267F
:1041C0008B4F3B68DA0527D5EB68012B35D1236A85
:1041D00043F001032362FDF797FD022780464FF06D
:1041E000010997FAA7F397FAA7F3002B64D0226A84
:1041F00097FAA7F3B3FA83F303F01F0309FA03F363
:10420000134250D0002E3FF487AEE36923F0805371
:10421000E36181E60026D3E73B6843F480733B60AB
:10422000FDF772FD80463B68DB05CDD4FDF76CFDE4
:10423000A0EB08006428F6D9BFE633BB236A23F05D
:1042400001032362236A23F004032362FDF75CFD6C
:10425000022780464FF0010997FAA7F397FAA7F3D0
:1042600073B3226A97FAA7F3B3FA83F303F01F0339
:1042700009FA03F31342C5D0FDF746FD41F2883336
:10428000A0EB08009842E7D997E6052B236A03D1F3
:1042900043F0040323629AE723F001032362236AB5
:1042A00023F0040396E7FDF72FFD41F28833A0EBDE
:1042B0000800984295D980E697FAA7F3626A97E7D3
:1042C00097FAA7F3626ACDE7484C636803F00C03E2
:1042D000082B7AD002284FF0807351D193FAA3F3C0
:1042E000B3FA83F303F1845303F584139B00002294
:1042F0001A60FDF709FD4FF000780746012698FA8D
:10430000A8F3226898FAA8F3B3FA83F303F01F0323
:1043100006FA03F313422DD1D5E9081362680B4363
:1043200022F47412134363604FF0807393FAA3F383
:10433000B3FA83F303F1845303F584139B0001273D
:104340001E60FDF7E1FC4FF00076054696FAA6F3F5
:10435000226896FAA6F3B3FA83F303F01F0307FA71
:1043600003F313427FF4DCADFDF7CEFC401B0228C3
:10437000ECD922E6FDF7C8FCC31B022BBFD91CE613
:1043800093FAA3F3B3FA83F303F1845303F584138D
:104390009B0000221A60FDF7B7FC4FF0007605463F
:1043A000012796FAA6F3226896FAA6F3B3FA83F3E6
:1043B00003F01F0307FA03F313423FF4B1ADFDF717
:1043C000A3FC401B0228ECD9F7E501283FF4F6AD29
:1043D00063682A6A03F4803191427FF4C4AD6A6A4B
:1043E00003F4701393423FF49BADBCE50010024010
:1043F0000070004010B5134C616801F00C03082BED
:104400001ED14FF4701393FAA3F301F47012B3FAB0
:1044100083F322FA03F30C4AD05CE36A0F2292FA88
:10442000A2F2B2FA82F203F00F03D340074AD25C41
:10443000CB034ABF064B074BB3FBF2F3584310BD07
:104440000348FCE700100240036C0008136C0008EE
:1044500000127A0000093D002DE9F0410D460446A6
:1044600010B90120BDE8F0814C4A136803F007033E
:104470008B422ED32268910736D4D2073CD4474AC8
:10448000136803F00703AB4274D82268444D12F05E
:10449000040F7BD1130706D56B68226923F46053A0
:1044A00043EAC2036B60FFF7A5FF6B68F02292FA44
:1044B000A2F2B2FA82F203F0F003D340394AD35C9D
:1044C000D840394B1860394B1868FDF7DBFB0020EA
:1044D000C8E7136823F007030B431360136803F066
:1044E00007038B42BDD1C5E72D49A0684B6823F077
:1044F000F00303434B60C0E76268294E012A26D1CE
:104500004FF4003393FAA3F1316893FAA3F3B3FAAB
:1045100083F303F01F0302FA03F30B42A1D0736885
:1045200023F003031A437260FDF7EEFB41F2883873
:1045300007467368626803F00C03B3EB820F9ED0EA
:10454000FDF7E2FBC01B4045F3D903208AE7022AAE
:104550000CBF4FF00073022393FAA3F1306893FA73
:10456000A3F3B3FA83F303F01F03012101FA03F36A
:104570000342D3E7136823F007032B431360136848
:1045800003F00703AB427FF46CAF7EE76B68E16832
:1045900023F4E0630B436B607CE700BF0020024024
:1045A00000100240EB6B00080C00002014000020FB
:1045B000084B4FF4E0625B6892FAA2F2B2FA82F220
:1045C00003F4E063D340044AD35C044A1068D84043
:1045D000704700BF00100240FB6B00080C00002079
:1045E000084B4FF460525B6892FAA2F2B2FA82F280
:1045F00003F46053D340044AD35C044A1068D840A3
:10460000704700BF00100240FB6B00080C00002048
:1046100003682DE9F743DD03044623D57C4DEB69A0
:10462000D80000F19A80EB6943F08053EB61EB69AD
:1046300003F080530193019B0126764F3B68D90517
:1046400040F18D802B6A13F4407340F09D802B6AFB
:10465000626823F4407313432B621EB1EB6923F0AD
:104660008053EB612368DF0706D56949A0680A6BB0
:1046700022F0030202430A639E0706D56449E068FC
:104680000A6B22F4403202430A635D0706D5604993
:1046900020690A6B22F4402202430A63980606D579
:1046A0005B49E0690A6B22F0100202430A63990336
:1046B00006D55749A06B4A6822F4800202434A603B
:1046C0005A0606D55249206A0A6B22F0200202439C
:1046D0000A631F0706D54E4960690A6B22F440122F
:1046E00002430A63DE0606D54949A0690A6B22F433
:1046F000400202430A639D0506D54549E06A4A68BF
:1047000022F4000202434A60180606D54049606A56
:10471000CA6A22F4F8720243CA62D90506D53C4936
:10472000A06ACA6A22F478520243CA62DA0406D541
:104730003749206B0A6B22F4807202430A6313F438
:1047400000531FBF324A616B136B23F400731DBF0C
:104750000B4313630020184613E000266DE73B6807
:1047600043F480733B60FDF7CFFA80463B68DA057F
:104770003FF568AFFDF7C8FAA0EB08006428F5D94B
:10478000032003B0BDE8F083626802F440729A42ED
:104790003FF45DAF296A4FF4803321F4407093FAFF
:1047A000A3F2DFF874C0B2FA82F2624492000127E9
:1047B000176093FAA3F3B3FA83F363449B000022D8
:1047C0001A60CB0728627FF542AFFDF79DFA4FF0E4
:1047D0000208814698FAA8F398FAA8F3A3B12A6AC6
:1047E00098FAA8F3B3FA83F303F01F0307FA03F36D
:1047F00013427FF42CAFFDF787FA41F28833A0EB28
:1048000009009842E6D9BBE798FAA8F36A6AE7E795
:1048100000100240007000400081901038B503681D
:10482000094ADA600446FDF76FFA05462368DB683B
:104830009B0601D5002038BDFDF766FA401BB0F598
:104840007A7FF3D90320F6E75FFF0100F8B503682C
:10485000DC6814F04004054617D1DA6842F08002A3
:10486000DA60FDF751FA042706462B68DB685B0621
:1048700000D40CB12046F8BDFDF746FA801BB0F518
:104880007A7F84BF6F770124EFE70024F2E70368A3
:10489000DA6822F0800210B5DA609B689B06044655
:1048A00001D5002010BDFFF7B9FF0028F9D004237F
:1048B00063770120F6E710B50446002841D0437F16
:1048C00003F0FF0213B90277FCF79AFF0223637724
:1048D0002368DA68D20603D501236377002010BD70
:1048E000CA225A6253225A622046FFF7AFFF10BB1A
:1048F000236820699A6822F4E00222F040029A605C
:10490000626899680243606902430A439A60E268F8
:104910001A611A69A16842EA01421A612046FFF74A
:10492000B6FF40B92368A1691A6C22F480221A6488
:104930001A6C0A431A642368FF225A620028CBD0FB
:10494000CDE70120CBE70023092803D840EA031074
:10495000C0B270470A380133C0B2F5E72DE9F04123
:10496000037F012B06460F464FF0020042D0012381
:1049700033777077316838787D7897F80280002A2D
:104980003AD18A6812F0400208BFFA70FFF7DBFFE5
:1049900002462846FFF7D7FF04464046FFF7D3FFFD
:1049A000FD7840EA855545EA024242EA0424CA23DA
:1049B0004B6253234B623046FFF748FFA8B9326879
:1049C00004F07F3424F0FE441460936823F48023C1
:1049D0009360D7E90330916803430B4393603046FB
:1049E000FFF755FF08B9012373773368FF225A6236
:1049F00000233377BDE8F0818A6812F0400208BFD7
:104A0000FA702D02FC7845EA004545EA080343EABE
:104A10008454CCE72DE9F041037F012B06464FF08B
:104A200002033BD00120307773770D78C8784C783B
:104A300091F802806D039ABBE30603D524F01004BD
:104A40000A344C70FFF77FFF07464878FFF77BFF7B
:104A500004464046FFF777FF40EA050242EA074571
:104A600045EA04243368CA225A6253225A62304605
:104A7000FFF7ECFE58B9326824F07F4424F0C004FC
:104A800054603046FFF703FF08B90123737733689A
:104A9000FF225A6200233377BDE8F0811846FBE716
:104AA00045EA004545EA080343EA0424DAE7030936
:104AB00003EB830300F00F0000EB4300C0B270472C
:104AC00038B50368986A486018691B68C0F30E001F
:104AD000C3F3062503F07F048860C3F30540C3F3E6
:104AE000805308704D708C70CB7052B9FFF7DFFFA8
:104AF00008702846FFF7DBFF48702046FFF7D7FF16
:104B00008870002038BD38B503685B68C3F3074080
:104B1000C3F3042503F03F04C3F34233C8704D7060
:104B20008C700B7052B9FFF7C2FFC8702846FFF7B0
:104B3000BEFF48702046FFF7BAFF8870002038BDDE
:104B4000036A23F001030362036A70B54468826953
:104B50000D6822F4803222F073022A438D6823F01C
:104B600002032B431B4DA8420FD005F50065A84258
:104B70000BD005F54065A84207D005F58065A84231
:104B800003D005F58065A8421ED1CD6823F0080347
:104B90002B43104DA84223F004030FD005F5006508
:104BA000A8420BD005F54065A84207D005F5806501
:104BB000A84203D005F58065A84205D124F44075CC
:104BC000D1E9054634432C43446082614A6842631C
:104BD000036270BD002C0140036A23F480730362FA
:104BE000036A70B54468C2690D6822F4803222F00D
:104BF00073022A438D6823F4007343EA0523164D9C
:104C0000A84203D005F50065A8420DD1CD6823F474
:104C1000006343EA0523104DA84223F480630ED0BD
:104C200005F50065A8420AD00C4DA84207D005F54D
:104C30008065A84203D005F58065A84206D124F41A
:104C40004055D1E90546344345EA04144460C26145
:104C50004A68C263036270BD002C014000400140FD
:104C6000036A23F480530362036A30B54468C2695F
:104C70000D6822F0807222F4E64242EA05228D6835
:104C800023F4005343EA05330E4DA8420FD005F537
:104C90000065A8420BD005F54065A84207D005F590
:104CA0008065A84203D005F58065A84204D14D690E
:104CB00024F4804444EA85144460C2614A68026472
:104CC000036230BD002C0140036A23F48033036289
:104CD000036A30B54468426D0D6822F4803222F0D8
:104CE00070022A438D6823F4003343EA05430F4DD5
:104CF000A8420FD005F50065A8420BD005F5406528
:104D0000A84207D005F58065A84203D005F5806567
:104D1000A84204D14D6924F4803444EA0524446057
:104D200042654A688265036230BD00BF002C0140C5
:104D3000036A23F480130362036A30B54468426D4A
:104D40000D6822F0807222F4E04242EA05228D686A
:104D500023F4001343EA05530E4DA8420FD005F586
:104D60000065A8420BD005F54065A84207D005F5BF
:104D70008065A84203D005F58065A84204D14D693D
:104D800024F4802444EA8524446042654A68C2656C
:104D9000036230BD002C014070477047082910D0D5
:104DA00004D841B1042909D0002070470C29FBD157
:104DB0000368186C70470368586B70470368986BFA
:104DC00070470368D86B70477047704770477047EB
:104DD00003681A69910710B504460FD5DA6892077F
:104DE0000CD56FF002021A61012202779B699907C4
:104DF00000F08580FCF7AEFA0023237723681A6958
:104E0000520710D5DA6850070DD56FF004021A6109
:104E1000022222779B6913F4407F204675D0FCF76D
:104E200099FA0023237723681A6911070FD5DA68E6
:104E300012070CD56FF008021A6104222277DB6991
:104E40009B07204667D0FCF785FA00232377236869
:104E50001A69D00610D5DA68D1060DD56FF01002A8
:104E60001A6108222277DB6913F4407F204658D06C
:104E7000FCF770FA0023237723681A69D20708D554
:104E8000DA68D00705D56FF001021A612046FFF7F6
:104E90009BFF23681A69110608D5DA68120605D542
:104EA0006FF080021A61204600F00DFE23681A6937
:104EB000D00508D5DA68110605D56FF480721A613D
:104EC000204600F001FE23681A69520608D5DA6808
:104ED000500605D56FF040021A612046FFF777FFB4
:104EE00023681A69910622D5DA6892061FD56FF0F9
:104EF000200220461A61BDE8104000F0E3BDFFF734
:104F000064FF2046FFF762FF76E7FFF75EFF20466B
:104F1000FFF75CFF85E7FFF758FF2046FFF756FFD6
:104F200093E7FFF752FF2046FFF750FFA2E710BDBF
:104F30002C4A036890420ED0B0F1804F0BD0A2F5FE
:104F40009432904207D002F58062904203D002F57D
:104F50009632904215D14A6823F070031343214AD8
:104F6000904219D0B0F1804F16D0A2F59432904201
:104F700012D002F5806290420ED002F59632904235
:104F80000AD0194A904207D002F58062904203D0BD
:104F900002F58062904203D1CA6823F44073134340
:104FA0004A6923F08003134303608B68C3620B6874
:104FB00083620C4B98420FD003F5006398420BD0EC
:104FC00003F54063984207D003F58063984203D00D
:104FD00003F58063984201D10B69036301234361A8
:104FE000704700BF002C01400040014010B504464E
:104FF00050B390F83D3003F0FF021BB980F83C201D
:10500000FCF712FC0223206884F83D30211DFFF7D5
:105010008FFF012384F84830002084F83E3084F864
:105020003F3084F8403084F8413084F8423084F8CE
:10503000433084F8443084F8453084F8463084F8AE
:10504000473084F83D3010BD0120FCE710B5044620
:1050500050B390F83D3003F0FF021BB980F83C20BC
:10506000FFF79AFE0223206884F83D30211DFFF7E8
:105070005FFF012384F84830002084F83E3084F834
:105080003F3084F8403084F8413084F8423084F86E
:10509000433084F8443084F8453084F8463084F84E
:1050A000473084F83D3010BD0120FCE710B50446C0
:1050B00050B390F83D3003F0FF021BB980F83C205C
:1050C000FFF76BFE0223206884F83D30211DFFF7B7
:1050D0002FFF012384F84830002084F83E3084F804
:1050E0003F3084F8403084F8413084F8423084F80E
:1050F000433084F8443084F8453084F8463084F8EE
:10510000473084F83D3010BD0120FCE7036A23F0EE
:1051100010030362036A70B5446882690D6822F067
:10512000807222F4E64242EA05228D6823F02003D1
:1051300043EA0513164DA84203D005F50065A842C1
:105140000DD1CD6823F0800343EA0513104DA8422A
:1051500023F040030ED005F50065A8420AD00D4D9E
:10516000A84207D005F58065A84203D005F5806503
:10517000A84206D124F44065D1E90546344345EA06
:105180008404446082614A688263036270BD00BF28
:10519000002C01400040014070B590F83C30012BDC
:1051A000054679D001200C2A85F83C0052D008D859
:1051B000042A2DD0082A3CD0C2B1002385F83C3007
:1051C00070BD102A57D0142AF7D12868FFF7B0FD18
:1051D0002B6809695A6D42F400625A655A6D22F4CF
:1051E00080625A655A6D42EA012253E02868FFF74F
:1051F000A7FC2B6809699A6942F008029A619A69CA
:1052000022F004029A619A690A439A610020D4E765
:105210002868FFF77BFF2B6809699A6942F40062EE
:105220009A619A6922F480629A619A6942EA01223B
:10523000EBE72868FFF7D0FC2B680969DA6942F0D0
:105240000802DA61DA6922F00402DA61DA690A43F3
:10525000DA61DBE72868FFF703FD2B680969DA6983
:1052600042F40062DA61DA6922F48062DA61DA69B2
:1052700042EA0122ECE72868FFF726FD2B6809695E
:105280005A6D42F008025A655A6D22F004025A65BE
:105290005A6D0A435A65B9E7022091E770B5046A6E
:1052A000164E24F001040462B0428469056A21D0DC
:1052B000B0F1804F1ED0A6F59436B0421AD006F554
:1052C0008066B04216D006F59636B04212D006F58A
:1052D0004066B0420ED044F001021B01DBB222F066
:1052E000F0021A4301F00A0125F00A031943826112
:1052F000016270BD24F003042243EEE7002C01405C
:10530000F8B590F83C30012B05460C4600F089803A
:10531000012085F83C009AB9CB682868D1E90012D1
:10532000FFF7BCFF2B68A1689A6922F00C029A6112
:105330009A690A439A610020002385F83C30F8BD41
:10534000042A23D12B681E6A26F01006D1E9002713
:10535000C9681E6298691E6A20F4407040EA0720FE
:10536000090320F4704089B21201014302F0A00247
:1053700026F0A000024399611A629A69A16822F49A
:1053800040629A619A6942EA0122D3E7082A22D14F
:105390002B681E6A26F48076D1E90020C9681E6257
:1053A000DF691E6A27F003073843090120F0F00087
:1053B000C9B21202014302F4206226F420600243C3
:1053C000D9611A62DA69A16822F00C02DA61DA693D
:1053D0000A43DA61AFE70C2AAED12B681E6A26F4C5
:1053E0008056D1E90027C9681E62D8691E6A20F478
:1053F000407040EA0720090320F4704089B212038C
:10540000014302F4204226F420400243D9611A628B
:10541000DA69A16822F44062DA61DA6942EA0122BB
:10542000D7E702208BE710B58468114324F47F444A
:1054300041EA03232343836010BD000070B590F858
:105440003C30012B04464FF0020300F08F80012214
:1054500080F83D3080F83C200068454B85682B4043
:1054600083600B68602B52D033D8402B67D016D89E
:10547000202B0DD00AD833F0100109D0012384F875
:105480003D30002384F83C30104670BD302BF5D100
:10549000826822F07002134343F0070317E0502B99
:1054A000ECD14A68CE68016A056A25F001050562FB
:1054B000836921F00A0123F0F00343EA06130A434B
:1054C00083610262836823F0700343F057038360B3
:1054D00011E0B3F5805F0ED0B3F5005F0DD0702BF7
:1054E000CCD1CB68D1E90121FFF79DFF22689368F9
:1054F00043F0770393600022C0E7CB68D1E9012134
:10550000FFF791FF2268936843F48043F2E74D6808
:10551000CE68016A21F0100101628269036A22F4F7
:10552000704223F0A00343EA051342EA0632826187
:105530000362836823F0700343F06703C7E74A6898
:10554000CE68016A056A25F001050562836921F0CC
:105550000A0123F0F00343EA06130A43836102625F
:10556000836823F0700343F04703B0E71A468BE7E4
:105570008800FEFF036A01F01F0110B501248C4072
:1055800023EA04030362036A8A401A43026210BDDD
:1055900010B5044629B990F83E30012B27D00120E0
:1055A00049E0042907D190F83F30012BF7D10223BD
:1055B00080F83F301EE008290DD190F84030013BC3
:1055C00018BF0123002BEAD108294FF0020333D181
:1055D00084F840300EE00C2902D190F84130EEE71B
:1055E00010290CBF90F8423090F84330E7E70223CF
:1055F00080F83E3001222068FFF7BCFF2368244A70
:10560000934225D002F50062934221D002F5406218
:1056100093421DD002F58062934219D002F5806258
:10562000934215D0B3F1804F1AD19968194A0A40B4
:10563000062A29D1002010BD0C2902D184F841305E
:10564000D8E710290CBF84F8423084F84330D1E702
:105650005A6C42F400425A640D4A9342E2D1E4E7A4
:105660000D4A9342E1D002F580629342DDD002F50B
:1056700096329342D9D002F540629342D5D01A684F
:1056800042F001021A60D5E7B2F5803FF7D1D1E7C9
:10569000002C01400700010000040040FFF778BF24
:1056A00038B50446002200680D46FFF763FF236803
:1056B000254A93420FD002F5006293420BD002F5C7
:1056C0004062934207D002F58062934203D002F514
:1056D000806293420DD1196A41F21112114208D130
:1056E000196A40F24442114202BF5A6C22F400424D
:1056F0005A64196A41F21112114208D1196A40F232
:105700004442114202BF1A6822F001021A600123CA
:105710001DB984F83E30002038BD042D02D184F834
:105720003F30F8E7082D02D184F84030F3E70C2D24
:1057300002D184F84130EEE7102D0CBF84F84230DE
:1057400084F84330E7E700BF002C0140FFF7A8BF13
:1057500010B5044600293ED190F83E0094F844303C
:10576000C0B20128DBB274D1012B33D1022300294E
:1057700050D1226884F83E3084F84430D36843F036
:105780000203D36020680122FFF7F4FE2368384A41
:10579000934212D0B3F1804F0FD0A2F594329342CE
:1057A0000BD002F58062934207D002F59632934205
:1057B00003D002F54062934207D199682D4A0A400E
:1057C000062A06D0B2F5803F03D01A6842F00102E3
:1057D0001A60002010BD042905D190F83F0094F80C
:1057E0004530C0B2BDE7082905D190F8400094F8D3
:1057F0004630C0B2B5E70C2905D190F8410094F8C5
:105800004730C0B2ADE710290CBF90F8420094F8C1
:105810004300F4E7042908D1226884F83F3084F873
:105820004530D36843F00403ABE7082908D1226868
:1058300084F8403084F84630D36843F00803A0E78A
:105840000C2908D184F8413002230C2984F8473010
:1058500008D00120BEE710290CBF84F8423084F83C
:105860004330F1E72268D36843F0100389E700BFB3
:10587000002C014007000100036A01F01F0110B570
:1058800004248C4023EA04030362036A8A401A4317
:10589000026210BD10B5044629B990F84430012BBE
:1058A0001DD0012010BD042907D190F84530012BEF
:1058B000F7D1022380F8453014E0082907D190F889
:1058C0004630012BEDD1022380F846300AE090F8F3
:1058D0004730012BE5D1022380F8473002E0022354
:1058E00080F8443004222068FFF7C6FF23685A6C12
:1058F00042F400425A64124A934212D0B3F1804FEC
:105900000FD0A2F5943293420BD002F580629342FD
:1059100007D002F59632934203D002F540629342DB
:1059200007D19968074A0A40062A06D0B2F5803F97
:1059300003D01A6842F001021A600020B2E700BFEB
:10594000002C01400700010038B504460022006821
:105950000D46FFF791FF2368196A41F211121142B7
:1059600008D1196A40F24442114202BF5A6C22F433
:1059700000425A64196A41F21112114208D1196A9F
:1059800040F24442114202BF1A6822F001021A603A
:1059900001231DB984F84430002038BD042D02D104
:1059A00084F84530F8E7082D0CBF84F8463084F8B9
:1059B0004730F1E7FFF76EBFFFF7C6BF30B590F88D
:1059C0003C30012B4FF0020335D080F83D301B4DA9
:1059D0000368AB425A689C6803D005F50065AB428A
:1059E00003D14D6822F470022A430D6822F0700240
:1059F0002A435A60114A934212D0B3F1804F0FD01C
:105A0000A2F5943293420BD002F58062934207D004
:105A100002F59632934203D002F54062934204D1DC
:105A2000896824F080020A439A60012380F83D309F
:105A3000002380F83C30184630BD00BF002C0140E8
:105A400010B590F83C30012B38D0CB688A681C4CDC
:105A500023F4407313434A6823F4806313430A68B2
:105A600023F4006313430A6923F4805313434A6900
:105A700023F4005313438A6A23F4804313438A694F
:105A800023F4702343EA02430268A24203D004F5E0
:105A90000064A2420CD14C6A23F4700343EA04531D
:105AA000CC69096A23F08073234323F000730B430E
:105AB0005364002380F83C30184610BD0220FCE7F8
:105AC000002C0140704770477047026852E8003F61
:105AD00023F4907342E8003102680029F5D102F105
