:020000040800F2
:1000000000A00020E91E0008BD1D0008BF1D00085B
:10001000C11D0008C31D0008C51D00080000000028
:10002000000000000000000000000000C71D0008E4
:10003000C91D000800000000CB1D0008CD1D0008F0
:10004000391F0008391F0008391F0008391F000830
:10005000391F0008D11D0008391F0008D31D0008F2
:10006000391F0008391F0008391F0008391F000810
:10007000391F0008391F0008391F0008391F000800
:10008000D91D0008E51D0008F11D0008391F0008F2
:10009000391F0008391F0008391F0008391F0008E0
:1000A0000D1E0008391F0008391F0008391F0008FD
:1000B000291E0008351E0008391F0008411E0008CF
:1000C0004D1E0008391F0008391F0008391F00089D
:1000D000391F0008391F0008591E0008391F000881
:1000E000651E0008391F0008391F00087D1E000822
:1000F000391F0008391F0008391F0008391F000880
:10010000000000000000000000000000391F00088F
:10011000391F0008391F0008391F0008391F00085F
:10012000891E0008391F0008391F0008391F000800
:10013000391F0008391F00080000000000000000FF
:10014000391F0008391F0008391F0008000000008F
:10015000000000000000000000000000000000009F
:100160000000000000000000391F0008391F0008CF
:10017000391F00080000000000000000000000001F
:0801800000000000391F000817
:1001900010B5054C237833B9044B13B10448AFF3C1
:1001A00000800123237010BD7C00002000000000AF
:1001B000F075000808B5034B1BB103490348AFF3C2
:1001C000008008BD0000000080000020F0750008DD
:1001D00001F0FF01102A2BDB10F0070F08D010F8F8
:1001E000013B013A8B422DD010F0070F42B3F6D1FC
:1001F000F0B441EA012141EA014122F007047FF015
:1002000000070023F0E80256083C85EA010586EA6B
:10021000010685FA47F5A3FA87F586FA47F6A5FAA7
:1002200087F68EB9EED1F0BC01F0FF0102F00702B3
:1002300032B110F8013B013A83EA010313B1F8D15E
:100240000020704701387047002D06BF354603383F
:10025000073815F0010F07D1013015F4807F02BF78
:10026000013015F4C03F0130F0BC0138704700BFC9
:1002700008B50B490B4A0B78127898180A2806DC47
:1002800009480131184406F03DFD012008BD074B27
:10029000002048600860C1F807001870F6E700BF4A
:1002A000A2000020AD00002098000020AF00002038
:1002B00003F03ABE0B4610B40B493BB90B4A0B7026
:1002C00013705DF8044B012203F0CCBD084A0C7892
:1002D00000231370074A0B70074914702144012250
:1002E0005DF8044B03F05CBDA2000020AF000020CD
:1002F000B1000020B00000209800002010B4084B8E
:10030000084C19780131C9B21970074B1B78194490
:1003100021444FF080735DF8044B012203F040BD8F
:10032000B100002098000020B000002038B50E4C2D
:1003300021780131C9B20A2921700CD811BF0B4DA7
:100340000B494FF0007301221EBF4FF08073012252
:10035000491903F087FD23780B2B03D1BDE8384002
:10036000FFF786BF38BD00BFAF000020A20000200D
:10037000AC00002010B5044604F0B7FA042815D1EB
:10038000124A137863B9124912480A780B70013A7D
:100390000270FFF76DFF2046BDE8104003F0C4BDBA
:1003A0000D49013B0B7000231370F4E70128F2D1D3
:1003B000204603F0A5FB204603F051FB074A00232B
:1003C00053601360C2F80730014AEDE7B100002026
:1003D000AF000020AD000020AE000020A2000020F1
:1003E0007FB50023CDE9033305930123CDE9003325
:1003F000694603230348029302F092FC07B05DF8BC
:1004000004FB00BF680100207FB50023CDE9033362
:1004100005930C220123CDE90023694603230348F9
:10042000029302F07DFC07B05DF804FB6801002038
:1004300038B50B4C0B4DFFF7D3FF002320466B80E4
:1004400001F0EEFF6421204602F0B2F8204602F0EF
:1004500037FA6880204602F08BF8688838BD00BF04
:1004600068010020B800002038B50B4C0B4DFFF799
:10047000CBFF002320462B8001F0D2FF64212046D1
:1004800002F096F8204602F01BFA2880204602F07F
:100490006FF8288838BD00BF68010020B800002030
:1004A0002DE9F047DFF8ECA0344EDFF8EC80DFF800
:1004B000EC90334F00255446B8F8003036F8022B44
:1004C000B9F800109BB291422AF8023B09D8092BD7
:1004D00007D901220A3B114638462AF8023C03F0AC
:1004E0000FF936F8023CB3F5A57F29D30021254842
:1004F00005F076FE0421234805F072FE0021224813
:1005000005F06EFE0021214805F06AFE00211D481D
:1005100005F09CFF04211B4805F098FF00211A48B4
:1005200005F094FF0021194805F090FF0A230122ED
:1005300023806380A380E3801146384603F0E0F80F
:100540003AF8023C092B08D936F8023C0A2B04D8A9
:1005500000220121384603F0D3F80135EDB2042D15
:10056000AAD1628823881344A2881344E2881344E2
:10057000074A9B101380BDE8F08700BFB800002039
:100580000014004808030020380400205403002011
:10059000F805002004000020F605002002000020DD
:1005A00030B5054685B00C4616484FF0FF330122A2
:1005B0004E2103F055FB0028F6D125F00F0323430D
:1005C00044EA051443F00C02E4B243F008038DF84A
:1005D0000D3044F00C038DF80E304FF0FF338DF8E2
:1005E0000C20009303AA04234E2144F0080405487C
:1005F0008DF80F4003F09EFA052001F0E7FC05B0EE
:1006000030BD00BF9002002030B5144B144C1B7855
:1006100041EA001185B041EAC301642541F00401BB
:100620000DF10F028DF80F1001234E210095204689
:1006300003F080FA012001F0C9FC9DF80F3000950D
:1006400023F004038DF80F300DF10F0201234E212A
:10065000204603F06FFA05B030BD00BF0000002057
:100660009002002010B5002104460009FFF7CCFFDE
:1006700004F00F000021013CFFF7C6FF012C04D855
:10068000BDE81040022001F0A1BC10BD10B5012151
:1006900004460009FFF7B8FF04F00F000121BDE890
:1006A0001040FFF7B1BF08B5322001F08FFC0021E8
:1006B0000320FFF7A9FF052001F088FC002103209B
:1006C000FFF7A2FF012001F081FC00210320FFF7CA
:1006D0009BFF012001F07AFC00210220FFF794FF2C
:1006E0002820FFF7BFFF0C20FFF7BCFF0620FFF715
:1006F000B9FF0120FFF7B6FFBDE80840022001F076
:1007000065BC10B5441E14F8010F00B910BDFFF709
:10071000BDFFF8E7831EDBB2022B9ABF044AD05C10
:100720008020084460F07F00C0B2FFF79BBF00BF8D
:100730007C76000808B50120FFF794FFBDE808406B
:10074000022001F043BC00000B4970B50B680B4C54
:100750000B4D54F823202E6844F82300821A0133ED
:100760001420324493FBF0F400FB14332A600B6036
:1007700092FBF0F070BD00BFE8050020940500205A
:100780001C06002010B51548154C202102F0B2FFC0
:1007900023781843C0B260B901221248022102F046
:1007A000AFFF114A01232370137801331370FFF751
:1007B000C1FF0A48202102F09DFF70B1237863B188
:1007C00000220848022102F09BFF074A1378022BFF
:1007D0004FF0000388BF1370237010BD0004004861
:1007E000EC05002000140048ED05002010B59EB077
:1007F0002022002106A806F093FA14220021684660
:1008000006F08EFA3C220DEB0200002106F088FA79
:100810000A23059310220123CDE909320B93022408
:100820004FF4601305A80C940E9304F0ABF808B1D4
:1008300072B6FEE70F23CDE900344FF48063CDE9B3
:10084000033002902146684604F050FB08B172B6AE
:10085000FEE70C4B0F934FF480724FF40053CDE939
:100860001100CDE91823CDE91B0016904FF4007359
:100870000FA8109304F016FC08B172B6FEE71EB084
:1008800010BD00BFA33101002DE9F04FB74DA5B059
:1008900001F078FBFFF7AAFF1422002119A806F047
:1008A0003FFA6B69B24843F400236B616B6903F450
:1008B00000230793079B6B6943F480036B616B69AB
:1008C00003F480030893089B6B6943F400336B6166
:1008D0006B6903F400330993099B6B6943F480232C
:1008E0006B616B6903F480230A9300224FF400418B
:1008F0000A9B02F005FF9F480022032102F000FF3F
:100900009D4800224FF4705102F0FAFE00224FF48D
:1009100080614FF09040002402F0F2FE4FF4441941
:100920004FF4C04392481B9419A90126CDE9193907
:1009300002F0A2FD4FF400438D4819A9CDE9193604
:100940000327CDE91B4402F097FD8A4819A94FF00F
:100950000208CDE91976CDE91B4402F08DFD19A9F5
:100960004FF09040CDE919891B9402F085FD4FF4BA
:100970007053814819A9CDE91936CDE91B4402F01D
:100980007BFD4FF4806319A94FF09040CDE91936F3
:10099000CDE91B4402F070FD202377481B9419A970
:1009A000CDE9193402F068FD22462146072002F005
:1009B000EFFB072002F01EFC22463946282002F0F9
:1009C000E7FB282002F016FC6B6933436B616B690F
:1009D00033400593059B6B6943EA08036B616B69C0
:1009E000664D03EA08032246214606931020069B23
:1009F00002F0CEFB102002F0FDFB22462146112022
:100A000002F0C6FB112002F0F5FB224621463820F9
:100A100002F0BEFB382002F0EDFB1822214619A897
:100A200006F07EF9564B85F82040C5E900344FF4B6
:100A300080734FF0050A4FF004092B832846C5E95F
:100A40000A64C5E90244C5F81CA085F830402E614F
:100A5000C5F814906C6301F0C7FB08B172B6FEE7ED
:100A6000CDE91B80CDE91D0019A92846CDE91966FD
:100A700002F056F908B172B6FEE719A92846CDE989
:100A8000198802F04DF908B172B6FEE719A9284697
:100A9000CDE9197702F044F908B172B6FEE719A959
:100AA0002846CDE9199902F03BF908B172B6FEE784
:100AB0000C2319A92846CDE9193A02F031F9044668
:100AC00008B172B6FEE7014610220EA806F028F91A
:100AD0001C22214612A8CDE90B440D9406F020F902
:100AE0002C22214619A806F01BF9264D264BAC6096
:100AF000C5E900344FF4FA63C5E90334284680237E
:100B00006C61AB6104F0BCFF08B172B6FEE74FF454
:100B100080530EA928460E9305F0DAF908B172B693
:100B2000FEE7284604F0DCFF08B172B6FEE7CDE927
:100B30000B000D900BA9284605F08AFC08B172B68F
:100B4000FEE700224FF060094FF47A7304260D4847
:100B5000189212A9CDE91293CDE91422CDE91662BB
:100B600005F064F890B172B6FEE700BF00100240D5
:100B70000008004800140048000400481801002044
:100B80000001005008030020002C0140AA48324612
:100B900012A905F04BF808B172B6FEE73223CDE991
:100BA0001C304FF40053CDE91E304FF00073CDE9F7
:100BB0001900CDE921301B902090239019A99E485F
:100BC00005F088FC054608B172B6FEE79A489B4CD2
:100BD00000F0CEFF1022294612A806F0A1F810223C
:100BE000294619A8CDE90E551095012706F098F869
:100BF0004FF08043C4E90037914BA5602046C4E91B
:100C00000335A56104F03CFF08B172B6FEE74FF46E
:100C1000805312A92046129305F05AF908B172B612
:100C2000FEE7204604F08CFF08B172B6FEE70E9096
:100C300010900EA9204605F00BFC024608B172B6D2
:100C4000FEE7CDE919071B900C2519A920461C9534
:100C500005F0A0F808B172B6FEE702231C903246F8
:100C600019A92046CDE9193305F094F8034608B1D7
:100C700072B6FEE77348DFF8F0814FF41652C0E910
:100C80000082C0E90233C0E90435C0E90633C0E997
:100C9000083305F0DEFF08B172B6FEE76A48DFF8F8
:100CA000CCE14FF41643C0E900E30C220023C0E975
:100CB0000233C0E90523C0E907330361436205F04D
:100CC000C8FF054608B172B6FEE7014610220EA81D
:100CD00006F026F81C22294612A8CDE90B550D95E1
:100CE00006F01EF82C22294619A806F019F8574CD0
:100CF000574BA560C4E900354FF4FA63C4E90335E6
:100D0000204680236561A36104F0BAFE08B172B683
:100D1000FEE74FF480530EA920460E9305F0D8F855
:100D200008B172B6FEE7204604F0DAFE08B172B6EA
:100D3000FEE7CDE90B000D900BA9204605F088FBDE
:100D4000024608B172B6FEE7CDE91400CDE91600FF
:100D50004FF0600C4FF47A73189012A92046CDE939
:100D600012C304F063FF08B172B6FEE73223CDE987
:100D70001C304FF40053CDE91E304FF00073CDE925
:100D80001900CDE921301B902090239019A920460D
:100D900005F0A0FB054608B172B6FEE7204600F05C
:100DA000E7FE2C4C2C4B2D4E2562C4E90063242712
:100DB00001232046C4E90273C4E90455C4E9065579
:100DC00002F04DFE014608B172B6FEE7204603F080
:100DD0008EFD014608B172B6FEE7204603F0ADFD78
:100DE00008B172B6FEE71422002119A805F098FF99
:100DF0001B4C1C4A00237F20C4E9002340F2371219
:100E0000C4E902022046C4E904331293A36104F04A
:100E10009CFA08B172B6FEE7CDE91C0009238DF8F3
:100E20006600012219A92046ADF8643004F0E0FA0A
:100E3000F0B172B6FEE700BF08030020A003002057
:100E40000090D003840400200C050020380400200A
:100E500000340140900200200E09002000540040A0
:100E6000E802002000280040003801400044004013
:100E7000012606238DF84B003246204612A98DF834
:100E800048608DF849308DF84A6004F00DFB044647
:100E900008B172B6FEE7014610220EA805F040FF29
:100EA0001C22214612A8CDE90B440D9405F038FF11
:100EB0002C22214619A805F033FF794D794BAC60FF
:100EC000C5E900344FF4FA63C5E9033428468023AA
:100ED0006C61AB6104F0D4FD08B172B6FEE74FF46B
:100EE00080530EA928460E9304F0F2FF08B172B6A3
:100EF000FEE7284604F0F4FD08B172B6FEE70B9059
:100F00000D900BA9284605F0A3FA024608B172B667
:100F1000FEE760214FF47A73CDE91213CDE9140096
:100F2000CDE91600189012A9284604F07FFE08B1FA
:100F300072B6FEE74FF40053CDE91900CDE91B006E
:100F4000CDE91E301D90239019A9284605F0C2FA5C
:100F5000044608B172B6FEE7284600F009FE1822E2
:100F6000214619A8CDE91244149405F0D9FE4E4843
:100F70004FF0A043C0E9003404830423C0E90A64AD
:100F8000C0E9024480F82040C66180F83040046126
:100F90004361446301F028F908B172B6FEE700230B
:100FA0004148129312A902F053F808B172B6FEE755
:100FB000CDE91D001C904FF004093B4801264FF07D
:100FC000020819A9CDE91996CDF86C8001F0A8FEA8
:100FD000044608B172B6FEE7344D1490CDE9120014
:100FE0000146182219A805F09BFE314B2C83284698
:100FF000C5E90A64C5E90034C5E90244C5E9044904
:1010000085F82040EE6185F830406C6301F0ECF823
:1010100008B172B6FEE7129012A9284602F018F83D
:1010200008B172B6FEE7CDE91B80CDE91D0019A914
:101030002846CDE9196601F073FE044608B172B680
:10104000FEE70146102219A805F06AFE194F1A4B57
:101050001494C7E900344FF6FF73C7E903343846E8
:101060008023CDE91244BC60BB6104F009FD08B1E6
:1010700072B6FEE74FF4805B19A93846CDF864B02C
:1010800004F026FF08B172B6FEE71290149012A980
:10109000384605F0DDF9074680B172B6FEE700BFBD
:1010A0005403002000400140C800002068010020D7
:1010B00000040050EC03002000040040C448C54C6C
:1010C000DFF890A33246314602F01AFB32464FF465
:1010D00080614FF0904002F013FBBF4B22885A63AF
:1010E00062889A63A288C3F8342803F50063E28813
:1010F000C3F8342C3946B94805F01AF84946B748C0
:1011000005F016F83946B64805F012F83946B548E4
:1011100005F00EF83946B44805F064F84946B2487F
:1011200005F060F8504632464FF4006102F0E8FAEC
:10113000504632464FF4806102F0E2FA50463246A1
:10114000594602F0DDFA324650464FF4005102F0A3
:10115000D7FA0521A54801F0B6FB4946A44801F09D
:10116000B2FB4146284601F0AEFBA24B64201E7044
:1011700000F02CFFDAF8003043F42023CAF80030E6
:10118000DAF8043043F44073CAF80430DAF80C306B
:1011900043F42023CAF80C30974B5A6942F480225A
:1011A0005A61DA6942F40012DA61DAF8243043F065
:1011B0004403CAF82430914BDFF89CA21A6842F429
:1011C00000421A601A6822F400421A60FFF76BFAB4
:1011D000FFF7B0FA3A467E48314602F091FA3946B6
:1011E0003020FFF7DDF940463946FFF7D9F9394697
:1011F0000C20FFF7D5F939463046FFF7D1F9DFF873
:10120000F0817C4B1B78012B5FFA83FBF9D17C4D7D
:1012100076487C4F01F016FBBAF80830AB804046A8
:1012200001F0FEF86421404601F0C2F90023EB8092
:10123000404601F045FBE880404601F099F9FFF790
:10124000F7F8FFF711F96A882888AB88B5F8069097
:1012500002938118194449446B4B03928E101E80EF
:101260006A4E31806A4E317801313170FFF76CFA85
:10127000039A38701046FFF767FA029B7870184699
:10128000FFF762FAB8704846FFF75EFADFF8CC91D4
:10129000F87099F80070002F3BD13378142B40F090
:1012A0002F815C4A5C491268029319A805F040FD41
:1012B00039465846FFF72EFA19A8FFF722FA574A7F
:1012C000029B12885649B2FBF3F319A805F030FDD2
:1012D00039460220FFF71EFA19A8FFF712FA4A4B07
:1012E00050491A8819A805F023FD39460320FFF755
:1012F00011FA19A8FFF705FA4B4B4C491A8819A89F
:1013000005F016FD04203946FFF704FA19A8FFF787
:10131000F8F999F800B0BBF1020F2FD13378142BF4
:1013200040F0EE80424F43480022394604F012F963
:1013300041494048002204F030F9404B404A1B78B4
:101340000093404B12781B783F4919A805F0F0FC38
:1013500000210120FFF7DEF919A8FFF7D2F9BB78C9
:1013600000937B783A78394919A805F0E1FC584692
:101370000021FFF7CFF919A8FFF7C3F999F80090FA
:10138000B9F1010F40F0BC803378122B40F083801C
:1013900023882F49142719A8B3FBF7F205F0C8FCDE
:1013A00000214846FFF7B6F919A8FFF7AAF96388A4
:1013B0002749B3FBF7F219A805F0BAFC0021022077
:1013C000FFF7A8F919A8FFF79CF9A38848E000BF28
:1013D0000014004804000020002C014008030020F5
:1013E0003804002054030020A0030020180100202E
:1013F000C8000020C6000020001002400054004039
:10140000B8000020B3000020C0000020C20000206F
:10141000B2000020FC05002008760008F805002036
:101420001C76000831760008C40000203F760008D2
:1014300004060020E8020020000600201806002014
:10144000E4020020E4050020497600084F760008F9
:101450006376000800040048B8010020ED05002074
:101460003449B3FBF7F219A805F062FC0021032010
:10147000FFF750F919A8FFF744F9E3882D49B3FBAA
:10148000F7F219A805F054FC04200021FFF742F9F7
:1014900019A8FFF736F93378B42B31D12A882649B9
:1014A00019A805F045FC0D210120FFF733F919A813
:1014B000FFF727F96A88204919A805F039FC0D21A2
:1014C0000220FFF727F919A8FFF71BF9AA881A4984
:1014D00019A805F02DFC0D210320FFF71BF919A811
:1014E000FFF70FF9EA88144919A805F021FC0D212E
:1014F0000420FFF70FF919A8FFF703F90023337051
:101500000E4A00231370FEF7CBFFFFF73BF90C4B9D
:1015100022885A6362889A63A288C3F8342803F544
:101520000063E288C3F8342C51460522054801F0D7
:10153000DFF866E66376000873760008C6000020D0
:10154000002C01401801002070B50668B6F1804FEC
:1015500005466AD1037F012B3AD1344B344800242D
:101560005C62214604F03CFE0421314804F038FE60
:101570002146304804F034FE21462F4804F030FE66
:10158000746221462D482E4E04F052F90421306039
:101590002A4804F04DF92B4B316818802A4B2B4A0E
:1015A000B2FBF1F21A602A4A2A4B2148B3FBF1F34D
:1015B0002146138004F048FF04211D4804F044FF35
:1015C00021461C4804F040FF1B48214604F03CFF24
:1015D0002B7F022B29D1154B1F4800245C624FF44E
:1015E000004102F092F82146114804F02FFF042137
:1015F0000F4804F02BFF21460E4804F027FF214638
:101600000D4804F023FF2146094804F091FD042110
:10161000074804F08DFD2146064804F089FD214667
:101620000548BDE8704004F083BD70BD0004004073
:10163000080300203804002054030020A0030020E9
:10164000F0050020F4050020FC05002000389C1C5B
:10165000C40000200048E80100080048B0F5005F21
:1016600073B504463FD13E484FF4004102F04DF8B7
:101670003B48214602F03EF8002832D1394C2388FD
:1016800023889BB2132B18D8374E3278AAB9374D1E
:1016900037480192294603F05DFF019A35493448E5
:1016A00003F07BFF344B2A781A70344B6A781A7037
:1016B000334BAA781A700123337023880A339BB204
:1016C0002380238840F2CE729BB2934284BF4FF4B2
:1016D000FA6323802B4B04221A702B4B4FF40052D9
:1016E0005A6102B070BDB0F5804FFAD101461C4876
:1016F00002F000F8012804D119484FF4004102F02B
:1017000004F817484FF4804101F0F4FF0028E8D1B5
:10171000144B1A8892B252B913490878012806D19D
:101720000A7015490A7015490A7015490A701A8815
:101730000A3A92B21A801A8840F6330192B28A426B
:1017400084BF00221A801A8892B2012A9CBF00220C
:101750001A800C4B04221A700B4B4FF48042BFE7E7
:1017600000080048F60500201906002004060020A5
:10177000E802002000060020E4020020E40500202A
:1017800018060020FA0500200004014000224FF452
:1017900080614FF0904001F0B3BF00000268034B3E
:1017A0009A4202BF024B01221A707047000100509A
:1017B000C600002072B6FEE70F4B07B59A6942F0EB
:1017C00001029A619A6902F001020092009ADA69B4
:1017D00042F08052DA61DB69002203F0805301930A
:1017E00011460520019B01F0D3FC052003B05DF8F4
:1017F00004EB01F0FFBC00BF0010024070B50546CD
:101800008CB01422002107A805F08AFA2B68B3F1E6
:10181000A04F2BD14D4A13680133012B13604C4B61
:1018200008D15A6942F080525A615A6902F08052D6
:101830000092009A5A6942F400325A615B6903F4DB
:10184000003301930821019B0323CDE907134FF0D7
:10185000904007A901F010FE00221220114601F06D
:1018600097FC122001F0C6FC0CB070BD394A9342BF
:101870004DD1364A13680133012B1360344B08D124
:101880005A6942F080525A615A6902F080520292BB
:10189000029A5A6942F400325A615A6902F40032DB
:1018A0000392039A5A6942F480225A615B6903F4F5
:1018B000802304930324049B07A9F0234FF0904056
:1018C0000026CDE9073401F0D7FD0423224809960C
:1018D00007A9CDE9073401F0CFFD204C204BA660CD
:1018E000C4E9003680224FF48073C4E903234FF427
:1018F0008063C4E9053620464FF48053E36101F06C
:10190000D1FC08B1FFF756FFAC636562A4E7154A46
:101910009342A9D10E4B10485A6942F000525A61C5
:101920005A6902F000520592059A5A6942F48022DF
:101930005A615B6903F480230693069B07A903237E
:10194000CDE9073301F098FD8EE700BF20060020A7
:10195000001002400001005000040048C4010020B3
:10196000080402400004005010B5044688B0142258
:10197000002103A805F0D4F922681A4B9A422FD10E
:10198000194C1A48636943F480236361636903F463
:10199000802301934FF44072019B1223CDE903236E
:1019A00003210423CDE9061303A901F065FDE369D2
:1019B00043F40013E361E369002203F400131146CA
:1019C00002931F20029B01F0E3FB1F2001F012FC99
:1019D00000222020114601F0DBFB202001F00AFC50
:1019E00008B010BD00540040001002400004004840
:1019F00008B502680D4B9A4216D10D4A0D48D369BD
:101A000023F40013D3614FF4807101F0F9FD09480C
:101A10004FF4007101F0F4FD1F2001F0F9FBBDE867
:101A20000840202001F0F4BB08BD00BF0054004076
:101A300000100240000400480268074B9A420AD195
:101A40004FF4004292FAA2F2044BB2FA82F213442B
:101A50009B0001221A60704700280040008190100E
:101A600010B504468CB01422002107A805F058F9DF
:101A700023683A4A934210D1394B9A6942F4006282
:101A80009A619B6903F400630193019B0022182073
:101A9000114601F07DFB182026E0B3F1804F27D1DD
:101AA00003F5043307A9DA6942F00102DA61DA6961
:101AB00002F001020292029A5A6942F400325A611B
:101AC0005B6903F4003303930222039B4FF09040C1
:101AD0000123CDE907320B9301F0CEFC00221C203C
:101AE000114601F055FB1C2001F084FB0CB010BD29
:101AF0001C4A934210D11A4BDA6942F00202DA61B1
:101B0000DB69002203F0020304931D201146049BAD
:101B100001F03EFB1D20E7E7134A934210D1104B22
:101B20009A6942F400529A619B69002203F40053BF
:101B300005932B201146059B01F02AFB2B20D3E7B0
:101B40000A4A9342D2D1064B9A6942F480329A6192
:101B50009B6903F480330693069B97E7002C0140B2
:101B600000100240000400400034014000400140E9
:101B700010B514228AB0044600210DEB020005F0D6
:101B8000CFF82368334A934217D1334B5A6942F452
:101B900000325A615B6903F400330193019B4FF4F7
:101BA000D8520223CDE905230623099305A94FF056
:101BB000904001F061FC0AB010BD284A934228D140
:101BC000254B5A6942F400325A615A6902F40032D4
:101BD0000292029A5A6942F480225A615B6903F4C4
:101BE000802303930224039B09944FF4004305A927
:101BF0004FF09040CDE9053401F03EFC0823CDE9DB
:101C000005340023CDE9073304230993144805A9BB
:101C1000CFE7144A9342CED10F4B11485A6942F490
:101C200080225A615B6903F4802304930224049B9D
:101C30004FF48043CDE9053405A90123099301F050
:101C40001BFC4FF40043CDE905340023CDE90733F5
:101C50000994DBE7002C01400010024000340140F1
:101C600000040048004001402DE9F04114228AB0F0
:101C7000054600210DEB020005F052F82B68474A9B
:101C8000934221D1464B9A6942F480429A619A6903
:101C900002F480420092009A5A6942F480225A610A
:101CA0005B6903F480230193C021019B0223CDE9EA
:101CB000051303200723CDE9080305A9394801F0DE
:101CC000DBFB0AB0BDE8F081374A9342F9D1344BCF
:101CD000DA6942F40032DA61DA6902F4003202921F
:101CE000029A5A6942F400325A615A6902F4003287
:101CF0000392039A5A6942F480225A615B6903F4A1
:101D00008023049302260724049B4FF00308042336
:101D100005A94FF090401027CDE90536CDE908849C
:101D200001F0AAFBCDE905761E480994002605A915
:101D30001E4CCDE9076801F09FFB1D4BA660C4E96E
:101D400000378023C4E9033620464FF48053C4E9AA
:101D50000566E36101F0A6FA08B1FFF72BFD154A0D
:101D60002C676562144C0023C4E9002320468022BE
:101D7000C4E90323C4E90533A360E36101F092FAE7
:101D800008B1FFF717FD00226C6711462620656237
:101D900001F0FEF9262001F02DFA92E7003801400B
:101DA0000010024000040048004400404C020020A3
:101DB000800002406C00024008020020FEE7FEE7BF
:101DC000FEE7FEE7FEE770477047704700F0ECB8AB
:101DD0007047022001F0A2BC014801F003BB00BF24
:101DE00008020020014801F0FDBA00BF4C020020AB
:101DF00008B5044800F0B2FDBDE80840024800F014
:101E0000ADBD00BFC80000201801002008B504487F
:101E100003F028FDBDE80840024803F023BD00BFE1
:101E20000803002054030020014803F01BBD00BF3D
:101E3000A0030020014803F015BD00BFEC03002003
:101E4000014802F085B800BF90020020014802F06E
:101E500011BD00BF90020020014804F0B5BB00BFD7
:101E60000C05002008B54FF4005001F057FCBDE808
:101E700008404FF4804001F051BC0000014803F0DD
:101E8000F1BC00BF38040020014801F0ABBA00BF2C
:101E9000C40100200B4A116810B5034609B90A496C
:101EA0001160106809490A4C0344091B8B4206D98A
:101EB00004F0FEFE0C2303604FF0FF3010BD1360F2
:101EC000FCE700BF240600204006002000A0002000
:101ED00000040000034AD2F8883043F47003C2F8CB
:101EE0008830704700ED00E0DFF834D0FFF7F2FFF4
:101EF0000C480D490D4A002302E0D458C450043365
:101F0000C4188C42F9D30A4A0A4C002301E013603A
:101F10000432A242FBD304F0D1FEFEF7B5FCFEE78B
:101F200000A00020000000207C000020F8760008BF
:101F30007C0000203C060020FEE7000038B50E4A79
:101F40000E4B054618784FF47A73B3FBF0F3106824
:101F5000B0FBF3F001F070F9044658B90F2D09D821
:101F6000024629464FF0FF3001F012F9044B20469B
:101F70001D6038BD0120FCE70C000020100000208F
:101F800014000020074A08B5136843F010031360DB
:101F9000032001F0EBF80F20FFF7D0FFFFF70CFC58
:101FA000002008BD00200240034A044B11681B7842
:101FB0000B441360704700BF28060020100000206B
:101FC000014B1868704700BF2806002038B504464A
:101FD000FFF7F6FF631C1CBF054B1B78054618BFB7
:101FE000E418FFF7EDFF431BA342FAD338BD00BF4F
:101FF0001000002070477047704738B503680446EA
:10200000986800F00300012801D0002038BD1A684C
:10201000D107FAD59A6802F00D02012A1FD19A68F9
:1020200042F002029A6003221A60FFF7C9FF0546D8
:1020300023689B68DB07E8D5FFF7C2FF401B022837
:10204000F6D923689B68DA07F2D5236C43F01003B6
:102050002364636C43F0010363640120D6E7236CBF
:1020600043F010032364636C43F001036364CDE722
:1020700003689A6812F00C0F70B5044601D1002075
:1020800070BDDA68900125D5208B40F20112904294
:1020900020D1234A1968490610D540221A600C2124
:1020A0009A68520706D59A6896075EBF9A6842F00A
:1020B00010029A600C290FD104251DE0013AE9D1E4
:1020C000236C43F010032364636C43F001036364E7
:1020D0000120D5E76029E3D19A68100706D59A68F0
:1020E00092075EBF9A6842F020029A60602914D07D
:1020F0006C2914BF04250C25FFF762FF06462368F0
:102100009B682B42BBD0FFF75BFF801B0B28F6D9E7
:1021100023689B682B42F2D0D2E70825ECE700BF8A
:102120000194090038B503689A6802F00302012A95
:10213000044604D11A68D10701D5002038BD99683A
:10214000104A114209D0236C43F010032364636CDE
:1021500043F0010363640120F0E79A6842F0010252
:102160009A60FFF72DFF054623681B68DB07E4D460
:10217000FFF726FF401B0228F6D923681B68DA0701
:10218000F2D4E0E73F000080406A036C43F0400374
:102190000364436C43F004034364FFF72DBF406ABC
:1021A000FFF728BF436A1A6C12F0500F18D11A6C4F
:1021B00042F400721A641A68D26812F4406F0CD1AB
:1021C0005A7E52B91A6C22F480721A641A6CD204C4
:1021D0005EBF1A6C42F001021A641846FFF7DEBABD
:1021E0009B6B1B6B1847000070B596B000230193E2
:1021F0000446002800F08480026CD20662D4036C8E
:10220000002B2DD0002023689A68D10002D59B684E
:102210009A000AD5236C23F0120343F010032364C1
:10222000636C43F0010363640120236CDB0661D41B
:1022300000285FD123689D6815F004055AD1226CEF
:1022400022F4817242F00202B3F1A04F22646C4A80
:1022500003D0934256D14FF0A0426A49029257E010
:10226000C0E91233436480F83C30FFF7C7FA2368B3
:102270009B68DE00C6D42046FFF7BFFE226CD50661
:10228000C1D40028BFD1236C226823F4885323F0E3
:10229000020343F002032364936823F040539360E6
:1022A000936843F080539360574B584A1B68B3FBC5
:1022B000F2F30A2253430193019B002BA2D0019B0E
:1022C000013BF8E71846B0E793420CBF0291029039
:1022D0001DE0216C21F0220141F020012164616C9C
:1022E00041F00101616444E04FF4E07156E04FF4C5
:1022F000307153E0236C23F0120343F01003236486
:1023000001207BE04249434A8B42DDD1029242499F
:102310009A6802F00302012A02D11A68D6070FD484
:10232000029A3AB1966806F00306012E02D11268AD
:10233000D20705D48A68666822F4403232438A6044
:10234000626B617E012AD4E9026242EA060218BF8A
:102350004FF4805542EA41322A4394F82050012D2F
:1023600007D10029B5D1616A013942EA414242F4FC
:102370008032A16A012914D0254DAB4203D005F566
:102380008075AB420AD1B1F5307FADD0B1F5807F19
:10239000ADD0B1F5E07F08BF4FF48071E56A2A4304
:1023A0000A43996811F00C0F0CD1D96821F48041CF
:1023B00021F00201D96094F83010257E490041EAED
:1023C00085310A43DD68154929400A43DA602269EC
:1023D000012A05BF196BE2691A6B02F1FF3206BFD1
:1023E00021F00F010A4322F00F021A6300236364F5
:1023F000236C23F0030343F00103236416B070BD84
:1024000000010050000300500C00002040420F006B
:1024100000040050000500500007005007C0F0FF06
:1024200038B503689D6815F00405044640F09580B2
:1024300090F83C30012B00F09080012380F83C3074
:10244000FFF770FE002840F08580236C23F4706352
:1024500023F0010343F4807323642368B3F1A04F96
:1024600002D03F4A934214D13E4A9268D10602D02C
:10247000B3F1A04F11D1226C22F480122264DA68E9
:1024800095011CD5226C22F4405242F48052226401
:1024900015E0354A9268D206EDD034498B42EAD035
:1024A000226C42F4801222642D4A93420ABF4FF0FC
:1024B000A042CA68D268C2F34062002AE2D1226C0C
:1024C00012F480521CBF626C22F006026264002289
:1024D00084F83C20B3F1A04F4FF01C021A6002D0E8
:1024E0001F4A934213D11F4A9168C9060AD0B3F11B
:1024F000A04F02D01A498B420DD1926802F01F0200
:10250000052A18D19A6842F004029A6012E0164A2D
:102510009268D206F6D0144A926802F01F02052A89
:10252000F0D0114A926802F01F02092AEAD00F4A3D
:102530009342E7D038BDB3F1A04F02D0084A93428E
:10254000EFD1084A926802F01F02092ADAD0B3F1EB
:10255000A04FEBE784F83C50ECE70220EAE700BF2D
:10256000000100500003005000070050000400501C
:1025700010B590F83C30012B044616D0012380F8AA
:102580003C306C21FFF774FD58B92046FFF735FD4C
:1025900038B9236C23F4885323F0010343F001037B
:1025A0002364002384F83C3010BD0220FCE70000C7
:1025B0002DE9F04146690368082E04460F4627D0EE
:1025C000B3F1A04F15D04648464A4749834218BF49
:1025D0000A46916811F01F010DD1DA68D00716D5AF
:1025E000236C84F83C1043F0200323640120BDE8F1
:1025F000F0813C4AEDE7926812F4404F07D0236C1B
:1026000043F020032364002384F83C30EEE70C26DB
:10261000B3F1A04F02D0324A934234D1314A92688A
:10262000D20605D0B3F1A04F02D0304A934232D146
:10263000DD68FFF7C5FC804623681A68324231D056
:10264000226C42F400722264DA6805F4005102F44C
:1026500040620A4311D11A6811070ED59A6812F028
:10266000040F226C34D122F480722264226CD204D2
:1026700003D4226C42F00102226415F480400CBFA6
:102680001E600020B3E7184A9268D506D0D0174ADA
:10269000934205D1CCE712498B4208BF4FF0A042CC
:1026A000D568C6E7781CC8D05FB923681B6833407B
:1026B000C2D1226C84F83C3042F004022264032030
:1026C00095E7FFF77DFCA0EB0800B842EDD8B3E733
:1026D00042F020022264626C42F001026264CCE7A4
:1026E000000100500003005000070050000400509B
:1026F000F7B5134602680F4691684907044600F192
:10270000908090F83C10012900F08B800121B2F1FB
:10271000A04F80F83C1002D043498A425CD1434A22
:10272000926812F01F0F0CBF01220022002A74D001
:1027300020460193FFF7F6FC0646002869D1206C7D
:102740002568019B20F4706020F0010040F4807047
:10275000B5F1A04F206402D0334A95423ED1334AAE
:102760009268D20602D0B5F1A04F3BD1226C22F480
:1027700080122264EA68910105D5226C22F440524D
:1027800042F480522264226CA06B12F480521CBF6F
:10279000626C22F006026264002284F83C20244A23
:1027A0008262244AC262244A02631C222A606A6846
:1027B00042F010026A60EA6842F00102EA6005F144
:1027C00040013A4600F093FD2268936843F0040309
:1027D0009360304603B0F0BD184AA1E7174A9268EB
:1027E000D006C3D016498D42C0D0226C42F480126C
:1027F00022640D4A95420ABF4FF0A042CA68D268CF
:10280000920141BF206C20F4405040F4805020647D
:10281000B9E7002384F83C30DBE784F83C2001264C
:10282000D7E70226D5E700BF0001005000030050A3
:10283000A52100089F2100088921000800070050F9
:102840000004005038B590F83C30012B054635D0D7
:10285000012380F83C306C21FFF70AFC0446E0B904
:102860002A68A86BD36823F00103D36090F8213065
:10287000022B07D100F077FD044618B12B6C43F012
:1028800040032B642A68536823F0100353602846E2
:1028900044B9FFF7B2FB044638B1002385F83C3059
:1028A000204638BDFFF7A9FBF7E72B6C23F48853CC
:1028B00023F0010343F001032B64EEE70224EFE76A
:1028C0000368186C7047F8B590F83C30012B04464B
:1028D0000E463CD0012780F83C70FFF78EFB054682
:1028E000E0B9236827649A6822F080429A60BE4269
:1028F00002BF9A6842F080429A609A6842F00042B1
:102900009A60FFF75DFB064623689B68002B09DB96
:10291000236C23F0030343F001032364002384F8B2
:102920003C3012E0FFF74CFB801B0A28ECD92368EF
:102930009B68002BE8DA236C23F0120343F01003AA
:102940002364002384F83C3001252846F8BD022585
:10295000FBE770477047704770470000036870B529
:102960001D685E686A07044601D5700703D429070D
:1029700043D5320741D5226CD0065EBF226C42F4AB
:1029800000722264B3F1A04F03D0904A934240F00A
:1029900005818F4A9168C9060CD0B3F1A04F03D0CE
:1029A0008A498B4240F0FF80926802F01F02052A9C
:1029B00040F01481DA68D96802F4005201F44061F1
:1029C0000A4314D1290712D59A68520700F12281CF
:1029D0005A6822F00C025A60236C23F4807323643B
:1029E000236CD80403D4236C43F0010323642046F2
:1029F000FEF7D4FE23680C221A60A90601D5B206A0
:102A000003D46B0662D5700660D5236C43F4005383
:102A100023642368B3F1A04F03D06C4A934240F083
:102A200002816B4A9168C9060CD0B3F1A04F03D064
:102A300066498B4240F0FC80926802F01F02052A32
:102A400040F00881DA68D96C11F0C00F38D19101DB
:102A500006D5D96802F4005201F440610A432FD12F
:102A600068062DD5B3F1A04F03D0584A934240F0E9
:102A70000D81574A9168C9060CD0B3F1A04F03D01D
:102A800052498B4240F00781926802F01F02062AE9
:102A900040F01381DA68910212D49A68120700F1AB
:102AA00028815A6822F060025A60236C23F4805314
:102AB0002364236CD80503D4236C43F001032364FF
:102AC0002046FFF746FF236860221A6029060BD5CF
:102AD000320609D5236C43F4803323642046FFF784
:102AE0008AFA236880221A60EB050CD5F0050AD516
:102AF000236C43F4003323642046FFF72CFF236844
:102B00004FF480721A60A9050CD5B2050AD5236C62
:102B100043F4802323642046FFF71EFF23684FF40D
:102B200000721A60EB0625D5F00623D5636B012BE6
:102B300012D02268B2F1A04F00F0E4802348254B68
:102B40002349824208BF0B469968C90640F0DC80E1
:102B5000D36813F0010F0AD0236C43F4806323641D
:102B6000636C43F0020363642046FFF745FA236871
:102B700010221A606A0510D573050ED5236C43F434
:102B800080432364636C43F00803636423684FF459
:102B900080621A602046FFF7DDFE70BD0D4A926824
:102BA000D0063FF407AF0B4A926802F01F02052AD5
:102BB0003FF400AF074A926802F01F02092A3FF46F
:102BC000F9AE054A934223D1F4E600BF000100505C
:102BD000000300500007005000040050B3F1A04F64
:102BE00002D04B4A9342E5D14A4A926802F01F0252
:102BF000092A3FF4DFAEB3F1A04F3FF4DBAE464A03
:102C000093423FF4D7AE42498B4208BF4FF0A042F7
:102C1000D268D0E6236C43F010032364636C43F066
:102C200001036364E3E63D4A9268D0063FF40AAFCD
:102C30003A4A926802F01F02052A3FF403AF374A6E
:102C4000926802F01F02092A3FF4FCAE324A934216
:102C50001AD1F7E6B3F1A04F02D02D4A9342EED13C
:102C60002C4A926802F01F02092A3FF4EBAEB3F13E
:102C7000A04F3FF4E7AE284A93423FF4E3AE244925
:102C80008B4208BF4FF0A042D268DCE6234A92682C
:102C9000D0063FF4FFAE214A926802F01F02062AD6
:102CA0003FF4F8AE1D4A926802F01F02072A3FF473
:102CB000F1AE194A93421AD1ECE6B3F1A04F02D01B
:102CC000134A9342EED1134A926802F01F02072A78
:102CD0003FF4E0AEB3F1A04F3FF4DCAE0E4A9342B6
:102CE0003FF4D8AE0A498B4208BF4FF0A042D268E9
:102CF000D1E6236C43F010032364636C43F00103BB
:102D00006364DDE6034B1FE79B6813F4404F22E743
:102D10000001005000030050000400500007005064
:102D20002DE9F04196B00023019390F83C30CE6835
:102D3000012B00F07A810368012280F83C209C6816
:102D4000640700F16C814D680C680622042D05FBB8
:102D500002F231D81D6B1F27974025EA070504FAB8
:102D600002F22A431A639A6812F00C0F5CD1092C04
:102D7000D1F808C004EB44024FF0070541D99F6920
:102D80001E3A954027EA05050CFA02F22A439A6199
:102D9000DA68C2F3C10C4A694FEA4C0C02FA0CFC27
:102DA0000A6902F1FF3E4FEA8468BEF1030F6CD856
:102DB000DFE80EF0304A5560092D0AD85D6B1E3AE7
:102DC0001F27974025EA070504FA02F22A435A63AF
:102DD000C9E70E2D4FF01F0509D89F6B3C3A95406F
:102DE00027EA050504FA02F215439D63BBE7DF6B92
:102DF0005A3A954027EA050504FA02F22A43DA63B3
:102E0000B1E75F69954027EA05050CFA02F2154320
:102E10005D61BDE71A6E864D154045EA080242EA3B
:102E20000C0242F000421A669A6802F00302012A7C
:102E30004FD11A68D7074CD50023002280F83C20D8
:102E4000184616B0BDE8F0815A6E794F174047EA30
:102E5000080242EA0C0242F000425A66E4E79A6E27
:102E6000734D154045EA080242EA0C0242F0004266
:102E70009A66D9E7DD6E6E4A2A4042EA080242EAC3
:102E80000C0242F00042DA66CEE71A6E02F0F84217
:102E9000904502BF1A6E22F000421A665A6E02F086
:102EA000F842904502BF5A6E22F000425A669A6E6E
:102EB00002F0F842904502BF9A6E22F000429A66F4
:102EC000DA6E02F0F8429045AED1DA6E22F000429E
:102ED000D9E70122012E02FA04F20AD0D3F8B01089
:102EE00021EA0202C3F8B020B3F1A04F26D1514A23
:102EF0002AE0D3F8B0508E682A43092CC3F8B020DA
:102F00000CD904EB440299691B3A0725954021EA44
:102F1000050106FA02F20A439A61E5E7651C596960
:102F200005EB45050722AA4021EA020106FA05F24F
:102F30000A43B3F1A04F5A613FF47EAF3E4D3D4985
:102F40003E4AAB4208BF0A46102C0AD1916811F4E0
:102F5000000F7FF471AFB3F1A04F37490ED102914A
:102F600016E0112C03D1916811F0807FF1E7122C4B
:102F70007FF462AF916811F4800FEAE78B4202D1CF
:102F80004FF0A041EBE72E492E4D8B422BD10295FD
:102F9000996801F00301012902D11968CD0738D4DD
:102FA000029939B18D6805F00305012D02D1096838
:102FB000C9072ED4102C1AD1B3F1A04F7FF43CAF27
:102FC000936843F4000393601F4B204A1B68B3FBD4
:102FD000F2F30A2253430193019B002B3FF42CAFE1
:102FE000019B013BF7E7AB4218BF0021B7E7112C6B
:102FF00008D1B3F1A04F7FF41FAF936843F0807303
:10300000936019E7122C7FF417AF936843F48003A1
:10301000F6E7036C43F02003036401230DE7036C20
:1030200043F020030364134607E7022308E700BFC9
:1030300000F0FF8300030050000100500007005023
:1030400000040050000500500C00002040420F001A
:10305000F0B502680D68404BB2F1A04F95B001D1B8
:10306000009309E09A4202D14FF0A043F8E73B4BAE
:103070003B4C9A4233D10094009C002C68D090F8CD
:103080003C30012B66D0012380F83C3093685B070D
:1030900058D4A3685F0755D4B2F1A04F23D02E4F68
:1030A000304E314BBA4218BF334685B39F6890F813
:1030B00030C04E6827F4604746EA4C363E439E6077
:1030C000966806F00306012E0FD11268D6070CD5BC
:1030D0000023002280F83C20184615B0F0BDA24223
:1030E00018BF0023BCE7204BDFE7A26802F0030211
:1030F000012A02D12268D407EAD49A68896822F4A6
:1031000071620D4322F00F0215439D60E0E799685C
:1031100021F460419960916801F00301012902D115
:103120001268D107D4D4A26802F00302012A02D1A6
:103130002268D207CCD49A6822F4716222F00F027E
:103140009A60C5E7036C43F0200303640123C0E7E2
:103150000123C1E70223BFE7000100500004005033
:103160000005005000070050000300500749CA68DE
:1031700022F4E0620302120403F4E063120C13432E
:1031800043F0BF6343F40033CB60704700ED00E0D1
:10319000164B30B5DC68C4F30224C4F10705231DC7
:1031A000042D28BF0425062B4FF0FF338CBF033CB2
:1031B000002403FA05F521EA0501A34022EA0302EF
:1031C000A140002841EA0203ACBF00F16040084A78
:1031D0004FEA0313B8BF00F00F00DBB2AABF00F53F
:1031E0006140135480F8003330BD00BF00ED00E0B3
:1031F00014ED00E0002808DB4209012300F01F0065
:1032000003FA00F0014B43F82200704700E100E0B0
:1032100000280DDB4309012200F01F0002FA00F034
:103220002033044A42F82300BFF34F8FBFF36F8F60
:10323000704700BF00E100E00138B0F1807F0BD2A1
:103240004FF0E023054A5861F02182F82310002056
:10325000072298611A6170470120704700ED00E075
:1032600001680C4B994210B54FF0140409D80A4A72
:103270000A44B2FBF4F292000264A3F20743C36370
:1032800010BD064B0B44B3FBF4F39B000364044BEB
:10329000F5E700BF07040240F8FFFDBFF8FBFDBFE4
:1032A0000004024038B50446F8B1022380F821300A
:1032B000D0E901352B43C56801682B4305690A68CD
:1032C0002B4345692B4385692B43C56922F47F5203
:1032D00022F030022B4313430B60FFF7C1FF0020A5
:1032E0004FF48073A063238438BD0120FCE7F0B560
:1032F00090F82040012C34D090F821500124A542B0
:1033000080F820404FF000064FF0020427D180F8EB
:10331000214004688663266826F001062660D0E90D
:103320000F67BD40756063604368102BC36A0BBFB5
:10333000A260A160E160E2604BB1236843F00E033C
:103340002360236843F0010323600020F0BD23685D
:1033500043F00A032360236823F00403F0E780F8B6
:1033600020600220F2E790F82130022B06D00423DF
:103370008363002380F820300120704703681A68B7
:1033800022F00E021A601A6822F001021A60D0E9D7
:103390000F2101238B4053604FF48073038400207E
:1033A000704710B590F82120022A03D004228263CE
:1033B000012010BD0268436B116821F00E011160FD
:1033C000116821F001011160D0E90F140122A2401F
:1033D0004A604FF48072028413B198470020E8E7F6
:1033E0001846E6E7C16B026C036870B40E681D688E
:1033F0000424944034420ED015F0040F0BD01A6808
:1034000092065EBF1A6822F004021A60C36A4C601A
:1034100063B370BC184702249440344212D015F0B4
:10342000020F0FD01A68950606D41A6822F00A0215
:103430001A60012380F8213000234C6080F820308E
:10344000836AE5E70824944034420FD02C070DD559
:103450001C6824F00E041C60012303FA02F24A6087
:1034600083634FF480730384036BD1E770BC7047B0
:1034700090F82100704700002DE9F74FDFF87C91AC
:103480005C4C00230A6832FA03F502D103B0BDE8B0
:10349000F08F012505FA03FE1EEA020200F0A0806B
:1034A0004E68032706F003054FEA430807FA08FCB5
:1034B0006F1E012F6FEA0C0C34D8876807EA0C0ADC
:1034C000CF6807FA08F747EA0A078760476827EADC
:1034D0000E0EC6F300179F4047EA0E074760C76805
:1034E00007EA0C0E8F6807FA08F747EA0E07022D65
:1034F000C76019D14FEAD30A00EB8A0A03F0070B21
:10350000DAF820704FEA8B0B4FF00F0E0EFA0BFE1D
:1035100027EA0E0E0F6907FA0BF747EA0E07CAF8FB
:10352000207001E0032DDAD1076805FA08F507EAF3
:103530000C072F4316F4403F076051D0D9F81850BC
:1035400045F00105C9F81850D9F8185023F00307C1
:1035500007F1804705F0010507F58037019503F075
:10356000030E019DBD684FEA8E0E4FF00F0C0CFA52
:103570000EFCB0F1904F25EA0C0C33D01E4DA84242
:1035800032D005F58065A84230D005F58065A842A7
:103590002ED005F58065A8420CBF0425052505FA47
:1035A0000EF545EA0C05BD60A568D74316F4801FEB
:1035B0000CBF3D401543A560E56816F4001F0CBF25
:1035C0003D401543E560656816F4003F0CBF3D4083
:1035D000154365602568F60354BF3D4015432560DB
:1035E00001334FE70025DAE70125D8E70225D6E7C2
:1035F0000325D4E700040140000400480010024005
:103600003A4A2DE9F04F00234FF0010A4FF00F081E
:103610004FF0030B31FA03F401D1BDE8F08F0AFA41
:1036200003FC1CEA010657D023F0030404F1804494
:1036300004F5803403F00307A568BF0008FA07F912
:10364000B0F1904F09EA050E48D0294DA84247D065
:1036500005F58065A84245D005F58065A84243D0B0
:1036600005F58065A8420CBF04250525BD407545BC
:1036700013D1156825EA06051560556825EA060583
:103680005560D56825EA0605D560956825EA0605E2
:103690009560A56825EA0905A56005685C000BFA38
:1036A00004F4DE0825EA040500EB8606056003F055
:1036B0000705376AAD0008FA05F527EA0505356202
:1036C000C56825EA0405C560456825EA0C0545601E
:1036D000856825EA0404846001339BE70025C5E77B
:1036E0000125C3E70225C1E70325BFE70004014028
:1036F000000400480369194214BF012000207047EC
:103700000AB18161704781627047436901EA03022F
:1037100021EA030141EA024181617047044A51698B
:10372000014208B502D05061FDF798FF08BD00BF07
:103730000004014003689A69910744BF00229A621D
:103740009A69D2075EBF9A6942F001029A61704796
:1037500030B5039D04682B4343EA0243064A606880
:10376000C1F309010B4342EA555223F0004320EA1A
:1037700002000343636030BDFF63FF0370B5426B1B
:103780001F4CA2420BB201F0010501F002041DD052
:103790001C4EB2421AD01C4EB24217D0002BACBF06
:1037A0000023B8230DB143F0F2030CB143F0F4034E
:1037B000102902D143F0900303E0202901D143F006
:1037C000200301680A6813430B6070BD002BACBF77
:1037D0000023B8230DB143F0F2030CB143F0F4031E
:1037E0001029E7D0202902D143F06003E9E7064C15
:1037F000A242E6D0402908BF43F04003E1E700BF02
:1038000071470008814600085D45000811F001037A
:1038100007D090F8413003F02803282B0CBF422337
:10382000F2238A0709D590F8412002F02802282ABD
:103830000CBF43F0440343F0F4030A0401680A6830
:1038400048BF43F0B80322EA03030B6070470368E4
:103850002DE9F0419C6914F0100405460F46164608
:1038600070D010220024DA61A0462B689A69920673
:1038700062D4B8F1000F36D044F0040401202B6864
:103880009A69D60541BF4FF48071D96144F00104B3
:103890000120510541BF4FF4806144F00804D96113
:1038A0000120920550D54FF4007244F00204DA6111
:1038B0002846FFF73FFF2A68536823F0FF7323F47D
:1038C0008B3323F4FF7323F0010353606B6C1C43B1
:1038D00020236C6485F84130002385F8423085F858
:1038E0004030012032E07A1CC0D0FEF769FB801B1B
:1038F000B84201D8002FB8D12B68596895F84220FA
:1039000098690004D2B20AD5480408D4202A06D007
:103910005A6842F480425A60FEF752FB06462B6812
:103920009B699906A1D4FEF74BFB801B1928F6D999
:1039300020244FF0010898E7B8F1000F9CD1202215
:10394000DA6199E720469AE70028B1D1BDE8F08115
:1039500070B504460D46164623689B699B0701D542
:10396000002070BD324629462046FFF770FFC0B9DF
:103970006A1CF1D0FEF724FB801BA84201D8002D61
:10398000EAD123689B6913F00203E5D1626C84F8E5
:10399000403042F020026264202284F8412084F802
:1039A00042300120DDE72DE9F041069F04468846BC
:1039B00016461D462268936938EA03030CBF0123AB
:1039C0000023B34201D000201EE06B1CF3D0FEF7B1
:1039D000F7FAC01BA84201D8002DEBD123689B69E0
:1039E00038EA03030CBF01230023B342E2D1636C26
:1039F00043F020036364202384F84130002384F8DB
:103A0000423084F840300120BDE8F08170B50446B2
:103A10000D46164623689B699B0601D5002070BDA4
:103A2000324629462046FFF712FFB0B9FEF7C8FA22
:103A3000801BA84201D8002DECD123689B6913F0AC
:103A40002003E7D1626C84F8403042F020026264C7
:103A5000202284F8412084F842300120DFE710B5AD
:103A6000044600284AD090F8413003F0FF021BB909
:103A700080F84020FDF778FF242384F84130236844
:103A80001A6822F001021A60626822F070621A61FC
:103A90009A6822F400429A60D4E90221012924D1D3
:103AA00042F400429A605A6842F0007242F40042C6
:103AB0005A60DA6822F40042DA60D4E904210A4349
:103AC000A16942EA0122DA60D4E907210A431A60B7
:103AD0001A6842F001021A6000202023606484F812
:103AE0004130206384F8420010BD42F404420229B0
:103AF0009A6004BF4FF400625A60D4E70120F3E7F4
:103B000010B5044698B10268242380F84130136848
:103B100023F001031360FDF76BFF0020606484F85D
:103B2000400084F84100206384F8420010BD012069
:103B3000FCE700002DE9F347984690F841300A9FD2
:103B4000202B04460E46914640F0868090F8403087
:103B5000012B00F081804FF0010A80F840A0FEF7B1
:103B60002FFA19230546009052464FF40041204693
:103B7000FFF719FF18B1012002B0BDE8F08721233B
:103B800084F84130102384F842306064A4F82A801D
:103B9000638DC4F824909BB2FF2B60632F4B26D912
:103BA000FF22228500934FF0807331462046FFF7B5
:103BB000CFFD638D9BB22A4639462046FBB9FFF7FD
:103BC00025FF0028D7D123682021D9615A6822F027
:103BD000FF7222F48B3222F4FF7222F001025A604B
:103BE00084F8411084F8400084F84200C4E7628DF4
:103BF000009392B222854FF00073D2B2D5E7FFF75F
:103C0000A7FE0028B7D1636A226813F8011B9162EE
:103C10006362638D228D013B9BB26385638D013AA4
:103C200092B29BB22285002BC3D0002AC1D100954D
:103C30003B4680212046FFF7B6FE00289BD1638DCE
:103C40009BB2FF2B03D9FF2222850090ABE7628D48
:103C5000009092B22285CEE702208DE700200080FE
:103C60002DE9F04F85B01E460023039390F84130B4
:103C7000202B0446914640F0908003689B6913F422
:103C8000004340F08A8090F84020012A00F08580AF
:103C90000122C1F3090780F8402047F0007A24226E
:103CA00080F841204AF4205A4364E3682268012BDB
:103CB00006BF47F0007343F4005353465360FEF7CA
:103CC0007FF9804623689D699B69C5F34015C3F35E
:103CD00000131D4315D023689A69CDF8008012F0B7
:103CE0001002334626D120212046FFF75CFEE8B9BA
:103CF00022682023D361054684F8413084F84000CF
:103D000014E0731CDED0FEF75BF9A0EB0800B042B4
:103D100001D8002ED6D1202384F84130636C43F0C3
:103D200020036364002384F840300125284605B051
:103D3000BDE8F08F002220212046FFF734FE002846
:103D4000F4D1236810224FF0200BDA61C3F81CB0C5
:103D5000039A4A4510D15A6842F480425A60594643
:103D60000246CDF8008033462046FFF71CFE0028AF
:103D7000DCD12368C3F81CB0039B01330393039B7E
:103D80004B4592D3202384F84130636C43F02003E9
:103D90006364002384F84030C8E70225C6E70000CA
:103DA000F8B51F4690F8413003F02803282B04464D
:103DB0000E46154604D101B122B94FF40073636475
:103DC000012048E048F20101FFF720FD90F8403063
:103DD000012B41D0012380F8403090F841302A2B4C
:103DE00014D10221FFF712FD03681A6811040DD5E2
:103DF0001A68C06B22F400421A6038B1174B436353
:103E0000FFF7CFFA10B1E06B436B9847292384F892
:103E10004130202384F842302068002363644368E3
:103E200023F4004343606585638D2385E7620C4B73
:103E30006363836982696662D20303D51B0744BF4B
:103E40000823C3610025204684F8405048F2010150
:103E5000FFF794FC2846F8BD0220FCE7D54800088F
:103E60005D430008F8B51F4690F8413003F0280381
:103E7000282B04460E46154604D101B122B94FF451
:103E800000736364012047E048F20201FFF7BEFCC3
:103E900090F84030012B40D090F841300121292B7F
:103EA00080F8401013D1FFF7B1FC03681A68510481
:103EB0000DD51A68806B22F480421A6038B1184B15
:103EC0004363FFF76EFA10B1A06B436B98472A2348
:103ED00084F84130202384F8423020680023636452
:103EE000436823F4004343606585638D2385E7625F
:103EF0000C4B6363836982696662D20303D41B0738
:103F000044BF0823C3610025204684F8405048F28E
:103F10000201FFF733FC2846F8BD0220FCE700BF92
:103F2000D54800085D43000808B590F84120202AD4
:103F30000AD1282280F84120044A42634FF400410C
:103F4000FFF71CFC002008BD0220FCE75D430008D1
:103F50000268436B9169126803B118477047704754
:103F6000704738B5002580F8425090F84130212B39
:103F70004FF0200380F841300AD1112303634563D9
:103F80000121FFF743FC80F84050FFF7E8FF38BD00
:103F90001223036345630221FFF738FC80F8405089
:103FA000FFF7DEFFF3E708B503681A68002180F821
:103FB0004210510415D51A6822F480421A6090F814
:103FC0004130292B13D1282380F84130212303636A
:103FD0000121FFF71BFC002380F84030FCF78EF92D
:103FE00008BD1204EBD51A6822F40042E6E790F807
:103FF00041302A2BF4D1282380F841302223036357
:104000000221FFF703FC002380F84030FCF78EF913
:10401000E6E790F8412002F02802282AF8B5036864
:1040200034D19E69C2689D699968DF682D0C022AA7
:10403000C6F3004605F0FE051FD185EAD11515F03F
:104040000605C1F309020ED1816C01318164816CD6
:10405000022907D108218564D96180F84050314692
:10406000FCF728F9F8BD4FF40041FFF7CFFB002320
:1040700080F8403007F0FE02F1E74FF40041FFF70F
:10408000C5FB002380F840302A46E8E70822DA61C1
:10409000002380F84030E5E708B5164BC3622022C4
:1040A00000230363436380F8412080F842304B07CC
:1040B00012D503685A6A436A1A70436A013343622D
:1040C000038D4BB1013B0385438D013B9BB243857F
:1040D000436C43F00403436448F20301FFF796FB8B
:1040E00003681022DA61002380F84030FCF7E0F822
:1040F00008BD00BF0000FFFF70477047704790F891
:104100004120602A08B54FF0000208D1202180F834
:10411000411080F840200263FFF7F0FF08BD026302
:1041200080F84020FCF726F9F8E7000070B53E4A19
:1041300090F84130002580F84250C2624585426CBB
:10414000283B1143022B044641642AD80321FFF780
:104150005DFB282380F84130344BA06B6363236BF5
:10416000002841D0112B01D0212B3DD123681A68A2
:10417000510442BF1A6822F480421A60FFF778F9AE
:1041800001282CD0A06B2A4B4363002384F84030D5
:10419000FFF707F9002845D0A06B436BBDE87040DE
:1041A000184748F20301FFF731FBFFF7C3FA90F815
:1041B0004130602B11D0202380F8413003689A6988
:1041C00095060AD59A69D00605D51022DA61626C87
:1041D00042F0040262642022DA610023BDE7204637
:1041E000BDE87040FFF78BBFE06B0028F7D0122BC3
:1041F00001D0222BF3D123681A68120442BF1A6837
:1042000022F400421A60FFF733F90128E7D0E06B8F
:10421000074B4363002384F84030FFF7C2F808B12E
:10422000E06BBAE770BD00BF0000FFFF5D43000810
:10423000D5480008F8B503681F6890F8415005F0AC
:10424000F7052022212D04460E46DA6151D148F2AD
:104250000101FFF7DBFA256323685A6842F4004244
:104260005A605A6822F0FF7222F48B3222F4FF72F5
:1042700022F001025A602046FFF75CFA79043DD52E
:104280002268136823F480431360A36B1BB11B687F
:104290005B689BB26385730710D523685A6A636AAB
:1042A0001A70636A01336362238D26F004062BB112
:1042B000013B2385638D013B9BB26385638D9BB27C
:1042C0001BB1636C43F004036364002384F8423041
:1042D000656C6363DDB1616C2046FFF727FF94F8DE
:1042E0004130282B25D131462046BDE8F840FFF764
:1042F000D3BE222DB0D148F20201AAE73A04CAD5B2
:104300002268136823F400431360E36BBEE7E36A9B
:1043100013F5803F0ED02046FFF745FE0E4BE362BB
:10432000202384F8413084F8405025632046FBF771
:10433000BFFFF8BD94F8413084F84050222B4FF075
:10434000200384F841302046256302D1FBF7EEFFBD
:10435000EFE7FBF7D3FFECE70000FFFFF8B590F8BD
:104360004030C76A012B04460D4616467DD0012316
:104370008A0680F8403003D5B30601D5FFF75AFF0F
:10438000E80633D5F10631D5638D9BB2FBB994F8BD
:104390004130282B0AD1B7F1007F07D129462046AA
:1043A000FFF77AFE002084F84000F8BD94F8412021
:1043B0002368292A4FF01002DA61F3D117F5803F04
:1043C000F0D02046FFF7B6F9FFF7EDFDEAE72368E6
:1043D0001022DA61636C43F00403636437F0807386
:1043E000E0D1616C2046FFF7A1FEDBE76A071BD531
:1043F000730719D5638D9BB26BB123685A6A636AE0
:104400001A70636A01336362238D013B2385638DD8
:10441000013B9BB26385638D9BB2002BC2D117F524
:10442000803FBFD02046CFE7280705D5310703D509
:104430002046FFF7EEFDB5E7AA07B3D5B307B1D520
:10444000638D9BB26BB1636A226813F8011B9162A2
:104450006362638D013B9BB26385238D013B2385A2
:10446000A0E737F08073DDD09CE702209DE737B5E9
:1044700003682022DA6190F84130212B04460D4672
:1044800036D10121FFF7C2F91123236323685A684B
:1044900022F0FF7222F48B3222F4FF7222F001022A
:1044A0005A6000226263E906A2F58032E26205D515
:1044B0001022DA61626C42F00402626494F84120D6
:1044C000602A05D16A0741BF5B6ADBB20193019B99
:1044D0002046FFF72FF9636C94F84120602A00D042
:1044E0007BB1616C204603B0BDE83040FFF71EBED3
:1044F00090F84130222BC9D10221FFF787F912230E
:10450000C3E794F84120212A12D1202284F84120C7
:10451000236394F8422084F84030402A84F84230E3
:1045200003D1FFF7E9FD03B030BDFFF718FDFAE74F
:1045300094F84120222AF6D1202284F841202363D6
:1045400094F8422084F84030402A84F8423002D166
:10455000FFF7D3FDE7E7FFF703FDE4E713B590F8B6
:104560004030012B044600F08580012380F8403064
:10457000CB0612D5D30610D503681022DA61436C3E
:1045800043F0040343642021FFF7F8F8FFF7D2F863
:10459000002084F8400002B010BD880708D59307BA
:1045A00006D52368226D9A624FF0FF332365EFE74B
:1045B000080633D5530631D510212046FFF7DEF823
:1045C000638D9BB233B3638D9BB2FF2B18D900234D
:1045D000FF22E16C009322854FF0807389B2FFF7D0
:1045E000B7F8638D228D9B1A9BB2638594F84120A6
:1045F0002368222A1A6832D142F400421A60C7E7BF
:10460000628DE16C92B2002322850093D2B24FF00A
:104610000073E3E74021FFF789FDB9E7480621D59C
:1046200053061FD594F84110134A144B222908BF92
:104630001346628D92B2FF2A08D9FF22E16C0093E3
:1046400022854FF0807389B22046C8E7628D0093BF
:1046500092B22285E16C4FF00073D2B2F3E742F4DC
:104660008042CBE7880693D5930691D52046FFF785
:10467000FEFE8DE702208EE70024008000200080EF
:10468000F8B590F84030C76A012B04460E4615462F
:104690006CD001238A0680F8403003D5AB0601D5E3
:1046A000FFF7C8FDF20659D5EB0657D5E80BA90B65
:1046B00040EA9535ED074DD5E26BF2B110F00103FC
:1046C00004D013685B68B3FA83F35B09A26B22B171
:1046D000C90702D51268526802B10BB394F8413091
:1046E000282B0CD1B7F1007F09D131462046FFF7C6
:1046F000D3FC002084F84000F8BD1346E6E794F8A8
:1047000041202368292A4FF01002DA61F1D117F510
:10471000803FEED02046FFF70DF8FFF744FCE8E7B6
:1047200023681022DA61636C43F00403636494F835
:10473000413037F08072DBB2DBD103F0F703212B7D
:1047400001D1236301E0222BFBD0616C2046FFF7EF
:10475000EDFCCEE723681022DA61CAE73207C8D53C
:104760002B07C6D52046FFF754FCC2E70220C3E75B
:1047700013B590F84030012B044679D0012380F81E
:104780004030CB0612D5D30610D503681022DA616B
:10479000436C43F0040343642021FEF7EFFFFEF770
:1047A000C9FF002084F8400002B010BD0B0642D5BE
:1047B000500640D523681A6822F040021A60628DC4
:1047C00092B262B35968638D9BB2FF2BC1F30901AA
:1047D0001BD9FF2323854FF08073002200922046CF
:1047E00094F82820FEF7B4FF638D228D9B1A9BB2AC
:1047F000638594F84130222B23681A680CBF42F479
:10480000004242F480421A60CBE7638D2385E36A5D
:1048100013F5803F14BFE36A4FF00073DDE75B6878
:104820009A0103D42046FFF79CFBBAE740212046BB
:10483000FFF77CFCB5E74B0612D5500610D5638D0B
:104840009BB2002BF2D123685A689201A9D4E26A84
:1048500012F5803FE6D15A6842F480425A60A0E7E0
:1048600088069ED593069CD52046FFF700FE98E764
:10487000022099E7036899691A6810B4CC0508D535
:10488000140606D5446C44F0010444644FF480746B
:10489000DC614C0508D5140606D5446C44F00804C8
:1048A00044644FF48064DC61890508D5120606D59E
:1048B000426C42F0020242644FF40072DA61416CD1
:1048C00011F00B0F03D05DF8044BFFF72FBC5DF820
:1048D000044B7047406A836B0BB100225A63C36B71
:1048E0000BB100225A63FFF70ABC406C704710B549
:1048F00090F84130202BDCB21DD190F84030012BD4
:1049000019D0242380F8413003681A6822F001028C
:104910001A601A6822F480521A601A6811431960EA
:104920001A6842F001021A60002380F8414080F8C2
:104930004030184610BD0220FCE710B590F8413019
:10494000202BDCB21CD190F84030012B18D024234E
:1049500080F8413003681A6822F001021A601A6870
:1049600022F4706242EA012119601A6842F00102E1
:104970001A60002380F8414080F84030184610BD8E
:104980000220FCE72DE9F7430546002835D00368EF
:10499000DA0711D42B689B0700F188802B681C076D
:1049A00000F1F8802B68580700F14681E86900287B
:1049B00040F0D48100204BE09D4C636803F00C0371
:1049C000042B07D0636803F00C03082B17D163682E
:1049D000DF0314D54FF4003393FAA3F2216893FA5E
:1049E000A3F3B3FA83F303F01F03012202FA03F3E4
:1049F0000B42CFD06B68002BCCD1012028E06A6835
:104A0000B2F5803F27D1236843F480332360E36A03
:104A1000A96823F00F030B43E36262B3FDF7D0FAFA
:104A20004FF4003706464FF0010897FAA7F32268C3
:104A300097FAA7F3B3FA83F303F01F0308FA03F31B
:104A40001342A7D1FDF7BCFA831B642BEDD90320D9
:104A500003B0BDE8F083236832B923F480332360C8
:104A6000236823F48023D1E7B2F5A02FF5D143F4D6
:104A700080232360C7E7FDF7A3FA4FF4003706460B
:104A80004FF0010897FAA7F3226897FAA7F3B3FA51
:104A900083F303F01F0308FA03F313423FF47AAFE2
:104AA000FDF78EFA831B642BECD9D0E7604C63686A
:104AB00013F00C0F07D0636803F00C03082B21D10F
:104AC0006368DE031ED4022393FAA3F2216893FAEB
:104AD000A3F3B3FA83F303F01F03012202FA03F3F3
:104AE0000B4202D02B69934287D12168F82393FAB5
:104AF000A3F3B3FA83F26B69934021F0F8021343F6
:104B000023604BE72A6901260AB396FAA6F3B3FAA3
:104B100083F303F1845303F584139B004FF00208E1
:104B20001E60FDF74DFA074698FAA8F3226898FA36
:104B3000A8F3B3FA83F303F01F0306FA03F3134257
:104B4000D3D1FDF73DFAC31B022BEDD97FE796FACF
:104B5000A6F3B3FA83F303F1845303F584139B00A4
:104B60004FF002081A60FDF72BFA074698FAA8F3EF
:104B7000226898FAA8F3B3FA83F303F01F0306FA46
:104B800003F313423FF40AAFFDF71AFAC31B022BDB
:104B9000ECD95CE7AA69264E264901241AB394FA97
:104BA000A4F3B3FA83F30B449B0002271C60FDF7C8
:104BB00007FA804697FAA7F397FAA7F397FAA7F3AD
:104BC000726A97FAA7F3B3FA83F303F01F0304FAA8
:104BD00003F313427FF4E6AEFDF7F2F9A0EB08030E
:104BE000022BE7D933E794FAA4F3B3FA83F30B4427
:104BF0009B0002271A60FDF7E3F9804697FAA7F3B6
:104C000097FAA7F397FAA7F3726A97FAA7F3B3FA9A
:104C100083F303F01F0304FA03F313423FF4C2AE1D
:104C2000FDF7CEF9A0EB0803022BE7D90FE700BF91
:104C30000010024020819010914CE369D90033D4D8
:104C4000E36943F08053E361E36903F08053019328
:104C5000019B01268B4F3B68DA0527D5EB68012BBA
:104C600035D1236A43F001032362FDF7A9F9022736
:104C700080464FF0010997FAA7F397FAA7F3002BA4
:104C800064D0226A97FAA7F3B3FA83F303F01F0301
:104C900009FA03F3134250D0002E3FF487AEE369C4
:104CA00023F08053E36181E60026D3E73B6843F4B9
:104CB00080733B60FDF784F980463B68DB05CDD40B
:104CC000FDF77EF9A0EB08006428F6D9BFE633BBF8
:104CD000236A23F001032362236A23F0040323627F
:104CE000FDF76EF9022780464FF0010997FAA7F306
:104CF00097FAA7F373B3226A97FAA7F3B3FA83F389
:104D000003F01F0309FA03F31342C5D0FDF758F966
:104D100041F28833A0EB08009842E7D997E6052BCB
:104D2000236A03D143F0040323629AE723F00103CB
:104D30002362236A23F0040396E7FDF741F941F269
:104D40008833A0EB0800984295D980E697FAA7F33C
:104D5000626A97E797FAA7F3626ACDE7484C6368FF
:104D600003F00C03082B7AD002284FF0807351D146
:104D700093FAA3F3B3FA83F303F1845303F5841393
:104D80009B0000221A60FDF71BF94FF000780746E0
:104D9000012698FAA8F3226898FAA8F3B3FA83F3E5
:104DA00003F01F0306FA03F313422DD1D5E90813CC
:104DB00062680B4322F47412134363604FF08073F4
:104DC00093FAA3F3B3FA83F303F1845303F5841343
:104DD0009B0001271E60FDF7F3F84FF000760546B3
:104DE00096FAA6F3226896FAA6F3B3FA83F303F0D1
:104DF0001F0307FA03F313427FF4DCADFDF7E0F87D
:104E0000401B0228ECD922E6FDF7DAF8C31B022B7F
:104E1000BFD91CE693FAA3F3B3FA83F303F18453E7
:104E200003F584139B0000221A60FDF7C9F84FF0C8
:104E300000760546012796FAA6F3226896FAA6F3AD
:104E4000B3FA83F303F01F0307FA03F313423FF4AB
:104E5000B1ADFDF7B5F8401B0228ECD9F7E5012804
:104E60003FF4F6AD63682A6A03F4803191427FF41F
:104E7000C4AD6A6A03F4701393423FF49BADBCE582
:104E8000001002400070004010B5134C616801F042
:104E90000C03082B1ED14FF4701393FAA3F301F403
:104EA0007012B3FA83F322FA03F30C4AD05CE36A7C
:104EB0000F2292FAA2F2B2FA82F203F00F03D34069
:104EC000074AD25CCB034ABF064B074BB3FBF2F356
:104ED000584310BD0348FCE70010024097760008D5
:104EE000A776000800127A0000093D002DE9F04184
:104EF0000D46044610B90120BDE8F0814C4A136804
:104F000003F007038B422ED32268910736D4D207D1
:104F10003CD4474A136803F00703AB4274D82268B5
:104F2000444D12F0040F7BD1130706D56B6822693C
:104F300023F4605343EAC2036B60FFF7A5FF6B687D
:104F4000F02292FAA2F2B2FA82F203F0F003D34016
:104F5000394AD35CD840394B1860394B1868FCF794
:104F6000EDFF0020C8E7136823F007030B4313602D
:104F7000136803F007038B42BDD1C5E72D49A06834
:104F80004B6823F0F00303434B60C0E76268294E8F
:104F9000012A26D14FF4003393FAA3F1316893FA32
:104FA000A3F3B3FA83F303F01F0302FA03F30B42F4
:104FB000A1D0736823F003031A437260FDF700F871
:104FC00041F2883807467368626803F00C03B3EB5C
:104FD000820F9ED0FCF7F4FFC01B4045F3D903209D
:104FE0008AE7022A0CBF4FF00073022393FAA3F161
:104FF000306893FAA3F3B3FA83F303F01F0301219C
:1050000001FA03F30342D3E7136823F007032B43AA
:105010001360136803F00703AB427FF46CAF7EE7C5
:105020006B68E16823F4E0630B436B607CE700BFCF
:1050300000200240001002407F7600080C00002093
:1050400014000020084B4FF4E0625B6892FAA2F271
:10505000B2FA82F203F4E063D340044AD35C044A18
:105060001068D840704700BF001002408F760008DB
:105070000C000020084B4FF460525B6892FAA2F2D9
:10508000B2FA82F203F46053D340044AD35C044A78
:105090001068D840704700BF001002408F760008AB
:1050A0000C00002003682DE9F743DD03044623D5F7
:1050B0007C4DEB69D80000F19A80EB6943F0805396
:1050C000EB61EB6903F080530193019B0126764F5E
:1050D0003B68D90540F18D802B6A13F4407340F092
:1050E0009D802B6A626823F4407313432B621EB1C8
:1050F000EB6923F08053EB612368DF0706D569492C
:10510000A0680A6B22F0030202430A639E0706D5D9
:105110006449E0680A6B22F4403202430A635D0787
:1051200006D5604920690A6B22F4402202430A63D3
:10513000980606D55B49E0690A6B22F0100202432B
:105140000A63990306D55749A06B4A6822F4800286
:1051500002434A605A0606D55249206A0A6B22F079
:10516000200202430A631F0706D54E4960690A6B95
:1051700022F4401202430A63DE0606D54949A069BB
:105180000A6B22F4400202430A639D0506D5454995
:10519000E06A4A6822F4000202434A60180606D513
:1051A0004049606ACA6A22F4F8720243CA62D905A9
:1051B00006D53C49A06ACA6A22F478520243CA6200
:1051C000DA0406D53749206B0A6B22F48072024359
:1051D0000A6313F400531FBF324A616B136B23F44D
:1051E00000731DBF0B4313630020184613E0002615
:1051F0006DE73B6843F480733B60FCF7E1FE80465B
:105200003B68DA053FF568AFFCF7DAFEA0EB080073
:105210006428F5D9032003B0BDE8F083626802F486
:1052200040729A423FF45DAF296A4FF4803321F413
:10523000407093FAA3F2DFF874C0B2FA82F26244CB
:1052400092000127176093FAA3F3B3FA83F3634440
:105250009B0000221A60CB0728627FF542AFFCF763
:10526000AFFE4FF00208814698FAA8F398FAA8F327
:10527000A3B12A6A98FAA8F3B3FA83F303F01F03E1
:1052800007FA03F313427FF42CAFFCF799FE41F2C7
:105290008833A0EB09009842E6D9BBE798FAA8F357
:1052A0006A6AE7E700100240007000400081901039
:1052B00038B50368094ADA600446FCF781FE054602
:1052C0002368DB689B0601D5002038BDFCF778FE1B
:1052D000401BB0F57A7FF3D90320F6E75FFF0100AA
:1052E000F8B50368DC6814F04004054617D1DA68A5
:1052F00042F08002DA60FCF763FE042706462B6862
:10530000DB685B0600D40CB12046F8BDFCF758FE04
:10531000801BB0F57A7F84BF6F770124EFE700240C
:10532000F2E70368DA6822F0800210B5DA609B6861
:105330009B06044601D5002010BDFFF7B9FF0028E9
:10534000F9D0042363770120F6E710B5044600285E
:1053500041D0437F03F0FF0213B90277FCF76CFBE7
:10536000022363772368DA68D20603D501236377C3
:10537000002010BDCA225A6253225A622046FFF70B
:10538000AFFF10BB236820699A6822F4E00222F084
:1053900040029A60626899680243606902430A4366
:1053A0009A60E2681A611A69A16842EA01421A61C8
:1053B0002046FFF7B6FF40B92368A1691A6C22F4B2
:1053C00080221A641A6C0A431A642368FF225A6204
:1053D0000028CBD0CDE70120CBE70023092803D854
:1053E00040EA0310C0B270470A380133C0B2F5E793
:1053F0002DE9F041037F012B06460F464FF00200D6
:1054000042D0012333777077316838787D7897F808
:105410000280002A3AD18A6812F0400208BFFA706E
:10542000FFF7DBFF02462846FFF7D7FF044640465A
:10543000FFF7D3FFFD7840EA855545EA024242EA8C
:105440000424CA234B6253234B623046FFF748FFC4
:10545000A8B9326804F07F3424F0FE4414609368E5
:1054600023F480239360D7E90330916803430B430F
:1054700093603046FFF755FF08B90123737733680F
:10548000FF225A6200233377BDE8F0818A6812F068
:10549000400208BFFA702D02FC7845EA004545EA53
:1054A000080343EA8454CCE72DE9F041037F012B44
:1054B00006464FF002033BD00120307773770D781A
:1054C000C8784C7891F802806D039ABBE30603D547
:1054D00024F010040A344C70FFF77FFF0746487829
:1054E000FFF77BFF04464046FFF777FF40EA0502DF
:1054F00042EA074545EA04243368CA225A62532225
:105500005A623046FFF7ECFE58B9326824F07F4407
:1055100024F0C00454603046FFF703FF08B90123AC
:1055200073773368FF225A6200233377BDE8F08136
:105530001846FBE745EA004545EA080343EA042428
:10554000DAE7030903EB830300F00F0000EB4300ED
:10555000C0B2704738B50368986A486018691B681C
:10556000C0F30E00C3F3062503F07F048860C3F385
:105570000540C3F3805308704D708C70CB7052B9E6
:10558000FFF7DFFF08702846FFF7DBFF4870204673
:10559000FFF7D7FF8870002038BD38B503685B6817
:1055A000C3F30740C3F3042503F03F04C3F34233BE
:1055B000C8704D708C700B7052B9FFF7C2FFC87085
:1055C0002846FFF7BEFF48702046FFF7BAFF8870F5
:1055D000002038BD036A23F001030362036A70B53B
:1055E000446882690D6822F4803222F073022A43F3
:1055F0008D6823F002032B431B4DA8420FD005F505
:105600000065A8420BD005F54065A84207D005F516
:105610008065A84203D005F58065A8421ED1CD68FB
:1056200023F008032B43104DA84223F004030FD0AE
:1056300005F50065A8420BD005F54065A84207D0E6
:1056400005F58065A84203D005F58065A84205D11F
:1056500024F44075D1E9054634432C43446082610B
:105660004A684263036270BD002C0140036A23F460
:1056700080730362036A70B54468C2690D6822F4DE
:10568000803222F073022A438D6823F4007343EAC8
:105690000523164DA84203D005F50065A8420DD19B
:1056A000CD6823F4006343EA0523104DA84223F498
:1056B00080630ED005F50065A8420AD00C4DA842C3
:1056C00007D005F58065A84203D005F58065A8429E
:1056D00006D124F44055D1E90546344345EA041483
:1056E0004460C2614A68C263036270BD002C01401D
:1056F00000400140036A23F480530362036A30B51B
:105700004468C2690D6822F0807222F4E64242EADF
:1057100005228D6823F4005343EA05330E4DA84259
:105720000FD005F50065A8420BD005F54065A842ED
:1057300007D005F58065A84203D005F58065A8422D
:1057400004D14D6924F4804444EA85144460C26164
:105750004A680264036230BD002C0140036A23F4EE
:1057600080330362036A30B54468426D0D6822F4E9
:10577000803222F070022A438D6823F4003343EA1A
:1057800005430F4DA8420FD005F50065A8420BD088
:1057900005F54065A84207D005F58065A84203D00D
:1057A00005F58065A84204D14D6924F4803444EAAB
:1057B0000524446042654A688265036230BD00BFCB
:1057C000002C0140036A23F480130362036A30B59E
:1057D0004468426D0D6822F0807222F4E04242EA91
:1057E00005228D6823F4001343EA05530E4DA842A9
:1057F0000FD005F50065A8420BD005F54065A8421D
:1058000007D005F58065A84203D005F58065A8425C
:1058100004D14D6924F4802444EA8524446042651F
:105820004A68C265036230BD002C01407047704772
:10583000082910D004D841B1042909D000207047AC
:105840000C29FBD10368186C70470368586B7047CC
:105850000368986B70470368D86B70477047704750
:105860007047704703681A69910710B504460FD551
:10587000DA6892070CD56FF002021A6101220277F2
:105880009B69990700F08580FBF75EFE0023237774
:1058900023681A69520710D5DA6850070DD56FF0E2
:1058A00004021A61022222779B6913F4407F20468A
:1058B00075D0FBF749FE0023237723681A69110787
:1058C0000FD5DA6812070CD56FF008021A610422AE
:1058D0002277DB699B07204667D0FBF735FE002364
:1058E000237723681A69D00610D5DA68D1060DD55A
:1058F0006FF010021A6108222277DB6913F4407FEF
:10590000204658D0FBF720FE0023237723681A692E
:10591000D20708D5DA68D00705D56FF001021A6101
:105920002046FFF79BFF23681A69110608D5DA683D
:10593000120605D56FF080021A61204600F00DFEB8
:1059400023681A69D00508D5DA68110605D56FF401
:1059500080721A61204600F001FE23681A6952061F
:1059600008D5DA68500605D56FF040021A61204666
:10597000FFF777FF23681A69910622D5DA68920645
:105980001FD56FF0200220461A61BDE8104000F0DC
:10599000E3BDFFF764FF2046FFF762FF76E7FFF7FE
:1059A0005EFF2046FFF75CFF85E7FFF758FF2046C4
:1059B000FFF756FF93E7FFF752FF2046FFF750FF30
:1059C000A2E710BD2C4A036890420ED0B0F1804F80
:1059D0000BD0A2F59432904207D002F5806290423B
:1059E00003D002F59632904215D14A6823F0700335
:1059F0001343214A904219D0B0F1804F16D0A2F53E
:105A00009432904212D002F5806290420ED002F59C
:105A1000963290420AD0194A904207D002F580622D
:105A2000904203D002F58062904203D1CA6823F409
:105A3000407313434A6923F08003134303608B6868
:105A4000C3620B6883620C4B98420FD003F500636E
:105A500098420BD003F54063984207D003F580636A
:105A6000984203D003F58063984201D10B69036328
:105A700001234361704700BF002C014000400140FA
:105A800010B5044650B390F83D3003F0FF021BB947
:105A900080F83C20FBF7E4FF0223206884F83D30C7
:105AA000211DFFF78FFF012384F84830002084F880
:105AB0003E3084F83F3084F8403084F8413084F838
:105AC000423084F8433084F8443084F8453084F818
:105AD000463084F8473084F83D3010BD0120FCE7A3
